{
  "contractName": "HydraStorage",
  "abi": [
    {
      "constant": true,
      "inputs": [],
      "name": "userCount",
      "outputs": [
        {
          "name": "",
          "type": "uint256"
        }
      ],
      "payable": false,
      "stateMutability": "view",
      "type": "function"
    },
    {
      "constant": false,
      "inputs": [
        {
          "name": "_address",
          "type": "address"
        },
        {
          "name": "_phoneNumber",
          "type": "bytes32"
        },
        {
          "name": "_name",
          "type": "string"
        },
        {
          "name": "_status",
          "type": "uint8"
        }
      ],
      "name": "updateUser",
      "outputs": [
        {
          "name": "success",
          "type": "bool"
        }
      ],
      "payable": false,
      "stateMutability": "nonpayable",
      "type": "function"
    },
    {
      "constant": true,
      "inputs": [],
      "name": "lastEthBlockNumber",
      "outputs": [
        {
          "name": "",
          "type": "uint256"
        }
      ],
      "payable": false,
      "stateMutability": "view",
      "type": "function"
    },
    {
      "constant": false,
      "inputs": [],
      "name": "kill",
      "outputs": [],
      "payable": false,
      "stateMutability": "nonpayable",
      "type": "function"
    },
    {
      "constant": false,
      "inputs": [
        {
          "name": "_address",
          "type": "address"
        }
      ],
      "name": "deleteUser",
      "outputs": [
        {
          "name": "success",
          "type": "bool"
        }
      ],
      "payable": false,
      "stateMutability": "nonpayable",
      "type": "function"
    },
    {
      "constant": true,
      "inputs": [
        {
          "name": "_address",
          "type": "address"
        }
      ],
      "name": "getUser",
      "outputs": [
        {
          "name": "_status",
          "type": "uint8"
        },
        {
          "name": "_phoneNumber",
          "type": "bytes32"
        },
        {
          "name": "_name",
          "type": "string"
        }
      ],
      "payable": false,
      "stateMutability": "view",
      "type": "function"
    },
    {
      "constant": false,
      "inputs": [
        {
          "name": "_address",
          "type": "address"
        },
        {
          "name": "_phoneNumber",
          "type": "bytes32"
        }
      ],
      "name": "addNewUser",
      "outputs": [
        {
          "name": "success",
          "type": "bool"
        }
      ],
      "payable": false,
      "stateMutability": "nonpayable",
      "type": "function"
    },
    {
      "constant": false,
      "inputs": [
        {
          "name": "_address",
          "type": "address"
        }
      ],
      "name": "addValidationRequest",
      "outputs": [
        {
          "name": "success",
          "type": "bool"
        }
      ],
      "payable": false,
      "stateMutability": "nonpayable",
      "type": "function"
    },
    {
      "constant": true,
      "inputs": [
        {
          "name": "_address",
          "type": "address"
        },
        {
          "name": "_fileTypeInt",
          "type": "uint256"
        }
      ],
      "name": "getUserFileWitType",
      "outputs": [
        {
          "name": "_hash_val",
          "type": "bytes32"
        },
        {
          "name": "_hash_func",
          "type": "uint8"
        },
        {
          "name": "_size",
          "type": "uint8"
        },
        {
          "name": "_timestamp",
          "type": "uint256"
        },
        {
          "name": "_status",
          "type": "uint8"
        },
        {
          "name": "_fileType",
          "type": "uint256"
        },
        {
          "name": "_docIdx",
          "type": "uint256"
        }
      ],
      "payable": false,
      "stateMutability": "view",
      "type": "function"
    },
    {
      "constant": false,
      "inputs": [
        {
          "name": "_address",
          "type": "address"
        },
        {
          "name": "_requestIdx",
          "type": "uint256"
        },
        {
          "name": "_status",
          "type": "uint8"
        },
        {
          "name": "_name",
          "type": "string"
        }
      ],
      "name": "validationCompleted",
      "outputs": [
        {
          "name": "success",
          "type": "bool"
        }
      ],
      "payable": false,
      "stateMutability": "nonpayable",
      "type": "function"
    },
    {
      "constant": true,
      "inputs": [
        {
          "name": "",
          "type": "address"
        },
        {
          "name": "",
          "type": "uint256"
        }
      ],
      "name": "ipfsArray",
      "outputs": [
        {
          "name": "hash_val",
          "type": "bytes32"
        },
        {
          "name": "hash_func",
          "type": "uint8"
        },
        {
          "name": "size",
          "type": "uint8"
        },
        {
          "name": "timestamp",
          "type": "uint256"
        },
        {
          "name": "status",
          "type": "uint8"
        },
        {
          "name": "fileType",
          "type": "uint256"
        },
        {
          "name": "docIdx",
          "type": "uint256"
        }
      ],
      "payable": false,
      "stateMutability": "view",
      "type": "function"
    },
    {
      "constant": false,
      "inputs": [
        {
          "name": "_address",
          "type": "address"
        },
        {
          "name": "_value",
          "type": "bytes32"
        },
        {
          "name": "_func",
          "type": "uint8"
        },
        {
          "name": "_size",
          "type": "uint8"
        },
        {
          "name": "_fileType",
          "type": "uint256"
        }
      ],
      "name": "fileUploaded",
      "outputs": [
        {
          "name": "success",
          "type": "bool"
        }
      ],
      "payable": false,
      "stateMutability": "nonpayable",
      "type": "function"
    },
    {
      "constant": true,
      "inputs": [
        {
          "name": "",
          "type": "address"
        }
      ],
      "name": "addressToHydraUsers",
      "outputs": [
        {
          "name": "status",
          "type": "uint8"
        },
        {
          "name": "phoneNumber",
          "type": "bytes32"
        },
        {
          "name": "validatedAt",
          "type": "uint256"
        },
        {
          "name": "name",
          "type": "string"
        }
      ],
      "payable": false,
      "stateMutability": "view",
      "type": "function"
    },
    {
      "constant": true,
      "inputs": [
        {
          "name": "",
          "type": "bytes32"
        },
        {
          "name": "",
          "type": "uint8"
        }
      ],
      "name": "ipfsToHydraUserIds",
      "outputs": [
        {
          "name": "",
          "type": "address"
        }
      ],
      "payable": false,
      "stateMutability": "view",
      "type": "function"
    },
    {
      "constant": true,
      "inputs": [],
      "name": "oracleAddress",
      "outputs": [
        {
          "name": "",
          "type": "address"
        }
      ],
      "payable": false,
      "stateMutability": "view",
      "type": "function"
    },
    {
      "constant": true,
      "inputs": [
        {
          "name": "",
          "type": "address"
        }
      ],
      "name": "ipfsCount",
      "outputs": [
        {
          "name": "",
          "type": "uint256"
        }
      ],
      "payable": false,
      "stateMutability": "view",
      "type": "function"
    },
    {
      "constant": true,
      "inputs": [
        {
          "name": "",
          "type": "uint256"
        }
      ],
      "name": "validationRequests",
      "outputs": [
        {
          "name": "userAddr",
          "type": "address"
        },
        {
          "name": "status",
          "type": "uint8"
        },
        {
          "name": "timestamp",
          "type": "uint256"
        }
      ],
      "payable": false,
      "stateMutability": "view",
      "type": "function"
    },
    {
      "constant": true,
      "inputs": [],
      "name": "requestCounterInBlock",
      "outputs": [
        {
          "name": "",
          "type": "uint256"
        }
      ],
      "payable": false,
      "stateMutability": "view",
      "type": "function"
    },
    {
      "constant": false,
      "inputs": [
        {
          "name": "_address",
          "type": "address"
        }
      ],
      "name": "transferOracle",
      "outputs": [],
      "payable": false,
      "stateMutability": "nonpayable",
      "type": "function"
    },
    {
      "constant": true,
      "inputs": [
        {
          "name": "",
          "type": "bytes32"
        }
      ],
      "name": "phoneToHydraUserAddresses",
      "outputs": [
        {
          "name": "",
          "type": "address"
        }
      ],
      "payable": false,
      "stateMutability": "view",
      "type": "function"
    },
    {
      "inputs": [],
      "payable": false,
      "stateMutability": "nonpayable",
      "type": "constructor"
    },
    {
      "payable": true,
      "stateMutability": "payable",
      "type": "fallback"
    },
    {
      "anonymous": false,
      "inputs": [
        {
          "indexed": true,
          "name": "_address",
          "type": "address"
        },
        {
          "indexed": false,
          "name": "_requestIdx",
          "type": "uint256"
        }
      ],
      "name": "ValidationRequestEvent",
      "type": "event"
    },
    {
      "anonymous": false,
      "inputs": [
        {
          "indexed": false,
          "name": "_address",
          "type": "address"
        },
        {
          "indexed": false,
          "name": "_docIdx",
          "type": "uint256"
        }
      ],
      "name": "FileUploadedEvent",
      "type": "event"
    }
  ],
  "bytecode": "0x6060604052600060075543600855341561001857600080fd5b33600360006101000a81548173ffffffffffffffffffffffffffffffffffffffff021916908373ffffffffffffffffffffffffffffffffffffffff160217905550611c63806100686000396000f300606060405260043610610112576000357c0100000000000000000000000000000000000000000000000000000000900463ffffffff16806307973ccf1461011757806330eac5201461014057806334a6c14b146101ed57806341c0e1b5146102165780635c60f2261461022b5780636f77926b1461027c578063831455161461034a5780638a22ab51146103a85780638d2dae95146103f95780638e3cd86b1461049357806395d22cc41461053c57806396acda14146105d65780639c40c01614610655578063a067f27d14610747578063a89ae4ba146107ba578063b6a15fb01461080f578063be8d4b211461085c578063e06579d9146108d3578063e7326806146108fc578063f5d4fee914610935575b600080fd5b341561012257600080fd5b61012a61099c565b6040518082815260200191505060405180910390f35b341561014b57600080fd5b6101d3600480803573ffffffffffffffffffffffffffffffffffffffff169060200190919080356000191690602001909190803590602001908201803590602001908080601f0160208091040260200160405190810160405280939291908181526020018383808284378201915050505050509190803560ff169060200190919050506109a2565b604051808215151515815260200191505060405180910390f35b34156101f857600080fd5b610200610ab3565b6040518082815260200191505060405180910390f35b341561022157600080fd5b610229610ab9565b005b341561023657600080fd5b610262600480803573ffffffffffffffffffffffffffffffffffffffff16906020019091905050610b50565b604051808215151515815260200191505060405180910390f35b341561028757600080fd5b6102b3600480803573ffffffffffffffffffffffffffffffffffffffff16906020019091905050610c35565b604051808460ff1660ff168152602001836000191660001916815260200180602001828103825283818151815260200191508051906020019080838360005b8381101561030d5780820151818401526020810190506102f2565b50505050905090810190601f16801561033a5780820380516001836020036101000a031916815260200191505b5094505050505060405180910390f35b341561035557600080fd5b61038e600480803573ffffffffffffffffffffffffffffffffffffffff1690602001909190803560001916906020019091905050610d47565b604051808215151515815260200191505060405180910390f35b34156103b357600080fd5b6103df600480803573ffffffffffffffffffffffffffffffffffffffff16906020019091905050610ea5565b604051808215151515815260200191505060405180910390f35b341561040457600080fd5b610439600480803573ffffffffffffffffffffffffffffffffffffffff169060200190919080359060200190919050506110d6565b6040518088600019166000191681526020018760ff1660ff1681526020018660ff1660ff1681526020018581526020018460ff1660ff16815260200183815260200182815260200197505050505050505060405180910390f35b341561049e57600080fd5b610522600480803573ffffffffffffffffffffffffffffffffffffffff1690602001909190803590602001909190803560ff1690602001909190803590602001908201803590602001908080601f016020809104026020016040519081016040528093929190818152602001838380828437820191505050505050919050506111c3565b604051808215151515815260200191505060405180910390f35b341561054757600080fd5b61057c600480803573ffffffffffffffffffffffffffffffffffffffff169060200190919080359060200190919050506112fc565b6040518088600019166000191681526020018760ff1660ff1681526020018660ff1660ff1681526020018581526020018460ff1660ff16815260200183815260200182815260200197505050505050505060405180910390f35b34156105e157600080fd5b61063b600480803573ffffffffffffffffffffffffffffffffffffffff169060200190919080356000191690602001909190803560ff1690602001909190803560ff16906020019091908035906020019091905050611381565b604051808215151515815260200191505060405180910390f35b341561066057600080fd5b61068c600480803573ffffffffffffffffffffffffffffffffffffffff16906020019091905050611860565b604051808560ff1660ff1681526020018460001916600019168152602001838152602001806020018281038252838181546001816001161561010002031660029004815260200191508054600181600116156101000203166002900480156107355780601f1061070a57610100808354040283529160200191610735565b820191906000526020600020905b81548152906001019060200180831161071857829003601f168201915b50509550505050505060405180910390f35b341561075257600080fd5b61077860048080356000191690602001909190803560ff1690602001909190505061189c565b604051808273ffffffffffffffffffffffffffffffffffffffff1673ffffffffffffffffffffffffffffffffffffffff16815260200191505060405180910390f35b34156107c557600080fd5b6107cd6118de565b604051808273ffffffffffffffffffffffffffffffffffffffff1673ffffffffffffffffffffffffffffffffffffffff16815260200191505060405180910390f35b341561081a57600080fd5b610846600480803573ffffffffffffffffffffffffffffffffffffffff16906020019091905050611904565b6040518082815260200191505060405180910390f35b341561086757600080fd5b61087d600480803590602001909190505061191c565b604051808473ffffffffffffffffffffffffffffffffffffffff1673ffffffffffffffffffffffffffffffffffffffff1681526020018360ff1660ff168152602001828152602001935050505060405180910390f35b34156108de57600080fd5b6108e6611973565b6040518082815260200191505060405180910390f35b341561090757600080fd5b610933600480803573ffffffffffffffffffffffffffffffffffffffff16906020019091905050611979565b005b341561094057600080fd5b61095a600480803560001916906020019091905050611a19565b604051808273ffffffffffffffffffffffffffffffffffffffff1673ffffffffffffffffffffffffffffffffffffffff16815260200191505060405180910390f35b60025481565b600080600360009054906101000a900473ffffffffffffffffffffffffffffffffffffffff1673ffffffffffffffffffffffffffffffffffffffff163373ffffffffffffffffffffffffffffffffffffffff16141515610a0157600080fd5b6000808773ffffffffffffffffffffffffffffffffffffffff1673ffffffffffffffffffffffffffffffffffffffff168152602001908152602001600020905060008160000160009054906101000a900460ff1660ff161415610a6357600080fd5b83816004019080519060200190610a7b929190611a4c565b5084816001018160001916905550828160000160006101000a81548160ff021916908360ff1602179055506001915050949350505050565b60085481565b600360009054906101000a900473ffffffffffffffffffffffffffffffffffffffff1673ffffffffffffffffffffffffffffffffffffffff163373ffffffffffffffffffffffffffffffffffffffff16141515610b1557600080fd5b600360009054906101000a900473ffffffffffffffffffffffffffffffffffffffff1673ffffffffffffffffffffffffffffffffffffffff16ff5b600080600360009054906101000a900473ffffffffffffffffffffffffffffffffffffffff1673ffffffffffffffffffffffffffffffffffffffff163373ffffffffffffffffffffffffffffffffffffffff16141515610baf57600080fd5b6000808473ffffffffffffffffffffffffffffffffffffffff1673ffffffffffffffffffffffffffffffffffffffff168152602001908152602001600020905060008160000160009054906101000a900460ff1660ff161415610c1157600080fd5b60008160000160006101000a81548160ff021916908360ff16021790555050919050565b600080610c40611acc565b60008060008673ffffffffffffffffffffffffffffffffffffffff1673ffffffffffffffffffffffffffffffffffffffff16815260200190815260200160002090508060000160009054906101000a900460ff16816001015482600401808054600181600116156101000203166002900480601f016020809104026020016040519081016040528092919081815260200182805460018160011615610100020316600290048015610d325780601f10610d0757610100808354040283529160200191610d32565b820191906000526020600020905b815481529060010190602001808311610d1557829003601f168201915b50505050509050935093509350509193909250565b600080600360009054906101000a900473ffffffffffffffffffffffffffffffffffffffff1673ffffffffffffffffffffffffffffffffffffffff163373ffffffffffffffffffffffffffffffffffffffff16141515610da657600080fd5b6000808573ffffffffffffffffffffffffffffffffffffffff1673ffffffffffffffffffffffffffffffffffffffff168152602001908152602001600020905060008160000160009054906101000a900460ff1660ff16141515610e0957600080fd5b60018160000160006101000a81548160ff021916908360ff160217905550828160010181600019169055508360016000856000191660001916815260200190815260200160002060006101000a81548173ffffffffffffffffffffffffffffffffffffffff021916908373ffffffffffffffffffffffffffffffffffffffff160217905550600160025401600281905550600191505092915050565b6000806000610eb2611ae0565b600360009054906101000a900473ffffffffffffffffffffffffffffffffffffffff1673ffffffffffffffffffffffffffffffffffffffff163373ffffffffffffffffffffffffffffffffffffffff16141515610f0e57600080fd5b6000808673ffffffffffffffffffffffffffffffffffffffff1673ffffffffffffffffffffffffffffffffffffffff168152602001908152602001600020925060008360000160009054906101000a900460ff1660ff161415610f7057600080fd5b60028360000160006101000a81548160ff021916908360ff16021790555060085443141515610fa25760006007819055505b600754602001439060020a0291506060604051908101604052808673ffffffffffffffffffffffffffffffffffffffff168152602001600260ff168152602001428152509050806009600084815260200190815260200160002060008201518160000160006101000a81548173ffffffffffffffffffffffffffffffffffffffff021916908373ffffffffffffffffffffffffffffffffffffffff16021790555060208201518160000160146101000a81548160ff021916908360ff160217905550604082015181600101559050506001600754016007819055508473ffffffffffffffffffffffffffffffffffffffff167e5b7bf47e29e469c95385cec0f1dc8fdff878756dff4efc6fd9885ba881b5d1836040518082815260200191505060405180910390a260019350505050919050565b60008060008060008060008060008060008c73ffffffffffffffffffffffffffffffffffffffff1673ffffffffffffffffffffffffffffffffffffffff168152602001908152602001600020915060008260000160009054906101000a900460ff1660ff16141561114657600080fd5b8160020160008b8152602001908152602001600020905080600001548160010160009054906101000a900460ff168260010160019054906101000a900460ff1683600201548460030160009054906101000a900460ff16856004015486600501549850985098509850985098509850505092959891949750929550565b6000806000600360009054906101000a900473ffffffffffffffffffffffffffffffffffffffff1673ffffffffffffffffffffffffffffffffffffffff163373ffffffffffffffffffffffffffffffffffffffff1614151561122457600080fd5b60096000878152602001908152602001600020915060008260000160149054906101000a900460ff1660ff16141561125b57600080fd5b848260000160146101000a81548160ff021916908360ff1602179055506000808873ffffffffffffffffffffffffffffffffffffffff1673ffffffffffffffffffffffffffffffffffffffff1681526020019081526020016000209050848160000160006101000a81548160ff021916908360ff160217905550838160040190805190602001906112ed929190611a4c565b50600192505050949350505050565b60056020528160005260406000208181548110151561131757fe5b9060005260206000209060060201600091509150508060000154908060010160009054906101000a900460ff16908060010160019054906101000a900460ff16908060020154908060030160009054906101000a900460ff16908060040154908060050154905087565b600080600061138e611b1b565b600360009054906101000a900473ffffffffffffffffffffffffffffffffffffffff1673ffffffffffffffffffffffffffffffffffffffff163373ffffffffffffffffffffffffffffffffffffffff161415156113ea57600080fd5b6000808a73ffffffffffffffffffffffffffffffffffffffff1673ffffffffffffffffffffffffffffffffffffffff168152602001908152602001600020925060008360000160009054906101000a900460ff1660ff16141561144c57600080fd5b6000600460008a6000191660001916815260200190815260200160002060008960ff1660ff16815260200190815260200160002060009054906101000a900473ffffffffffffffffffffffffffffffffffffffff1673ffffffffffffffffffffffffffffffffffffffff161415156114c357600080fd5b88600460008a6000191660001916815260200190815260200160002060008960ff1660ff16815260200190815260200160002060006101000a81548173ffffffffffffffffffffffffffffffffffffffff021916908373ffffffffffffffffffffffffffffffffffffffff160217905550600660008a73ffffffffffffffffffffffffffffffffffffffff1673ffffffffffffffffffffffffffffffffffffffff16815260200190815260200160002054915060e060405190810160405280896000191681526020018860ff1681526020018760ff168152602001428152602001600060ff168152602001868152602001838152509050600560008a73ffffffffffffffffffffffffffffffffffffffff1673ffffffffffffffffffffffffffffffffffffffff168152602001908152602001600020805480600101828161160b9190611b65565b916000526020600020906006020160008390919091506000820151816000019060001916905560208201518160010160006101000a81548160ff021916908360ff16021790555060408201518160010160016101000a81548160ff021916908360ff1602179055506060820151816002015560808201518160030160006101000a81548160ff021916908360ff16021790555060a0820151816004015560c082015181600501555050506001600660008b73ffffffffffffffffffffffffffffffffffffffff1673ffffffffffffffffffffffffffffffffffffffff1681526020019081526020016000205401600660008b73ffffffffffffffffffffffffffffffffffffffff1673ffffffffffffffffffffffffffffffffffffffff16815260200190815260200160002081905550808360020160008781526020019081526020016000206000820151816000019060001916905560208201518160010160006101000a81548160ff021916908360ff16021790555060408201518160010160016101000a81548160ff021916908360ff1602179055506060820151816002015560808201518160030160006101000a81548160ff021916908360ff16021790555060a0820151816004015560c082015181600501559050507fcde6d88e2d28cb76acb7dbffcad6d149e2f7c37a87694f08f57b841d5de08d108983604051808373ffffffffffffffffffffffffffffffffffffffff1673ffffffffffffffffffffffffffffffffffffffff1681526020018281526020019250505060405180910390a16001935050505095945050505050565b60006020528060005260406000206000915090508060000160009054906101000a900460ff169080600101549080600301549080600401905084565b60046020528160005260406000206020528060005260406000206000915091509054906101000a900473ffffffffffffffffffffffffffffffffffffffff1681565b600360009054906101000a900473ffffffffffffffffffffffffffffffffffffffff1681565b60066020528060005260406000206000915090505481565b60096020528060005260406000206000915090508060000160009054906101000a900473ffffffffffffffffffffffffffffffffffffffff16908060000160149054906101000a900460ff16908060010154905083565b60075481565b600360009054906101000a900473ffffffffffffffffffffffffffffffffffffffff1673ffffffffffffffffffffffffffffffffffffffff163373ffffffffffffffffffffffffffffffffffffffff161415156119d557600080fd5b80600360006101000a81548173ffffffffffffffffffffffffffffffffffffffff021916908373ffffffffffffffffffffffffffffffffffffffff16021790555050565b60016020528060005260406000206000915054906101000a900473ffffffffffffffffffffffffffffffffffffffff1681565b828054600181600116156101000203166002900490600052602060002090601f016020900481019282601f10611a8d57805160ff1916838001178555611abb565b82800160010185558215611abb579182015b82811115611aba578251825591602001919060010190611a9f565b5b509050611ac89190611b97565b5090565b602060405190810160405280600081525090565b606060405190810160405280600073ffffffffffffffffffffffffffffffffffffffff168152602001600060ff168152602001600081525090565b60e06040519081016040528060008019168152602001600060ff168152602001600060ff16815260200160008152602001600060ff16815260200160008152602001600081525090565b815481835581811511611b9257600602816006028360005260206000209182019101611b919190611bbc565b5b505050565b611bb991905b80821115611bb5576000816000905550600101611b9d565b5090565b90565b611c3491905b80821115611c30576000808201600090556001820160006101000a81549060ff02191690556001820160016101000a81549060ff021916905560028201600090556003820160006101000a81549060ff02191690556004820160009055600582016000905550600601611bc2565b5090565b905600a165627a7a723058204791aa534cc0967e26aa7ff5a8a551addb179631c15e31a9345765f099f3de180029",
  "source": "pragma solidity ^0.4.18;\n\n\ncontract HydraStorage {\n\n  // users\n  struct HydraUser {\n    uint8 status; // 1: created, 2: requested, 3: verified, 4: rejected\n    bytes32 phoneNumber;\n    mapping (uint256 => MultiHash) userFiles;\n    uint256 validatedAt;\n    string name;\n  }\n  mapping (address => HydraUser) public addressToHydraUsers;\n  mapping (bytes32 => address) public phoneToHydraUserAddresses;\n\n  uint256 public userCount;\n\n  address public oracleAddress;\n\n  // Modifiers\n  modifier onlyOracle {\n    if (msg.sender != oracleAddress) revert();\n    _;\n  }\n\n  // Constructor\n  function HydraStorage() public {\n    oracleAddress = msg.sender;\n  }\n\n  struct MultiHash {\n    bytes32 hash_val;\n    uint8 hash_func;\n    uint8 size;\n    uint256 timestamp;\n    uint8 status; // 0: uploaded, 1: validation requested, 2: validated, 9:rejected\n    uint256 fileType; // 1: front, 2: left, 3: right, 4: driver's license\n    uint256 docIdx; // document index on address\n  }\n  mapping (bytes32 => mapping(uint8 => address) ) public ipfsToHydraUserIds;\n  mapping (address => MultiHash[]) public ipfsArray;\n  mapping (address => uint256) public ipfsCount;\n\n\n  uint256 public requestCounterInBlock = 0;\n  uint256 public lastEthBlockNumber = block.number;\n\n  // validation request\n  struct ValidationRequest {\n    address userAddr;\n    uint8 status; // 0: default, 1: requested, 2: validated, 3: rejected\n    uint256 timestamp;\n  }\n  mapping (uint256 => ValidationRequest) public validationRequests;\n\n\n  // when request received\n  event ValidationRequestEvent(address indexed _address, uint256 _requestIdx);\n\n  // validation process is handled by tradiional db because of complexity\n  function addValidationRequest(\n      address _address\n    ) public onlyOracle returns (bool success) {\n\n    HydraUser user = addressToHydraUsers[_address];\n    if (user.status == 0) revert();\n    user.status = 2; // requested\n\n    // generate unique number\n    if (block.number != lastEthBlockNumber) {\n        requestCounterInBlock = 0;\n    }\n    uint256 requestIdx = block.number << 32 + requestCounterInBlock;\n\n    // add requet\n    ValidationRequest memory vq = ValidationRequest({\n      userAddr: _address,\n      status: 2,\n      timestamp: now\n    });\n    validationRequests[requestIdx] = vq;\n    // increase counter\n    requestCounterInBlock = requestCounterInBlock + 1;\n\n    ValidationRequestEvent(_address, requestIdx);\n\n    return true;\n  }\n\n  function validationCompleted(\n      address _address,\n      uint256 _requestIdx,\n      uint8 _status,\n      string _name\n    ) public onlyOracle returns (bool success) {\n\n    // request\n    ValidationRequest vr = validationRequests[_requestIdx];\n    if (vr.status == 0) revert();\n    vr.status = _status;\n\n    // user\n    HydraUser user = addressToHydraUsers[_address];\n    user.status = _status;\n    user.name = _name;\n\n    return true;\n  }\n\n  function getUser(address _address) public view returns (uint8 _status, bytes32 _phoneNumber, string _name) {\n    HydraUser user = addressToHydraUsers[_address];\n    return (user.status, user.phoneNumber, user.name);\n  }\n\n  // add new user\n  function addNewUser(address _address, bytes32 _phoneNumber) public onlyOracle returns (bool success) {\n    HydraUser user = addressToHydraUsers[_address];\n    if (user.status != 0) revert();\n\n    // create user\n    user.status = 1;\n    user.phoneNumber = _phoneNumber;\n\n    phoneToHydraUserAddresses[_phoneNumber] = _address;\n\n    userCount = userCount + 1;\n\n    return true;\n  }\n\n  function updateUser(\n    address _address,\n    bytes32 _phoneNumber,\n    string _name,\n    uint8 _status) public onlyOracle returns (bool success) {\n\n      HydraUser user = addressToHydraUsers[_address];\n      if (user.status == 0) revert();\n\n      user.name = _name;\n      user.phoneNumber = _phoneNumber;\n      user.status = _status;\n\n      return true;\n  }\n\n  function deleteUser(address _address) public onlyOracle returns (bool success) {\n    HydraUser user = addressToHydraUsers[_address];\n    if (user.status == 0) revert();\n\n    user.status = 0;\n  }\n\n  // there are 2 types of file\n  // Some images can have same fileType Others are not...\n  function getUserFileWitType(\n      address _address,\n      uint256 _fileTypeInt\n    ) public view returns (\n      bytes32 _hash_val,\n      uint8 _hash_func,\n      uint8 _size,\n      uint256 _timestamp,\n      uint8 _status,\n      uint256 _fileType,\n      uint256 _docIdx\n    ) {\n\n    HydraUser user = addressToHydraUsers[_address];\n    if (user.status == 0) revert();\n\n    MultiHash mh = user.userFiles[_fileTypeInt];\n\n    return ( mh.hash_val, mh.hash_func, mh.size, mh.timestamp, mh.status, mh.fileType, mh.docIdx );\n  }\n\n  // when file is uploaded\n  event FileUploadedEvent(address _address, uint256 _docIdx);\n\n  // file is uploaded on ipfs\n  // type 1: front, 2: left, 3: right, 4: driver's license\n  function fileUploaded(\n      address _address,\n      bytes32 _value,\n      uint8 _func,\n      uint8 _size,\n      uint256 _fileType\n    ) public onlyOracle returns (bool success) {\n    // get user id\n\n    HydraUser user = addressToHydraUsers[_address];\n    if (user.status == 0) revert();\n\n    // push ipfs hash if not exist\n    if (ipfsToHydraUserIds[_value][_func] != 0) revert();\n\n    // set userid\n    ipfsToHydraUserIds[_value][_func] = _address;\n    uint256 docIdx = ipfsCount[_address];\n\n    MultiHash memory mh = MultiHash({\n      hash_val: _value,\n      hash_func: _func,\n      size: _size,\n      timestamp: now,\n      status: 0,\n      fileType: _fileType,\n      docIdx: docIdx\n    });\n    ipfsArray[_address].push(mh);\n\n    ipfsCount[_address] = ipfsCount[_address] + 1;\n\n    user.userFiles[_fileType] = mh;\n\n    FileUploadedEvent( _address, docIdx );\n\n    return true;\n  }\n\n  function transferOracle(address _address) public onlyOracle {\n    oracleAddress = _address;\n  }\n\n  // kill contract itself\n  function kill() onlyOracle public {\n      selfdestruct(oracleAddress);\n  }\n\n  // fallback for ether\n  function() payable public {\n    revert();\n  }\n}\n",
  "sourcePath": "/Users/kouohhashi/Desktop/eth_project/credit_hydra/smart_contracts/contracts/HydraStorage.sol",
  "compiler": {
    "name": "solc",
    "version": "0.4.18+commit.9cf6e910.Emscripten.clang"
  },
  "schemaVersion": "1.0.1",
  "updatedAt": "2018-02-17T19:47:16.222Z"
}