{
  "contractName": "PlasmaParent",
  "abi": [
    {
      "constant": true,
      "inputs": [],
      "name": "newBlockHash5",
      "outputs": [
        {
          "name": "",
          "type": "bytes32"
        }
      ],
      "payable": false,
      "stateMutability": "view",
      "type": "function"
    },
    {
      "constant": false,
      "inputs": [
        {
          "name": "header",
          "type": "bytes"
        }
      ],
      "name": "submitBlock3",
      "outputs": [
        {
          "name": "success",
          "type": "bool"
        }
      ],
      "payable": false,
      "stateMutability": "nonpayable",
      "type": "function"
    },
    {
      "constant": true,
      "inputs": [],
      "name": "newBlockHash2",
      "outputs": [
        {
          "name": "",
          "type": "bytes32"
        }
      ],
      "payable": false,
      "stateMutability": "view",
      "type": "function"
    },
    {
      "constant": true,
      "inputs": [],
      "name": "previousHash7",
      "outputs": [
        {
          "name": "",
          "type": "bytes32"
        }
      ],
      "payable": false,
      "stateMutability": "view",
      "type": "function"
    },
    {
      "constant": true,
      "inputs": [],
      "name": "lastBlockNumber",
      "outputs": [
        {
          "name": "",
          "type": "uint256"
        }
      ],
      "payable": false,
      "stateMutability": "view",
      "type": "function"
    },
    {
      "constant": true,
      "inputs": [
        {
          "name": "_user",
          "type": "address"
        }
      ],
      "name": "depositRecordsForUser",
      "outputs": [
        {
          "name": "",
          "type": "uint256[]"
        }
      ],
      "payable": false,
      "stateMutability": "view",
      "type": "function"
    },
    {
      "constant": true,
      "inputs": [],
      "name": "previousHash8",
      "outputs": [
        {
          "name": "",
          "type": "bytes32"
        }
      ],
      "payable": false,
      "stateMutability": "view",
      "type": "function"
    },
    {
      "constant": true,
      "inputs": [],
      "name": "lastEthBlockNumber",
      "outputs": [
        {
          "name": "",
          "type": "uint256"
        }
      ],
      "payable": false,
      "stateMutability": "view",
      "type": "function"
    },
    {
      "constant": true,
      "inputs": [],
      "name": "previousHash0",
      "outputs": [
        {
          "name": "",
          "type": "bytes32"
        }
      ],
      "payable": false,
      "stateMutability": "view",
      "type": "function"
    },
    {
      "constant": false,
      "inputs": [
        {
          "name": "_plasmaBlockNum",
          "type": "uint256"
        },
        {
          "name": "_tx",
          "type": "bytes"
        },
        {
          "name": "_proof",
          "type": "bytes"
        },
        {
          "name": "confirmSig",
          "type": "bytes"
        },
        {
          "name": "_depositIndex",
          "type": "uint256"
        }
      ],
      "name": "startExit",
      "outputs": [
        {
          "name": "success",
          "type": "bool"
        }
      ],
      "payable": false,
      "stateMutability": "nonpayable",
      "type": "function"
    },
    {
      "constant": false,
      "inputs": [],
      "name": "kill",
      "outputs": [],
      "payable": false,
      "stateMutability": "nonpayable",
      "type": "function"
    },
    {
      "constant": false,
      "inputs": [
        {
          "name": "_address",
          "type": "address"
        },
        {
          "name": "_amount",
          "type": "uint256"
        }
      ],
      "name": "deposit",
      "outputs": [
        {
          "name": "idx",
          "type": "uint256"
        }
      ],
      "payable": false,
      "stateMutability": "nonpayable",
      "type": "function"
    },
    {
      "constant": false,
      "inputs": [
        {
          "name": "_address",
          "type": "address"
        }
      ],
      "name": "transferOwner",
      "outputs": [],
      "payable": false,
      "stateMutability": "nonpayable",
      "type": "function"
    },
    {
      "constant": true,
      "inputs": [
        {
          "name": "",
          "type": "uint256"
        }
      ],
      "name": "headers",
      "outputs": [
        {
          "name": "blockNumber",
          "type": "uint32"
        },
        {
          "name": "numTransactions",
          "type": "uint32"
        },
        {
          "name": "v",
          "type": "uint8"
        },
        {
          "name": "previousBlockHash",
          "type": "bytes32"
        },
        {
          "name": "merkleRootHash",
          "type": "bytes32"
        },
        {
          "name": "r",
          "type": "bytes32"
        },
        {
          "name": "s",
          "type": "bytes32"
        }
      ],
      "payable": false,
      "stateMutability": "view",
      "type": "function"
    },
    {
      "constant": true,
      "inputs": [],
      "name": "submitBlock3_1",
      "outputs": [
        {
          "name": "",
          "type": "uint256"
        }
      ],
      "payable": false,
      "stateMutability": "view",
      "type": "function"
    },
    {
      "constant": false,
      "inputs": [
        {
          "name": "_blockNumber",
          "type": "uint32"
        }
      ],
      "name": "updateLastBlockNumber",
      "outputs": [
        {
          "name": "success",
          "type": "bool"
        }
      ],
      "payable": false,
      "stateMutability": "nonpayable",
      "type": "function"
    },
    {
      "constant": false,
      "inputs": [
        {
          "name": "_address",
          "type": "address"
        }
      ],
      "name": "setTokenAddrss",
      "outputs": [],
      "payable": false,
      "stateMutability": "nonpayable",
      "type": "function"
    },
    {
      "constant": true,
      "inputs": [],
      "name": "previousHash2",
      "outputs": [
        {
          "name": "",
          "type": "bytes32"
        }
      ],
      "payable": false,
      "stateMutability": "view",
      "type": "function"
    },
    {
      "constant": true,
      "inputs": [],
      "name": "newBlockHash0",
      "outputs": [
        {
          "name": "",
          "type": "bytes32"
        }
      ],
      "payable": false,
      "stateMutability": "view",
      "type": "function"
    },
    {
      "constant": true,
      "inputs": [],
      "name": "blockHeaderLength",
      "outputs": [
        {
          "name": "",
          "type": "uint32"
        }
      ],
      "payable": false,
      "stateMutability": "view",
      "type": "function"
    },
    {
      "constant": true,
      "inputs": [],
      "name": "submitBlock3_6",
      "outputs": [
        {
          "name": "",
          "type": "uint8"
        }
      ],
      "payable": false,
      "stateMutability": "view",
      "type": "function"
    },
    {
      "constant": true,
      "inputs": [
        {
          "name": "",
          "type": "uint256"
        }
      ],
      "name": "depositRecords",
      "outputs": [
        {
          "name": "from",
          "type": "address"
        },
        {
          "name": "status",
          "type": "uint8"
        },
        {
          "name": "amount",
          "type": "uint256"
        },
        {
          "name": "index",
          "type": "uint256"
        },
        {
          "name": "withdrawStartedTime",
          "type": "uint256"
        }
      ],
      "payable": false,
      "stateMutability": "view",
      "type": "function"
    },
    {
      "constant": true,
      "inputs": [],
      "name": "previousHash1",
      "outputs": [
        {
          "name": "",
          "type": "bytes32"
        }
      ],
      "payable": false,
      "stateMutability": "view",
      "type": "function"
    },
    {
      "constant": true,
      "inputs": [],
      "name": "previousHash4",
      "outputs": [
        {
          "name": "",
          "type": "bytes32"
        }
      ],
      "payable": false,
      "stateMutability": "view",
      "type": "function"
    },
    {
      "constant": true,
      "inputs": [],
      "name": "submitBlock3_3",
      "outputs": [
        {
          "name": "",
          "type": "uint8"
        }
      ],
      "payable": false,
      "stateMutability": "view",
      "type": "function"
    },
    {
      "constant": true,
      "inputs": [],
      "name": "submitBlock3_5",
      "outputs": [
        {
          "name": "",
          "type": "bytes32"
        }
      ],
      "payable": false,
      "stateMutability": "view",
      "type": "function"
    },
    {
      "constant": true,
      "inputs": [],
      "name": "ownerAddress",
      "outputs": [
        {
          "name": "",
          "type": "address"
        }
      ],
      "payable": false,
      "stateMutability": "view",
      "type": "function"
    },
    {
      "constant": true,
      "inputs": [],
      "name": "newBlockHash1",
      "outputs": [
        {
          "name": "",
          "type": "bytes32"
        }
      ],
      "payable": false,
      "stateMutability": "view",
      "type": "function"
    },
    {
      "constant": true,
      "inputs": [],
      "name": "tokenAddress",
      "outputs": [
        {
          "name": "",
          "type": "address"
        }
      ],
      "payable": false,
      "stateMutability": "view",
      "type": "function"
    },
    {
      "constant": true,
      "inputs": [],
      "name": "submitBlock3_2",
      "outputs": [
        {
          "name": "",
          "type": "uint8"
        }
      ],
      "payable": false,
      "stateMutability": "view",
      "type": "function"
    },
    {
      "constant": true,
      "inputs": [],
      "name": "PreviousBlockPersonalHashLength",
      "outputs": [
        {
          "name": "",
          "type": "uint256"
        }
      ],
      "payable": false,
      "stateMutability": "view",
      "type": "function"
    },
    {
      "constant": true,
      "inputs": [],
      "name": "submitBlock3_4",
      "outputs": [
        {
          "name": "",
          "type": "address"
        }
      ],
      "payable": false,
      "stateMutability": "view",
      "type": "function"
    },
    {
      "constant": false,
      "inputs": [],
      "name": "completeExit",
      "outputs": [
        {
          "name": "success",
          "type": "bool"
        }
      ],
      "payable": false,
      "stateMutability": "nonpayable",
      "type": "function"
    },
    {
      "constant": true,
      "inputs": [],
      "name": "previousHash6",
      "outputs": [
        {
          "name": "",
          "type": "bytes32"
        }
      ],
      "payable": false,
      "stateMutability": "view",
      "type": "function"
    },
    {
      "constant": true,
      "inputs": [],
      "name": "newBlockHash3",
      "outputs": [
        {
          "name": "",
          "type": "bytes32"
        }
      ],
      "payable": false,
      "stateMutability": "view",
      "type": "function"
    },
    {
      "constant": true,
      "inputs": [],
      "name": "newBlockHash4",
      "outputs": [
        {
          "name": "",
          "type": "bytes32"
        }
      ],
      "payable": false,
      "stateMutability": "view",
      "type": "function"
    },
    {
      "constant": true,
      "inputs": [],
      "name": "depositCounterInBlock",
      "outputs": [
        {
          "name": "",
          "type": "uint256"
        }
      ],
      "payable": false,
      "stateMutability": "view",
      "type": "function"
    },
    {
      "constant": false,
      "inputs": [
        {
          "name": "exitId",
          "type": "uint256"
        },
        {
          "name": "plasmaBlockNum",
          "type": "uint256"
        },
        {
          "name": "txindex",
          "type": "uint256"
        },
        {
          "name": "oindex",
          "type": "uint256"
        },
        {
          "name": "tx",
          "type": "bytes"
        },
        {
          "name": "proof",
          "type": "bytes"
        },
        {
          "name": "confirmSig",
          "type": "bytes"
        }
      ],
      "name": "challengeExit",
      "outputs": [],
      "payable": false,
      "stateMutability": "nonpayable",
      "type": "function"
    },
    {
      "constant": false,
      "inputs": [
        {
          "name": "header",
          "type": "bytes"
        }
      ],
      "name": "submitBlock",
      "outputs": [
        {
          "name": "success",
          "type": "bool"
        }
      ],
      "payable": false,
      "stateMutability": "nonpayable",
      "type": "function"
    },
    {
      "constant": true,
      "inputs": [],
      "name": "previousHash3",
      "outputs": [
        {
          "name": "",
          "type": "bytes32"
        }
      ],
      "payable": false,
      "stateMutability": "view",
      "type": "function"
    },
    {
      "constant": true,
      "inputs": [],
      "name": "previousHash5",
      "outputs": [
        {
          "name": "",
          "type": "bytes32"
        }
      ],
      "payable": false,
      "stateMutability": "view",
      "type": "function"
    },
    {
      "constant": false,
      "inputs": [
        {
          "name": "_depositIndex",
          "type": "uint256"
        },
        {
          "name": "_status",
          "type": "uint8"
        }
      ],
      "name": "updateDepositRecord",
      "outputs": [
        {
          "name": "success",
          "type": "bool"
        }
      ],
      "payable": false,
      "stateMutability": "nonpayable",
      "type": "function"
    },
    {
      "inputs": [],
      "payable": false,
      "stateMutability": "nonpayable",
      "type": "constructor"
    },
    {
      "payable": true,
      "stateMutability": "payable",
      "type": "fallback"
    },
    {
      "anonymous": false,
      "inputs": [
        {
          "indexed": true,
          "name": "_signer",
          "type": "address"
        },
        {
          "indexed": true,
          "name": "_blockNumber",
          "type": "uint32"
        },
        {
          "indexed": true,
          "name": "_blockHash",
          "type": "bytes32"
        }
      ],
      "name": "HeaderSubmittedEvent",
      "type": "event"
    },
    {
      "anonymous": false,
      "inputs": [
        {
          "indexed": true,
          "name": "_from",
          "type": "address"
        },
        {
          "indexed": true,
          "name": "_amount",
          "type": "uint256"
        },
        {
          "indexed": true,
          "name": "_depositIndex",
          "type": "uint256"
        }
      ],
      "name": "DepositEvent",
      "type": "event"
    }
  ],
  "bytecode": "0x606060405260006002554360035560006004556089600760006101000a81548163ffffffff021916908363ffffffff160217905550341561003f57600080fd5b336000806101000a81548173ffffffffffffffffffffffffffffffffffffffff021916908373ffffffffffffffffffffffffffffffffffffffff1602179055506135f68061008e6000396000f300606060405260043610610204576000357c0100000000000000000000000000000000000000000000000000000000900463ffffffff1680630229874c1461020957806303e63bdb1461023a5780631e0601ed146102af57806324d13ec1146102e05780632552317c1461031157806329f61d251461033a5780632d7dd857146103c857806334a6c14b146103f95780633652c008146104225780633ebc42551461045357806341c0e1b51461056057806347e7ef24146105755780634fb2e45d146105cb57806356f90d791461060457806358d44bbc146106a357806358e521a5146106cc5780635df6add61461070d57806360bd79ce1461074657806365c47c151461077757806368349324146107a85780636866cac3146107dd578063726052281461080c578063778a7507146108995780637da28732146108ca57806384d90651146108fb5780638a81af861461092a5780638f84aa091461095b57806399f5d960146109b05780639d76ea58146109e15780639dede30914610a365780639ec5356214610a65578063a0012ac414610a8e578063b01eb66014610ae3578063b03dc5ba14610b10578063b55ffcae14610b41578063c24c3f6414610b72578063c652cf4214610ba3578063cd32e68c14610bcc578063d510738114610cd3578063ed62cd1b14610d48578063f1f6b40b14610d79578063f9fa0b1a14610daa575b600080fd5b341561021457600080fd5b61021c610df1565b60405180826000191660001916815260200191505060405180910390f35b341561024557600080fd5b610295600480803590602001908201803590602001908080601f01602080910402602001604051908101604052809392919081815260200183838082843782019150505050505091905050610df7565b604051808215151515815260200191505060405180910390f35b34156102ba57600080fd5b6102c2611ba2565b60405180826000191660001916815260200191505060405180910390f35b34156102eb57600080fd5b6102f3611ba8565b60405180826000191660001916815260200191505060405180910390f35b341561031c57600080fd5b610324611bae565b6040518082815260200191505060405180910390f35b341561034557600080fd5b610371600480803573ffffffffffffffffffffffffffffffffffffffff16906020019091905050611bb4565b6040518080602001828103825283818151815260200191508051906020019060200280838360005b838110156103b4578082015181840152602081019050610399565b505050509050019250505060405180910390f35b34156103d357600080fd5b6103db611c51565b60405180826000191660001916815260200191505060405180910390f35b341561040457600080fd5b61040c611c57565b6040518082815260200191505060405180910390f35b341561042d57600080fd5b610435611c5d565b60405180826000191660001916815260200191505060405180910390f35b341561045e57600080fd5b610546600480803590602001909190803590602001908201803590602001908080601f0160208091040260200160405190810160405280939291908181526020018383808284378201915050505050509190803590602001908201803590602001908080601f0160208091040260200160405190810160405280939291908181526020018383808284378201915050505050509190803590602001908201803590602001908080601f01602080910402602001604051908101604052809392919081815260200183838082843782019150505050505091908035906020019091905050611c63565b604051808215151515815260200191505060405180910390f35b341561056b57600080fd5b610573611ccd565b005b341561058057600080fd5b6105b5600480803573ffffffffffffffffffffffffffffffffffffffff16906020019091908035906020019091905050611d62565b6040518082815260200191505060405180910390f35b34156105d657600080fd5b610602600480803573ffffffffffffffffffffffffffffffffffffffff16906020019091905050611fd9565b005b341561060f57600080fd5b6106256004808035906020019091905050612077565b604051808863ffffffff1663ffffffff1681526020018763ffffffff1663ffffffff1681526020018660ff1660ff168152602001856000191660001916815260200184600019166000191681526020018360001916600019168152602001826000191660001916815260200197505050505050505060405180910390f35b34156106ae57600080fd5b6106b66120e6565b6040518082815260200191505060405180910390f35b34156106d757600080fd5b6106f3600480803563ffffffff169060200190919050506120ec565b604051808215151515815260200191505060405180910390f35b341561071857600080fd5b610744600480803573ffffffffffffffffffffffffffffffffffffffff1690602001909190505061215f565b005b341561075157600080fd5b6107596121fe565b60405180826000191660001916815260200191505060405180910390f35b341561078257600080fd5b61078a612204565b60405180826000191660001916815260200191505060405180910390f35b34156107b357600080fd5b6107bb61220a565b604051808263ffffffff1663ffffffff16815260200191505060405180910390f35b34156107e857600080fd5b6107f0612220565b604051808260ff1660ff16815260200191505060405180910390f35b341561081757600080fd5b61082d6004808035906020019091905050612233565b604051808673ffffffffffffffffffffffffffffffffffffffff1673ffffffffffffffffffffffffffffffffffffffff16815260200185600581111561086f57fe5b60ff1681526020018481526020018381526020018281526020019550505050505060405180910390f35b34156108a457600080fd5b6108ac612296565b60405180826000191660001916815260200191505060405180910390f35b34156108d557600080fd5b6108dd61229c565b60405180826000191660001916815260200191505060405180910390f35b341561090657600080fd5b61090e6122a2565b604051808260ff1660ff16815260200191505060405180910390f35b341561093557600080fd5b61093d6122b5565b60405180826000191660001916815260200191505060405180910390f35b341561096657600080fd5b61096e6122bb565b604051808273ffffffffffffffffffffffffffffffffffffffff1673ffffffffffffffffffffffffffffffffffffffff16815260200191505060405180910390f35b34156109bb57600080fd5b6109c36122e0565b60405180826000191660001916815260200191505060405180910390f35b34156109ec57600080fd5b6109f46122e6565b604051808273ffffffffffffffffffffffffffffffffffffffff1673ffffffffffffffffffffffffffffffffffffffff16815260200191505060405180910390f35b3415610a4157600080fd5b610a4961230c565b604051808260ff1660ff16815260200191505060405180910390f35b3415610a7057600080fd5b610a7861231f565b6040518082815260200191505060405180910390f35b3415610a9957600080fd5b610aa161232e565b604051808273ffffffffffffffffffffffffffffffffffffffff1673ffffffffffffffffffffffffffffffffffffffff16815260200191505060405180910390f35b3415610aee57600080fd5b610af6612354565b604051808215151515815260200191505060405180910390f35b3415610b1b57600080fd5b610b236123b8565b60405180826000191660001916815260200191505060405180910390f35b3415610b4c57600080fd5b610b546123be565b60405180826000191660001916815260200191505060405180910390f35b3415610b7d57600080fd5b610b856123c4565b60405180826000191660001916815260200191505060405180910390f35b3415610bae57600080fd5b610bb66123ca565b6040518082815260200191505060405180910390f35b3415610bd757600080fd5b610cd1600480803590602001909190803590602001909190803590602001909190803590602001909190803590602001908201803590602001908080601f0160208091040260200160405190810160405280939291908181526020018383808284378201915050505050509190803590602001908201803590602001908080601f0160208091040260200160405190810160405280939291908181526020018383808284378201915050505050509190803590602001908201803590602001908080601f016020809104026020016040519081016040528093929190818152602001838380828437820191505050505050919050506123d0565b005b3415610cde57600080fd5b610d2e600480803590602001908201803590602001908080601f016020809104026020016040519081016040528093929190818152602001838380828437820191505050505050919050506123d9565b604051808215151515815260200191505060405180910390f35b3415610d5357600080fd5b610d5b613178565b60405180826000191660001916815260200191505060405180910390f35b3415610d8457600080fd5b610d8c61317e565b60405180826000191660001916815260200191505060405180910390f35b3415610db557600080fd5b610dd7600480803590602001909190803560ff16906020019091905050613184565b604051808215151515815260200191505060405180910390f35b601b5481565b6000806000806000806000806000806000806000610e1361350c565b6000809054906101000a900473ffffffffffffffffffffffffffffffffffffffff1673ffffffffffffffffffffffffffffffffffffffff163373ffffffffffffffffffffffffffffffffffffffff16141515610e6e57600080fd5b60006012819055506000601360016101000a81548160ff021916908360ff1602179055506000601360026101000a81548173ffffffffffffffffffffffffffffffffffffffff021916908373ffffffffffffffffffffffffffffffffffffffff1602179055506000601560006101000a81548160ff021916908360ff160217905550600760009054906101000a900463ffffffff1663ffffffff168f51141515610f23578e5160128190555060019d50611b90565b6009601281905550610f368f600061326a565b7c010000000000000000000000000000000000000000000000000000000090049c50610f638f600461326a565b7c010000000000000000000000000000000000000000000000000000000090049b50610f928f6004800161335e565b9a50610fa48f6020600480010161335e565b9950610fb88f602080600480010101613437565b7f010000000000000000000000000000000000000000000000000000000000000090049850610ff28f60016020806004800101010161335e565b97506110098f60216020806004800101010161335e565b96508c63ffffffff16955060016002540186141515611047576005601360006101000a81548160ff021916908360ff16021790555060019d50611b90565b6009601360006101000a81548160ff021916908360ff16021790555060006002541415156112c55760056000600254815260200190815260200160002094506040805190810160405280601a81526020017f19457468657265756d205369676e6564204d6573736167653a0a0000000000008152506041602080600480010101016001028660000160009054906101000a900463ffffffff168760000160049054906101000a900463ffffffff16886001015489600201548a60000160089054906101000a900460ff168b600301548c60040154604051808a805190602001908083835b602083101515611150578051825260208201915060208101905060208303925061112b565b6001836020036101000a03801982511681845116808217855250505050505090500189600019166000191681526020018863ffffffff1663ffffffff167c01000000000000000000000000000000000000000000000000000000000281526004018763ffffffff1663ffffffff167c0100000000000000000000000000000000000000000000000000000000028152600401866000191660001916815260200185600019166000191681526020018460ff1660ff167f0100000000000000000000000000000000000000000000000000000000000000028152600101836000191660001916815260200182600019166000191681526020019950505050505050505050604051809103902093508a6000191684600019161415156112a857604160208060048001010101601360016101000a81548160ff021916908360ff16021790555083600a816000191690555060019d50611b90565b6009601360016101000a81548160ff021916908360ff1602179055505b6040805190810160405280601a81526020017f19457468657265756d205369676e6564204d6573736167653a0a0000000000008152506020806004800101016001028e8e8e8e6040518087805190602001908083835b602083101515611340578051825260208201915060208101905060208303925061131b565b6001836020036101000a03801982511681845116808217855250505050505090500186600019166000191681526020018563ffffffff1663ffffffff167c01000000000000000000000000000000000000000000000000000000000281526004018463ffffffff1663ffffffff167c01000000000000000000000000000000000000000000000000000000000281526004018360001916600019168152602001826000191660001916815260200196505050505050506040518091039020925082601681600019169055506040805190810160405280601a81526020017f19457468657265756d205369676e6564204d6573736167653a0a0000000000008152506040518082805190602001908083835b6020831015156114765780518252602082019150602081019050602083039250611451565b6001836020036101000a0380198251168184511680821785525050505050509050019150506040518091039020601781600019169055506040805190810160405280601a81526020017f19457468657265756d205369676e6564204d6573736167653a0a0000000000008152506020806004800101016001026040518083805190602001908083835b60208310151561152457805182526020820191506020810190506020830392506114ff565b6001836020036101000a0380198251168184511680821785525050505050509050018260001916600019168152602001925050506040518091039020601881600019169055506040805190810160405280601a81526020017f19457468657265756d205369676e6564204d6573736167653a0a0000000000008152506020806004800101016001028e6040518084805190602001908083835b6020831015156115e257805182526020820191506020810190506020830392506115bd565b6001836020036101000a03801982511681845116808217855250505050505090500183600019166000191681526020018263ffffffff1663ffffffff167c010000000000000000000000000000000000000000000000000000000002815260040193505050506040518091039020601981600019169055506040805190810160405280601a81526020017f19457468657265756d205369676e6564204d6573736167653a0a0000000000008152506020806004800101016001028e8e6040518085805190602001908083835b6020831015156116d357805182526020820191506020810190506020830392506116ae565b6001836020036101000a03801982511681845116808217855250505050505090500184600019166000191681526020018363ffffffff1663ffffffff167c01000000000000000000000000000000000000000000000000000000000281526004018263ffffffff1663ffffffff167c01000000000000000000000000000000000000000000000000000000000281526004019450505050506040518091039020601a81600019169055506040805190810160405280601a81526020017f19457468657265756d205369676e6564204d6573736167653a0a0000000000008152506020806004800101016001028e8e8e6040518086805190602001908083835b6020831015156117f757805182526020820191506020810190506020830392506117d2565b6001836020036101000a03801982511681845116808217855250505050505090500185600019166000191681526020018463ffffffff1663ffffffff167c01000000000000000000000000000000000000000000000000000000000281526004018363ffffffff1663ffffffff167c01000000000000000000000000000000000000000000000000000000000281526004018260001916600019168152602001955050505050506040518091039020601b8160001916905550601b8960ff1610156118c357601b890198505b6001838a8a8a604051600081526020016040526000604051602001526040518085600019166000191681526020018460ff1660ff16815260200183600019166000191681526020018260001916600019168152602001945050505050602060405160208103908084039060008661646e5a03f1151561194157600080fd5b50506020604051035191506000809054906101000a900473ffffffffffffffffffffffffffffffffffffffff1673ffffffffffffffffffffffffffffffffffffffff168273ffffffffffffffffffffffffffffffffffffffff161415156119f75781601360026101000a81548173ffffffffffffffffffffffffffffffffffffffff021916908373ffffffffffffffffffffffffffffffffffffffff160217905550826014816000191690555060019d50611b90565b6009601560006101000a81548160ff021916908360ff16021790555060e0604051908101604052808e63ffffffff1681526020018d63ffffffff1681526020018a60ff1681526020018c6000191681526020018b60001916815260200189600019168152602001886000191681525090506001600254016002819055508060056000600254815260200190815260200160002060008201518160000160006101000a81548163ffffffff021916908363ffffffff16021790555060208201518160000160046101000a81548163ffffffff021916908363ffffffff16021790555060408201518160000160086101000a81548160ff021916908360ff160217905550606082015181600101906000191690556080820151816002019060001916905560a0820151816003019060001916905560c0820151816004019060001916905590505082600019168d63ffffffff168373ffffffffffffffffffffffffffffffffffffffff167fe38502f63d2cce428e6986acac6919b21e21caeefff626ecea9eae66739faed460405160405180910390a460019d505b50505050505050505050505050919050565b60185481565b60105481565b60025481565b611bbc613565565b600860008373ffffffffffffffffffffffffffffffffffffffff1673ffffffffffffffffffffffffffffffffffffffff168152602001908152602001600020805480602002602001604051908101604052809291908181526020018280548015611c4557602002820191906000526020600020905b815481526020019060010190808311611c31575b50505050509050919050565b60115481565b60035481565b60095481565b60008060009054906101000a900473ffffffffffffffffffffffffffffffffffffffff1673ffffffffffffffffffffffffffffffffffffffff163373ffffffffffffffffffffffffffffffffffffffff16141515611cc057600080fd5b6001905095945050505050565b6000809054906101000a900473ffffffffffffffffffffffffffffffffffffffff1673ffffffffffffffffffffffffffffffffffffffff163373ffffffffffffffffffffffffffffffffffffffff16141515611d2857600080fd5b6000809054906101000a900473ffffffffffffffffffffffffffffffffffffffff1673ffffffffffffffffffffffffffffffffffffffff16ff5b6000806000600160009054906101000a900473ffffffffffffffffffffffffffffffffffffffff1673ffffffffffffffffffffffffffffffffffffffff163373ffffffffffffffffffffffffffffffffffffffff1614158015611e1257506000809054906101000a900473ffffffffffffffffffffffffffffffffffffffff1673ffffffffffffffffffffffffffffffffffffffff163373ffffffffffffffffffffffffffffffffffffffff1614155b15611e1c57600080fd5b60035443141515611e305760006004819055505b600454602001439060020a02915060066000838152602001908152602001600020905060008160020154141515611e6657600080fd5b60006005811115611e7357fe5b8160000160149054906101000a900460ff166005811115611e9057fe5b141515611e9c57600080fd5b818160020181905550848160000160006101000a81548173ffffffffffffffffffffffffffffffffffffffff021916908373ffffffffffffffffffffffffffffffffffffffff16021790555083816001018190555060018160000160146101000a81548160ff02191690836005811115611f1257fe5b0217905550600160045401600481905550600860008673ffffffffffffffffffffffffffffffffffffffff1673ffffffffffffffffffffffffffffffffffffffff1681526020019081526020016000208054806001018281611f749190613579565b91600052602060002090016000849091909150555081848673ffffffffffffffffffffffffffffffffffffffff167fad40ae5dc69974ba932d08b0a608e89109412d41d04850f5196f144875ae266060405160405180910390a4819250505092915050565b6000809054906101000a900473ffffffffffffffffffffffffffffffffffffffff1673ffffffffffffffffffffffffffffffffffffffff163373ffffffffffffffffffffffffffffffffffffffff1614151561203457600080fd5b806000806101000a81548173ffffffffffffffffffffffffffffffffffffffff021916908373ffffffffffffffffffffffffffffffffffffffff16021790555050565b60056020528060005260406000206000915090508060000160009054906101000a900463ffffffff16908060000160049054906101000a900463ffffffff16908060000160089054906101000a900460ff16908060010154908060020154908060030154908060040154905087565b60125481565b60008060009054906101000a900473ffffffffffffffffffffffffffffffffffffffff1673ffffffffffffffffffffffffffffffffffffffff163373ffffffffffffffffffffffffffffffffffffffff1614151561214957600080fd5b8163ffffffff1660028190555060019050919050565b6000809054906101000a900473ffffffffffffffffffffffffffffffffffffffff1673ffffffffffffffffffffffffffffffffffffffff163373ffffffffffffffffffffffffffffffffffffffff161415156121ba57600080fd5b80600160006101000a81548173ffffffffffffffffffffffffffffffffffffffff021916908373ffffffffffffffffffffffffffffffffffffffff16021790555050565b600b5481565b60165481565b600760009054906101000a900463ffffffff1681565b601560009054906101000a900460ff1681565b60066020528060005260406000206000915090508060000160009054906101000a900473ffffffffffffffffffffffffffffffffffffffff16908060000160149054906101000a900460ff16908060010154908060020154908060030154905085565b600a5481565b600d5481565b601360019054906101000a900460ff1681565b60145481565b6000809054906101000a900473ffffffffffffffffffffffffffffffffffffffff1681565b60175481565b600160009054906101000a900473ffffffffffffffffffffffffffffffffffffffff1681565b601360009054906101000a900460ff1681565b60416020806004800101010181565b601360029054906101000a900473ffffffffffffffffffffffffffffffffffffffff1681565b60008060009054906101000a900473ffffffffffffffffffffffffffffffffffffffff1673ffffffffffffffffffffffffffffffffffffffff163373ffffffffffffffffffffffffffffffffffffffff161415156123b157600080fd5b6001905090565b600f5481565b60195481565b601a5481565b60045481565b50505050505050565b60008060008060008060008060008060008060006123f561350c565b6000809054906101000a900473ffffffffffffffffffffffffffffffffffffffff1673ffffffffffffffffffffffffffffffffffffffff163373ffffffffffffffffffffffffffffffffffffffff1614151561245057600080fd5b60006012819055506000601360016101000a81548160ff021916908360ff1602179055506000601360026101000a81548173ffffffffffffffffffffffffffffffffffffffff021916908373ffffffffffffffffffffffffffffffffffffffff1602179055506000601560006101000a81548160ff021916908360ff160217905550600760009054906101000a900463ffffffff1663ffffffff168f51141515612505578e5160128190555060019d50613166565b60096012819055506125188f600061326a565b7c010000000000000000000000000000000000000000000000000000000090049c506125458f600461326a565b7c010000000000000000000000000000000000000000000000000000000090049b506125748f6004800161335e565b9a506125868f6020600480010161335e565b995061259a8f602080600480010101613437565b7f0100000000000000000000000000000000000000000000000000000000000000900498506125d48f60016020806004800101010161335e565b97506125eb8f60216020806004800101010161335e565b96508c63ffffffff16955060016002540186141515612625576005601360006101000a81548160ff021916908360ff160217905550600080fd5b6009601360006101000a81548160ff021916908360ff160217905550600060025414151561289f5760056000600254815260200190815260200160002094506040805190810160405280601a81526020017f19457468657265756d205369676e6564204d6573736167653a0a0000000000008152506041602080600480010101016001028660000160009054906101000a900463ffffffff168760000160049054906101000a900463ffffffff16886001015489600201548a60000160089054906101000a900460ff168b600301548c60040154604051808a805190602001908083835b60208310151561272e5780518252602082019150602081019050602083039250612709565b6001836020036101000a03801982511681845116808217855250505050505090500189600019166000191681526020018863ffffffff1663ffffffff167c01000000000000000000000000000000000000000000000000000000000281526004018763ffffffff1663ffffffff167c0100000000000000000000000000000000000000000000000000000000028152600401866000191660001916815260200185600019166000191681526020018460ff1660ff167f0100000000000000000000000000000000000000000000000000000000000000028152600101836000191660001916815260200182600019166000191681526020019950505050505050505050604051809103902093508a60001916846000191614151561288257604160208060048001010101601360016101000a81548160ff021916908360ff16021790555083600a8160001916905550600080fd5b6009601360016101000a81548160ff021916908360ff1602179055505b6040805190810160405280601a81526020017f19457468657265756d205369676e6564204d6573736167653a0a0000000000008152506020806004800101016001028e8e8e8e6040518087805190602001908083835b60208310151561291a57805182526020820191506020810190506020830392506128f5565b6001836020036101000a03801982511681845116808217855250505050505090500186600019166000191681526020018563ffffffff1663ffffffff167c01000000000000000000000000000000000000000000000000000000000281526004018463ffffffff1663ffffffff167c01000000000000000000000000000000000000000000000000000000000281526004018360001916600019168152602001826000191660001916815260200196505050505050506040518091039020925082601681600019169055506040805190810160405280601a81526020017f19457468657265756d205369676e6564204d6573736167653a0a0000000000008152506040518082805190602001908083835b602083101515612a505780518252602082019150602081019050602083039250612a2b565b6001836020036101000a0380198251168184511680821785525050505050509050019150506040518091039020601781600019169055506040805190810160405280601a81526020017f19457468657265756d205369676e6564204d6573736167653a0a0000000000008152506020806004800101016001026040518083805190602001908083835b602083101515612afe5780518252602082019150602081019050602083039250612ad9565b6001836020036101000a0380198251168184511680821785525050505050509050018260001916600019168152602001925050506040518091039020601881600019169055506040805190810160405280601a81526020017f19457468657265756d205369676e6564204d6573736167653a0a0000000000008152506020806004800101016001028e6040518084805190602001908083835b602083101515612bbc5780518252602082019150602081019050602083039250612b97565b6001836020036101000a03801982511681845116808217855250505050505090500183600019166000191681526020018263ffffffff1663ffffffff167c010000000000000000000000000000000000000000000000000000000002815260040193505050506040518091039020601981600019169055506040805190810160405280601a81526020017f19457468657265756d205369676e6564204d6573736167653a0a0000000000008152506020806004800101016001028e8e6040518085805190602001908083835b602083101515612cad5780518252602082019150602081019050602083039250612c88565b6001836020036101000a03801982511681845116808217855250505050505090500184600019166000191681526020018363ffffffff1663ffffffff167c01000000000000000000000000000000000000000000000000000000000281526004018263ffffffff1663ffffffff167c01000000000000000000000000000000000000000000000000000000000281526004019450505050506040518091039020601a81600019169055506040805190810160405280601a81526020017f19457468657265756d205369676e6564204d6573736167653a0a0000000000008152506020806004800101016001028e8e8e6040518086805190602001908083835b602083101515612dd15780518252602082019150602081019050602083039250612dac565b6001836020036101000a03801982511681845116808217855250505050505090500185600019166000191681526020018463ffffffff1663ffffffff167c01000000000000000000000000000000000000000000000000000000000281526004018363ffffffff1663ffffffff167c01000000000000000000000000000000000000000000000000000000000281526004018260001916600019168152602001955050505050506040518091039020601b8160001916905550601b8960ff161015612e9d57601b890198505b6001838a8a8a604051600081526020016040526000604051602001526040518085600019166000191681526020018460ff1660ff16815260200183600019166000191681526020018260001916600019168152602001945050505050602060405160208103908084039060008661646e5a03f11515612f1b57600080fd5b50506020604051035191506000809054906101000a900473ffffffffffffffffffffffffffffffffffffffff1673ffffffffffffffffffffffffffffffffffffffff168273ffffffffffffffffffffffffffffffffffffffff16141515612fcd5781601360026101000a81548173ffffffffffffffffffffffffffffffffffffffff021916908373ffffffffffffffffffffffffffffffffffffffff1602179055508260148160001916905550600080fd5b6009601560006101000a81548160ff021916908360ff16021790555060e0604051908101604052808e63ffffffff1681526020018d63ffffffff1681526020018a60ff1681526020018c6000191681526020018b60001916815260200189600019168152602001886000191681525090506001600254016002819055508060056000600254815260200190815260200160002060008201518160000160006101000a81548163ffffffff021916908363ffffffff16021790555060208201518160000160046101000a81548163ffffffff021916908363ffffffff16021790555060408201518160000160086101000a81548160ff021916908360ff160217905550606082015181600101906000191690556080820151816002019060001916905560a0820151816003019060001916905560c0820151816004019060001916905590505082600019168d63ffffffff168373ffffffffffffffffffffffffffffffffffffffff167fe38502f63d2cce428e6986acac6919b21e21caeefff626ecea9eae66739faed460405160405180910390a460019d505b50505050505050505050505050919050565b600c5481565b600e5481565b6000806000809054906101000a900473ffffffffffffffffffffffffffffffffffffffff1673ffffffffffffffffffffffffffffffffffffffff163373ffffffffffffffffffffffffffffffffffffffff161415156131e257600080fd5b6006600085815260200190815260200160002090506000600581111561320457fe5b8160000160149054906101000a900460ff16600581111561322157fe5b141561322c57600080fd5b60058360ff16141561325f5760058160000160146101000a81548160ff0219169083600581111561325957fe5b02179055505b600191505092915050565b600080600090505b600481101561335757600881028484830181518110151561328f57fe5b9060200101517f010000000000000000000000000000000000000000000000000000000000000090047f0100000000000000000000000000000000000000000000000000000000000000027effffffffffffffffffffffffffffffffffffffffffffffffffffffffffffff191663ff0000007c010000000000000000000000000000000000000000000000000000000002167bffffffffffffffffffffffffffffffffffffffffffffffffffffffff19169060020a9004821891508080600101915050613272565b5092915050565b600080600090505b602081101561343057600881028484830181518110151561338357fe5b9060200101517f010000000000000000000000000000000000000000000000000000000000000090047f0100000000000000000000000000000000000000000000000000000000000000027effffffffffffffffffffffffffffffffffffffffffffffffffffffffffffff19167fff0000000000000000000000000000000000000000000000000000000000000060010216600019169060020a9004821891508080600101915050613366565b5092915050565b600080600090505b600181101561350557600881028484830181518110151561345c57fe5b9060200101517f010000000000000000000000000000000000000000000000000000000000000090047f01000000000000000000000000000000000000000000000000000000000000000260ff7f010000000000000000000000000000000000000000000000000000000000000002167effffffffffffffffffffffffffffffffffffffffffffffffffffffffffffff19169060020a900482189150808060010191505061343f565b5092915050565b60e060405190810160405280600063ffffffff168152602001600063ffffffff168152602001600060ff168152602001600080191681526020016000801916815260200160008019168152602001600080191681525090565b602060405190810160405280600081525090565b8154818355818115116135a05781836000526020600020918201910161359f91906135a5565b5b505050565b6135c791905b808211156135c35760008160009055506001016135ab565b5090565b905600a165627a7a7230582037f44a9ed7d2bc73adde1bac94a3901cff699f2fa47ff1eec3bca1f0b8ac443f0029",
  "source": "pragma solidity ^0.4.18;\n\nlibrary Bytes {\n  function concat(bytes memory self, bytes memory bts) internal view returns (bytes memory newBts) {\n    uint totLen = self.length + bts.length;\n    if (totLen == 0)\n      return;\n    newBts = new bytes(totLen);\n    assembly {\n        let i := 0\n        let inOffset := 0\n        let outOffset := add(newBts, 0x20)\n        let words := 0\n        let tag := tag_bts\n      tag_self:\n        inOffset := add(self, 0x20)\n        words := div(add(mload(self), 31), 32)\n        jump(tag_loop)\n      tag_bts:\n        i := 0\n        inOffset := add(bts, 0x20)\n        outOffset := add(newBts, add(0x20, mload(self)))\n        words := div(add(mload(bts), 31), 32)\n        tag := tag_end\n      tag_loop:\n        jumpi(tag, gt(i, words))\n        {\n          let offset := mul(i, 32)\n          outOffset := add(outOffset, offset)\n          mstore(outOffset, mload(add(inOffset, offset)))\n          i := add(i, 1)\n        }\n        jump(tag_loop)\n      tag_end:\n        mstore(add(newBts, add(totLen, 0x20)), 0)\n    }\n  }\n\n  function uintToBytes(uint self) internal pure returns (bytes memory s) {\n    uint maxlength = 100;\n    bytes memory reversed = new bytes(maxlength);\n    uint i = 0;\n    while (self != 0) {\n      uint remainder = self % 10;\n      self = self / 10;\n      reversed[i++] = byte(48 + remainder);\n    }\n    s = new bytes(i);\n    for (uint j = 0; j < i; j++) {\n      s[j] = reversed[i - 1 - j];\n    }\n    return s;\n  }\n}\n\ncontract PlasmaParent {\n\n  // The owner\n  address public ownerAddress;\n\n  // TokenParent Contract Address\n  address public tokenAddress;\n\n  // Modifiers: only owner\n  modifier onlyOwner {\n    if (msg.sender != ownerAddress) revert();\n    _;\n  }\n  // Modifiers: only token\n  modifier onlyToken {\n    if (msg.sender != tokenAddress) revert();\n    _;\n  }\n\n  // Modifiers: only token\n  modifier onlyTokenOrOwner {\n    if (msg.sender != tokenAddress && msg.sender != ownerAddress) revert();\n    _;\n  }\n\n  // Constructor\n  function PlasmaParent() public {\n    ownerAddress = msg.sender;\n  }\n\n  // set token address\n  function setTokenAddrss(address _address) public onlyOwner {\n    tokenAddress = _address;\n  }\n\n  // change ownerheaders\n  function transferOwner(address _address) public onlyOwner {\n    ownerAddress = _address;\n  }\n\n  // kill contract itself\n  function kill() onlyOwner public {\n      selfdestruct(ownerAddress);\n  }\n\n  // fallback for ether\n  function() payable public {\n    revert();\n  }\n\n  //\n  // for ( kind of like ) Plasma\n  //\n\n  // library\n  using Bytes for *;\n\n  // variables\n  uint256 public lastBlockNumber = 0;\n  uint256 public lastEthBlockNumber = block.number;\n  uint256 public depositCounterInBlock = 0;\n\n  // A list of Plasma blocks\n  struct Header {\n      uint32 blockNumber;\n      uint32 numTransactions;\n      uint8 v;\n      bytes32 previousBlockHash;\n      bytes32 merkleRootHash;\n      bytes32 r;\n      bytes32 s;\n  }\n  mapping (uint256 => Header) public headers;\n\n  mapping (uint256 => DepositRecord) public depositRecords;\n  uint32 public blockHeaderLength = 137;\n\n  uint256 constant SignatureLength = 65;\n  uint256 constant BlockNumberLength = 4;\n  uint256 constant TxNumberLength = 4;\n  /* uint256 constant TxTypeLength = 1; */\n  /* uint256 constant TxOutputNumberLength = 1; */\n  uint256 constant PreviousHashLength = 32;\n  uint256 constant MerkleRootHashLength = 32;\n  /* uint256 constant TxAmountLength = 32; */\n  bytes constant PersonalMessagePrefixBytes = \"\\x19Ethereum Signed Message:\\n\";\n  uint256 constant public PreviousBlockPersonalHashLength = BlockNumberLength +\n                                                TxNumberLength +\n                                                PreviousHashLength +\n                                                MerkleRootHashLength +\n                                                SignatureLength;\n  uint256 constant NewBlockPersonalHashLength = BlockNumberLength +\n                                                      TxNumberLength +\n                                                      PreviousHashLength +\n                                                      MerkleRootHashLength;\n\n  mapping (address => uint256[]) userDepositRecords;\n\n  enum DepositStatus {\n      NoRecord,\n      Deposited,\n      WithdrawStarted,\n      WithdrawChallenged,\n      WithdrawCompleted,\n      DepositConfirmed\n  }\n\n  struct DepositRecord {\n    address from;\n    DepositStatus status;\n    uint256 amount;\n    uint256 index;\n    uint256 withdrawStartedTime;\n  }\n\n  //\n  // convenient helper functions\n  //\n  function extract32(bytes data, uint pos) pure internal returns (bytes32 result) {\n    for (uint256 i = 0; i < 32; i++) {\n      result ^= (bytes32(0xff00000000000000000000000000000000000000000000000000000000000000)&data[i+pos])>>(i*8);\n    }\n  }\n\n  function extract20(bytes data, uint pos) pure internal returns (bytes20 result) {\n    for (uint256 i = 0; i < 20; i++) {\n      result ^= (bytes20(0xff00000000000000000000000000000000000000)&data[i+pos])>>(i*8);\n    }\n  }\n\n  function extract4(bytes data, uint pos) pure internal returns (bytes4 result) {\n    for (uint256 i = 0; i < 4; i++) {\n      result ^= (bytes4(0xff000000)&data[i+pos])>>(i*8);\n    }\n  }\n\n  function extract2(bytes data, uint pos) pure internal returns (bytes2  result) {\n    for (uint256 i = 0; i < 2; i++) {\n      result ^= (bytes2(0xff00)&data[i+pos])>>(i*8);\n    }\n  }\n\n  function extract1(bytes data, uint pos) pure internal returns (bytes1  result) {\n    for (uint256 i = 0; i < 1; i++) {\n      result ^= (bytes1(0xff)&data[i+pos])>>(i*8);\n    }\n  }\n\n  //\n  // events\n  //\n\n  // when block header submitted\n  event HeaderSubmittedEvent(address indexed _signer, uint32 indexed _blockNumber, bytes32 indexed _blockHash);\n  // when someone deposit\n  event DepositEvent(address indexed _from, uint256 indexed _amount, uint256 indexed _depositIndex);\n\n  // debug fucntion\n  function updateLastBlockNumber(uint32 _blockNumber) public onlyOwner returns (bool success) {\n    lastBlockNumber = uint256(uint32(_blockNumber));\n    return true;\n  }\n\n  // submit plasma block header\n\n  function submitBlock(bytes header) public onlyOwner returns (bool success) {\n      /* require(operators[msg.sender]); */\n      /* require(header.length == blockHeaderLength); */\n\n      submitBlock3_1 = 0;\n      submitBlock3_3 = 0;\n      submitBlock3_4 = 0;\n      submitBlock3_6 = 0;\n\n      if (header.length != blockHeaderLength) {\n        submitBlock3_1 = header.length;\n        return true;\n      }\n      submitBlock3_1 = 9;\n\n      uint32 blockNumber = uint32(extract4(header, 0));\n      uint32 numTransactions = uint32(extract4(header, BlockNumberLength));\n      bytes32 previousBlockHash = extract32(header, BlockNumberLength + TxNumberLength);\n      bytes32 merkleRootHash = extract32(header, BlockNumberLength + TxNumberLength + PreviousHashLength);\n      uint8 v = uint8(extract1(header, BlockNumberLength + TxNumberLength + PreviousHashLength + MerkleRootHashLength));\n      bytes32 r = extract32(header, BlockNumberLength + TxNumberLength + PreviousHashLength + MerkleRootHashLength + 1);\n      bytes32 s = extract32(header, BlockNumberLength + TxNumberLength + PreviousHashLength + MerkleRootHashLength + 33);\n      uint256 newBlockNumber = uint256(uint32(blockNumber));\n\n      /* require(newBlockNumber == lastBlockNumber+1); */\n      if (newBlockNumber != lastBlockNumber+1) {\n        submitBlock3_2 = 5;\n        revert();\n      }\n      submitBlock3_2 = 9;\n\n      if (lastBlockNumber != 0) {\n          Header storage previousHeader = headers[lastBlockNumber];\n          bytes32 previousHash = keccak256(PersonalMessagePrefixBytes, bytes32(PreviousBlockPersonalHashLength), previousHeader.blockNumber, previousHeader.numTransactions, previousHeader.previousBlockHash, previousHeader.merkleRootHash, previousHeader.v, previousHeader.r, previousHeader.s);\n          /* bytes32 previousHash = keccak256(PersonalMessagePrefixBytes, PreviousBlockPersonalHashLength, previousHeader.blockNumber, previousHeader.numTransactions, previousHeader.previousBlockHash, previousHeader.merkleRootHash,previousHeader.v, previousHeader.r,previousHeader.s); */\n\n          // require(previousHash == previousBlockHash);\n          if (previousHash != previousBlockHash) {\n            submitBlock3_3 = uint8(PreviousBlockPersonalHashLength);\n            previousHash1 = previousHash;\n            revert();\n          }\n          submitBlock3_3 = 9;\n      }\n\n      bytes32 newBlockHash = keccak256(PersonalMessagePrefixBytes, bytes32(NewBlockPersonalHashLength), blockNumber, numTransactions, previousBlockHash, merkleRootHash);\n      /* bytes32 newBlockHash = keccak256(blockNumber, numTransactions, previousBlockHash, merkleRootHash); */\n      /* bytes32 newBlockHash = keccak256(merkleRootHash); */\n\n      newBlockHash0 = newBlockHash;\n\n      newBlockHash1 = keccak256(PersonalMessagePrefixBytes);\n      newBlockHash2 = keccak256(PersonalMessagePrefixBytes, bytes32(NewBlockPersonalHashLength));\n      newBlockHash3 = keccak256(PersonalMessagePrefixBytes, bytes32(NewBlockPersonalHashLength), blockNumber);\n      newBlockHash4 = keccak256(PersonalMessagePrefixBytes, bytes32(NewBlockPersonalHashLength), blockNumber, numTransactions);\n      newBlockHash5 = keccak256(PersonalMessagePrefixBytes, bytes32(NewBlockPersonalHashLength), blockNumber, numTransactions, previousBlockHash);\n\n      if (v < 27) {\n          v = v+27;\n      }\n      address signer = ecrecover(newBlockHash, v, r, s);\n      /* require(operators[signer]); */\n      // if( signer != ownerAddress ) revert();\n      if (signer != ownerAddress ) {\n        submitBlock3_4 = signer;\n        submitBlock3_5 = newBlockHash;\n        revert();\n      }\n\n      submitBlock3_6 = 9;\n\n      Header memory newHeader = Header({\n          blockNumber: blockNumber,\n          numTransactions: numTransactions,\n          previousBlockHash: previousBlockHash,\n          merkleRootHash: merkleRootHash,\n          v: v,\n          r: r,\n          s: s\n      });\n      lastBlockNumber = lastBlockNumber+1;\n      headers[lastBlockNumber] = newHeader;\n      HeaderSubmittedEvent(signer, blockNumber, newBlockHash);\n      return true;\n  }\n\n\n  bytes32 public previousHash0;\n  bytes32 public previousHash1;\n  bytes32 public previousHash2;\n  bytes32 public previousHash3;\n  bytes32 public previousHash4;\n  bytes32 public previousHash5;\n  bytes32 public previousHash6;\n  bytes32 public previousHash7;\n  bytes32 public previousHash8;\n\n  uint256 public submitBlock3_1;\n  uint8 public submitBlock3_2;\n  uint8 public submitBlock3_3;\n  address public submitBlock3_4;\n  bytes32 public submitBlock3_5;\n  uint8 public submitBlock3_6;\n\n  bytes32 public newBlockHash0;\n  bytes32 public newBlockHash1;\n  bytes32 public newBlockHash2;\n  bytes32 public newBlockHash3;\n  bytes32 public newBlockHash4;\n  bytes32 public newBlockHash5;\n\n  function submitBlock3(bytes header) public onlyOwner returns (bool success) {\n      /* require(operators[msg.sender]); */\n      /* require(header.length == blockHeaderLength); */\n\n      submitBlock3_1 = 0;\n      submitBlock3_3 = 0;\n      submitBlock3_4 = 0;\n      submitBlock3_6 = 0;\n\n      if (header.length != blockHeaderLength) {\n        submitBlock3_1 = header.length;\n        return true;\n      }\n      submitBlock3_1 = 9;\n\n      uint32 blockNumber = uint32(extract4(header, 0));\n      uint32 numTransactions = uint32(extract4(header, BlockNumberLength));\n      bytes32 previousBlockHash = extract32(header, BlockNumberLength + TxNumberLength);\n      bytes32 merkleRootHash = extract32(header, BlockNumberLength + TxNumberLength + PreviousHashLength);\n      uint8 v = uint8(extract1(header, BlockNumberLength + TxNumberLength + PreviousHashLength + MerkleRootHashLength));\n      bytes32 r = extract32(header, BlockNumberLength + TxNumberLength + PreviousHashLength + MerkleRootHashLength + 1);\n      bytes32 s = extract32(header, BlockNumberLength + TxNumberLength + PreviousHashLength + MerkleRootHashLength + 33);\n      uint256 newBlockNumber = uint256(uint32(blockNumber));\n\n      /* require(newBlockNumber == lastBlockNumber+1); */\n      if (newBlockNumber != lastBlockNumber+1) {\n        submitBlock3_2 = 5;\n        return true;\n      }\n      submitBlock3_2 = 9;\n\n      if (lastBlockNumber != 0) {\n          Header storage previousHeader = headers[lastBlockNumber];\n          bytes32 previousHash = keccak256(PersonalMessagePrefixBytes, bytes32(PreviousBlockPersonalHashLength), previousHeader.blockNumber, previousHeader.numTransactions, previousHeader.previousBlockHash, previousHeader.merkleRootHash, previousHeader.v, previousHeader.r, previousHeader.s);\n          /* bytes32 previousHash = keccak256(PersonalMessagePrefixBytes, PreviousBlockPersonalHashLength, previousHeader.blockNumber, previousHeader.numTransactions, previousHeader.previousBlockHash, previousHeader.merkleRootHash,previousHeader.v, previousHeader.r,previousHeader.s); */\n\n          // require(previousHash == previousBlockHash);\n          if (previousHash != previousBlockHash) {\n            submitBlock3_3 = uint8(PreviousBlockPersonalHashLength);\n            previousHash1 = previousHash;\n            return true;\n          }\n          submitBlock3_3 = 9;\n      }\n\n      bytes32 newBlockHash = keccak256(PersonalMessagePrefixBytes, bytes32(NewBlockPersonalHashLength), blockNumber, numTransactions, previousBlockHash, merkleRootHash);\n      /* bytes32 newBlockHash = keccak256(blockNumber, numTransactions, previousBlockHash, merkleRootHash); */\n      /* bytes32 newBlockHash = keccak256(merkleRootHash); */\n\n      newBlockHash0 = newBlockHash;\n\n      newBlockHash1 = keccak256(PersonalMessagePrefixBytes);\n      newBlockHash2 = keccak256(PersonalMessagePrefixBytes, bytes32(NewBlockPersonalHashLength));\n      newBlockHash3 = keccak256(PersonalMessagePrefixBytes, bytes32(NewBlockPersonalHashLength), blockNumber);\n      newBlockHash4 = keccak256(PersonalMessagePrefixBytes, bytes32(NewBlockPersonalHashLength), blockNumber, numTransactions);\n      newBlockHash5 = keccak256(PersonalMessagePrefixBytes, bytes32(NewBlockPersonalHashLength), blockNumber, numTransactions, previousBlockHash);\n\n      if (v < 27) {\n          v = v+27;\n      }\n      address signer = ecrecover(newBlockHash, v, r, s);\n      /* require(operators[signer]); */\n      // if( signer != ownerAddress ) revert();\n      if (signer != ownerAddress ) {\n        submitBlock3_4 = signer;\n        submitBlock3_5 = newBlockHash;\n        return true;\n      }\n\n      submitBlock3_6 = 9;\n\n      Header memory newHeader = Header({\n          blockNumber: blockNumber,\n          numTransactions: numTransactions,\n          previousBlockHash: previousBlockHash,\n          merkleRootHash: merkleRootHash,\n          v: v,\n          r: r,\n          s: s\n      });\n      lastBlockNumber = lastBlockNumber+1;\n      headers[lastBlockNumber] = newHeader;\n      HeaderSubmittedEvent(signer, blockNumber, newBlockHash);\n      return true;\n  }\n\n\n  // function deposit(uint256 _amount) public returns (uint256 idx1, uint256 idx2, uint256 idx3) public onlyToken {\n  /* function deposit(address _address, uint256 _amount) public returns (uint256 idx1, uint256 idx2, uint256 idx3) { */\n  function deposit(address _address, uint256 _amount) public onlyTokenOrOwner returns (uint256 idx) {\n    // lastEthBlockNumber is not updatede at all...\n    // depositCounterInBlock may not be used yet...\n    if (block.number != lastEthBlockNumber) {\n        depositCounterInBlock = 0;\n    }\n\n    // seems to generate unique depositIndex\n    uint256 depositIndex = block.number << 32 + depositCounterInBlock;\n\n    // then create new DepositRecord object\n    DepositRecord storage record = depositRecords[depositIndex];\n    require(record.index == 0);\n    require(record.status == DepositStatus.NoRecord);\n\n    record.index = depositIndex;\n    record.from = _address;\n    record.amount = _amount;\n    record.status = DepositStatus.Deposited;\n    depositCounterInBlock = depositCounterInBlock + 1;\n    userDepositRecords[_address].push(depositIndex);\n\n    /* DepositEvent(msg.sender, msg.value, depositIndex); */\n    DepositEvent(_address, _amount, depositIndex);\n    return (depositIndex);\n  }\n\n  function updateDepositRecord(uint256 _depositIndex, uint8 _status) public onlyOwner returns (bool success) {\n    DepositRecord storage record = depositRecords[_depositIndex];\n    if (record.status == DepositStatus.NoRecord) revert();\n\n    if (_status == 5) {\n      record.status = DepositStatus.DepositConfirmed;\n    }\n\n\n    return true;\n  }\n\n  // helper function for debug\n  function depositRecordsForUser(address _user) public view returns (uint256[]) {\n      return userDepositRecords[_user];\n  }\n\n  // basic function\n  function startExit(\n    uint256 _plasmaBlockNum,\n    bytes _tx,\n    bytes _proof,\n    bytes confirmSig,\n    uint256 _depositIndex\n    ) public onlyOwner returns (bool success) {\n      // not yet implemented\n\n      return true;\n  }\n\n  function completeExit() public onlyOwner returns (bool success) {\n    return true;\n  }\n\n  // challenge\n  function challengeExit(\n    uint256 exitId,\n    uint256 plasmaBlockNum,\n    uint256 txindex,\n    uint256 oindex,\n    bytes tx,\n    bytes proof,\n    bytes confirmSig) public {\n      // not yet implemented\n  }\n}\n",
  "sourcePath": "/Users/kouohhashi/Desktop/eth_project/credit_hydra/smart_contracts/contracts/PlasmaParent.sol",
  "compiler": {
    "name": "solc",
    "version": "0.4.18+commit.9cf6e910.Emscripten.clang"
  },
  "schemaVersion": "1.0.1",
  "updatedAt": "2018-02-17T19:47:16.232Z"
}