{
  "contractName": "PlasmaChild",
  "abi": [
    {
      "constant": false,
      "inputs": [
        {
          "name": "_number",
          "type": "uint32"
        }
      ],
      "name": "setCurrentPlasmaBlockNumber",
      "outputs": [
        {
          "name": "success",
          "type": "bool"
        }
      ],
      "payable": false,
      "stateMutability": "nonpayable",
      "type": "function"
    },
    {
      "constant": true,
      "inputs": [
        {
          "name": "_user",
          "type": "address"
        }
      ],
      "name": "depositRecordsForUser",
      "outputs": [
        {
          "name": "",
          "type": "uint256[]"
        }
      ],
      "payable": false,
      "stateMutability": "view",
      "type": "function"
    },
    {
      "constant": true,
      "inputs": [
        {
          "name": "",
          "type": "uint32"
        },
        {
          "name": "",
          "type": "uint256"
        }
      ],
      "name": "plasmaTransactions",
      "outputs": [
        {
          "name": "",
          "type": "bytes"
        }
      ],
      "payable": false,
      "stateMutability": "view",
      "type": "function"
    },
    {
      "constant": true,
      "inputs": [
        {
          "name": "",
          "type": "uint32"
        }
      ],
      "name": "plasmaBlockHeaders",
      "outputs": [
        {
          "name": "blockNumber",
          "type": "uint32"
        },
        {
          "name": "numTransactions",
          "type": "uint32"
        },
        {
          "name": "previousBlockHash",
          "type": "bytes32"
        },
        {
          "name": "merkleRootHash",
          "type": "bytes32"
        },
        {
          "name": "v",
          "type": "uint8"
        },
        {
          "name": "r",
          "type": "bytes32"
        },
        {
          "name": "s",
          "type": "bytes32"
        }
      ],
      "payable": false,
      "stateMutability": "view",
      "type": "function"
    },
    {
      "constant": true,
      "inputs": [],
      "name": "lastEthBlockNumber",
      "outputs": [
        {
          "name": "",
          "type": "uint256"
        }
      ],
      "payable": false,
      "stateMutability": "view",
      "type": "function"
    },
    {
      "constant": true,
      "inputs": [],
      "name": "getLastBlockNumberandTXcount",
      "outputs": [
        {
          "name": "_bn",
          "type": "uint32"
        },
        {
          "name": "_numTxs",
          "type": "uint32"
        }
      ],
      "payable": false,
      "stateMutability": "view",
      "type": "function"
    },
    {
      "constant": false,
      "inputs": [],
      "name": "kill",
      "outputs": [],
      "payable": false,
      "stateMutability": "nonpayable",
      "type": "function"
    },
    {
      "constant": false,
      "inputs": [
        {
          "name": "_address",
          "type": "address"
        },
        {
          "name": "_amount",
          "type": "uint256"
        }
      ],
      "name": "deposit",
      "outputs": [
        {
          "name": "idx",
          "type": "uint256"
        }
      ],
      "payable": false,
      "stateMutability": "nonpayable",
      "type": "function"
    },
    {
      "constant": false,
      "inputs": [
        {
          "name": "_address",
          "type": "address"
        }
      ],
      "name": "transferOwner",
      "outputs": [],
      "payable": false,
      "stateMutability": "nonpayable",
      "type": "function"
    },
    {
      "constant": true,
      "inputs": [
        {
          "name": "",
          "type": "uint256"
        }
      ],
      "name": "depositRecords",
      "outputs": [
        {
          "name": "from",
          "type": "address"
        },
        {
          "name": "status",
          "type": "uint8"
        },
        {
          "name": "amount",
          "type": "uint256"
        },
        {
          "name": "index",
          "type": "uint256"
        },
        {
          "name": "withdrawStartedTime",
          "type": "uint256"
        }
      ],
      "payable": false,
      "stateMutability": "view",
      "type": "function"
    },
    {
      "constant": true,
      "inputs": [],
      "name": "ownerAddress",
      "outputs": [
        {
          "name": "",
          "type": "address"
        }
      ],
      "payable": false,
      "stateMutability": "view",
      "type": "function"
    },
    {
      "constant": false,
      "inputs": [],
      "name": "createNextBlock",
      "outputs": [
        {
          "name": "success",
          "type": "bool"
        }
      ],
      "payable": false,
      "stateMutability": "nonpayable",
      "type": "function"
    },
    {
      "constant": false,
      "inputs": [
        {
          "name": "_bn",
          "type": "uint32"
        },
        {
          "name": "_txCount",
          "type": "uint32"
        }
      ],
      "name": "updateNumTransactions",
      "outputs": [
        {
          "name": "success",
          "type": "bool"
        }
      ],
      "payable": false,
      "stateMutability": "nonpayable",
      "type": "function"
    },
    {
      "constant": true,
      "inputs": [],
      "name": "currentPlasmaBlockNumber",
      "outputs": [
        {
          "name": "",
          "type": "uint32"
        }
      ],
      "payable": false,
      "stateMutability": "view",
      "type": "function"
    },
    {
      "constant": false,
      "inputs": [
        {
          "name": "_bn",
          "type": "uint32"
        },
        {
          "name": "_txCount",
          "type": "uint32"
        },
        {
          "name": "_parentHash",
          "type": "bytes32"
        },
        {
          "name": "_merkleRootHash",
          "type": "bytes32"
        },
        {
          "name": "_v",
          "type": "uint8"
        },
        {
          "name": "_r",
          "type": "bytes32"
        },
        {
          "name": "_s",
          "type": "bytes32"
        }
      ],
      "name": "updatePlasmaBlockHeader",
      "outputs": [
        {
          "name": "success",
          "type": "bool"
        }
      ],
      "payable": false,
      "stateMutability": "nonpayable",
      "type": "function"
    },
    {
      "constant": true,
      "inputs": [],
      "name": "depositCounterInBlock",
      "outputs": [
        {
          "name": "",
          "type": "uint256"
        }
      ],
      "payable": false,
      "stateMutability": "view",
      "type": "function"
    },
    {
      "constant": false,
      "inputs": [
        {
          "name": "txData",
          "type": "bytes"
        }
      ],
      "name": "submitPlasmaTransaction",
      "outputs": [
        {
          "name": "success",
          "type": "bool"
        }
      ],
      "payable": false,
      "stateMutability": "nonpayable",
      "type": "function"
    },
    {
      "constant": true,
      "inputs": [],
      "name": "getCurrentBlockNumberandTXcount",
      "outputs": [
        {
          "name": "_bn",
          "type": "uint32"
        },
        {
          "name": "_numTxs",
          "type": "uint32"
        }
      ],
      "payable": false,
      "stateMutability": "view",
      "type": "function"
    },
    {
      "constant": false,
      "inputs": [
        {
          "name": "_depositIndex",
          "type": "uint256"
        },
        {
          "name": "_status",
          "type": "uint8"
        }
      ],
      "name": "updateDepositRecord",
      "outputs": [
        {
          "name": "success",
          "type": "bool"
        }
      ],
      "payable": false,
      "stateMutability": "nonpayable",
      "type": "function"
    },
    {
      "inputs": [],
      "payable": false,
      "stateMutability": "nonpayable",
      "type": "constructor"
    },
    {
      "payable": true,
      "stateMutability": "payable",
      "type": "fallback"
    },
    {
      "anonymous": false,
      "inputs": [
        {
          "indexed": true,
          "name": "_from",
          "type": "address"
        },
        {
          "indexed": true,
          "name": "_amount",
          "type": "uint256"
        },
        {
          "indexed": true,
          "name": "_depositIndex",
          "type": "uint256"
        }
      ],
      "name": "DepositEvent",
      "type": "event"
    },
    {
      "anonymous": false,
      "inputs": [
        {
          "indexed": false,
          "name": "txIdx",
          "type": "uint32"
        },
        {
          "indexed": false,
          "name": "currentPlasmaBlockNumber",
          "type": "uint32"
        },
        {
          "indexed": false,
          "name": "txData",
          "type": "bytes"
        }
      ],
      "name": "PlasmaTransactionEvent",
      "type": "event"
    }
  ],
  "bytecode": "0x60606040524360005560006001556001600660006101000a81548163ffffffff021916908363ffffffff160217905550341561003a57600080fd5b33600860006101000a81548173ffffffffffffffffffffffffffffffffffffffff021916908373ffffffffffffffffffffffffffffffffffffffff1602179055506116238061008a6000396000f300606060405260043610610107576000357c0100000000000000000000000000000000000000000000000000000000900463ffffffff1680631707fec81461010c57806329f61d251461014d57806330d8ae10146101db578063332bf0251461028657806334a6c14b1461032b578063409374081461035457806341c0e1b51461039c57806347e7ef24146103b15780634fb2e45d1461040757806372605228146104405780638f84aa09146104cd578063934096b1146105225780639c41f29d1461054f578063a732668e1461059f578063a9850776146105d4578063c652cf4214610664578063c6a370121461068d578063e1b7df0714610702578063f9fa0b1a1461074a575b600080fd5b341561011757600080fd5b610133600480803563ffffffff16906020019091905050610791565b604051808215151515815260200191505060405180910390f35b341561015857600080fd5b610184600480803573ffffffffffffffffffffffffffffffffffffffff16906020019091905050610819565b6040518080602001828103825283818151815260200191508051906020019060200280838360005b838110156101c75780820151818401526020810190506101ac565b505050509050019250505060405180910390f35b34156101e657600080fd5b61020b600480803563ffffffff169060200190919080359060200190919050506108b6565b6040518080602001828103825283818151815260200191508051906020019080838360005b8381101561024b578082015181840152602081019050610230565b50505050905090810190601f1680156102785780820380516001836020036101000a031916815260200191505b509250505060405180910390f35b341561029157600080fd5b6102ad600480803563ffffffff1690602001909190505061097f565b604051808863ffffffff1663ffffffff1681526020018763ffffffff1663ffffffff168152602001866000191660001916815260200185600019166000191681526020018460ff1660ff1681526020018360001916600019168152602001826000191660001916815260200197505050505050505060405180910390f35b341561033657600080fd5b61033e6109ee565b6040518082815260200191505060405180910390f35b341561035f57600080fd5b6103676109f4565b604051808363ffffffff1663ffffffff1681526020018263ffffffff1663ffffffff1681526020019250505060405180910390f35b34156103a757600080fd5b6103af610a79565b005b34156103bc57600080fd5b6103f1600480803573ffffffffffffffffffffffffffffffffffffffff16906020019091908035906020019091905050610b10565b6040518082815260200191505060405180910390f35b341561041257600080fd5b61043e600480803573ffffffffffffffffffffffffffffffffffffffff16906020019091905050610cd0565b005b341561044b57600080fd5b6104616004808035906020019091905050610d70565b604051808673ffffffffffffffffffffffffffffffffffffffff1673ffffffffffffffffffffffffffffffffffffffff1681526020018560058111156104a357fe5b60ff1681526020018481526020018381526020018281526020019550505050505060405180910390f35b34156104d857600080fd5b6104e0610dd3565b604051808273ffffffffffffffffffffffffffffffffffffffff1673ffffffffffffffffffffffffffffffffffffffff16815260200191505060405180910390f35b341561052d57600080fd5b610535610df9565b604051808215151515815260200191505060405180910390f35b341561055a57600080fd5b610585600480803563ffffffff1690602001909190803563ffffffff16906020019091905050610efe565b604051808215151515815260200191505060405180910390f35b34156105aa57600080fd5b6105b2610fac565b604051808263ffffffff1663ffffffff16815260200191505060405180910390f35b34156105df57600080fd5b61064a600480803563ffffffff1690602001909190803563ffffffff16906020019091908035600019169060200190919080356000191690602001909190803560ff169060200190919080356000191690602001909190803560001916906020019091905050610fc2565b604051808215151515815260200191505060405180910390f35b341561066f57600080fd5b6106776110c6565b6040518082815260200191505060405180910390f35b341561069857600080fd5b6106e8600480803590602001908201803590602001908080601f016020809104026020016040519081016040528093929190818152602001838380828437820191505050505050919050506110cc565b604051808215151515815260200191505060405180910390f35b341561070d57600080fd5b6107156112fd565b604051808363ffffffff1663ffffffff1681526020018263ffffffff1663ffffffff1681526020019250505060405180910390f35b341561075557600080fd5b610777600480803590602001909190803560ff1690602001909190505061138b565b604051808215151515815260200191505060405180910390f35b6000600860009054906101000a900473ffffffffffffffffffffffffffffffffffffffff1673ffffffffffffffffffffffffffffffffffffffff163373ffffffffffffffffffffffffffffffffffffffff161415156107ef57600080fd5b81600660006101000a81548163ffffffff021916908363ffffffff16021790555060019050919050565b610821611472565b600360008373ffffffffffffffffffffffffffffffffffffffff1673ffffffffffffffffffffffffffffffffffffffff1681526020019081526020016000208054806020026020016040519081016040528092919081815260200182805480156108aa57602002820191906000526020600020905b815481526020019060010190808311610896575b50505050509050919050565b6009602052816000526040600020818154811015156108d157fe5b9060005260206000209001600091509150508054600181600116156101000203166002900480601f0160208091040260200160405190810160405280929190818152602001828054600181600116156101000203166002900480156109775780601f1061094c57610100808354040283529160200191610977565b820191906000526020600020905b81548152906001019060200180831161095a57829003601f168201915b505050505081565b60076020528060005260406000206000915090508060000160009054906101000a900463ffffffff16908060000160049054906101000a900463ffffffff16908060010154908060020154908060030160009054906101000a900460ff16908060040154908060050154905087565b60005481565b6000806000806000600660009054906101000a900463ffffffff1663ffffffff161415610a2057600080fd5b6001600660009054906101000a900463ffffffff16039150600760008363ffffffff1663ffffffff1681526020019081526020016000209050818160000160049054906101000a900463ffffffff169350935050509091565b600860009054906101000a900473ffffffffffffffffffffffffffffffffffffffff1673ffffffffffffffffffffffffffffffffffffffff163373ffffffffffffffffffffffffffffffffffffffff16141515610ad557600080fd5b600860009054906101000a900473ffffffffffffffffffffffffffffffffffffffff1673ffffffffffffffffffffffffffffffffffffffff16ff5b6000806000805443141515610b285760006001819055505b600154602001439060020a02915060026000838152602001908152602001600020905060008160020154141515610b5e57600080fd5b60006005811115610b6b57fe5b8160000160149054906101000a900460ff166005811115610b8857fe5b141515610b9457600080fd5b818160020181905550848160000160006101000a81548173ffffffffffffffffffffffffffffffffffffffff021916908373ffffffffffffffffffffffffffffffffffffffff16021790555083816001018190555060018160000160146101000a81548160ff02191690836005811115610c0a57fe5b02179055506001805401600181905550600360008673ffffffffffffffffffffffffffffffffffffffff1673ffffffffffffffffffffffffffffffffffffffff1681526020019081526020016000208054806001018281610c6b9190611486565b91600052602060002090016000849091909150555081848673ffffffffffffffffffffffffffffffffffffffff167fad40ae5dc69974ba932d08b0a608e89109412d41d04850f5196f144875ae266060405160405180910390a4819250505092915050565b600860009054906101000a900473ffffffffffffffffffffffffffffffffffffffff1673ffffffffffffffffffffffffffffffffffffffff163373ffffffffffffffffffffffffffffffffffffffff16141515610d2c57600080fd5b80600860006101000a81548173ffffffffffffffffffffffffffffffffffffffff021916908373ffffffffffffffffffffffffffffffffffffffff16021790555050565b60026020528060005260406000206000915090508060000160009054906101000a900473ffffffffffffffffffffffffffffffffffffffff16908060000160149054906101000a900460ff16908060010154908060020154908060030154905085565b600860009054906101000a900473ffffffffffffffffffffffffffffffffffffffff1681565b600080600860009054906101000a900473ffffffffffffffffffffffffffffffffffffffff1673ffffffffffffffffffffffffffffffffffffffff163373ffffffffffffffffffffffffffffffffffffffff16141515610e5857600080fd5b6001600660009054906101000a900463ffffffff1601600660006101000a81548163ffffffff021916908363ffffffff16021790555060076000600660009054906101000a900463ffffffff1663ffffffff1663ffffffff1681526020019081526020016000209050600660009054906101000a900463ffffffff168160000160006101000a81548163ffffffff021916908363ffffffff160217905550600191505090565b600080600860009054906101000a900473ffffffffffffffffffffffffffffffffffffffff1673ffffffffffffffffffffffffffffffffffffffff163373ffffffffffffffffffffffffffffffffffffffff16141515610f5d57600080fd5b600760008563ffffffff1663ffffffff1681526020019081526020016000209050828160000160046101000a81548163ffffffff021916908363ffffffff160217905550600191505092915050565b600660009054906101000a900463ffffffff1681565b600080600860009054906101000a900473ffffffffffffffffffffffffffffffffffffffff1673ffffffffffffffffffffffffffffffffffffffff163373ffffffffffffffffffffffffffffffffffffffff1614151561102157600080fd5b600760008a63ffffffff1663ffffffff1681526020019081526020016000209050888160000160006101000a81548163ffffffff021916908363ffffffff1602179055508681600101816000191690555085816002018160001916905550848160030160006101000a81548160ff021916908360ff16021790555083816004018160001916905550828160050181600019169055506001915050979650505050505050565b60015481565b6000806000600860009054906101000a900473ffffffffffffffffffffffffffffffffffffffff1673ffffffffffffffffffffffffffffffffffffffff163373ffffffffffffffffffffffffffffffffffffffff1614151561112d57600080fd5b60076000600660009054906101000a900463ffffffff1663ffffffff1663ffffffff16815260200190815260200160002091508160000160049054906101000a900463ffffffff16905060018260000160049054906101000a900463ffffffff16018260000160046101000a81548163ffffffff021916908363ffffffff16021790555060096000600660009054906101000a900463ffffffff1663ffffffff1663ffffffff16815260200190815260200160002080548060010182816111f491906114b2565b91600052602060002090016000869091909150908051906020019061121a9291906114de565b50507fe3b27b75014352f19e335933d918ddc21e17cec97124141c1b9e0e1c5f2a042481600660009054906101000a900463ffffffff1686604051808463ffffffff1663ffffffff1681526020018363ffffffff1663ffffffff16815260200180602001828103825283818151815260200191508051906020019080838360005b838110156112b657808201518184015260208101905061129b565b50505050905090810190601f1680156112e35780820380516001836020036101000a031916815260200191505b5094505050505060405180910390a1600192505050919050565b600080600080600660009054906101000a900463ffffffff1663ffffffff16141561132757600080fd5b60076000600660009054906101000a900463ffffffff1663ffffffff1663ffffffff1681526020019081526020016000209050600660009054906101000a900463ffffffff168160000160049054906101000a900463ffffffff1692509250509091565b600080600860009054906101000a900473ffffffffffffffffffffffffffffffffffffffff1673ffffffffffffffffffffffffffffffffffffffff163373ffffffffffffffffffffffffffffffffffffffff161415156113ea57600080fd5b6002600085815260200190815260200160002090506000600581111561140c57fe5b8160000160149054906101000a900460ff16600581111561142957fe5b141561143457600080fd5b60058360ff1614156114675760058160000160146101000a81548160ff0219169083600581111561146157fe5b02179055505b600191505092915050565b602060405190810160405280600081525090565b8154818355818115116114ad578183600052602060002091820191016114ac919061155e565b5b505050565b8154818355818115116114d9578183600052602060002091820191016114d89190611583565b5b505050565b828054600181600116156101000203166002900490600052602060002090601f016020900481019282601f1061151f57805160ff191683800117855561154d565b8280016001018555821561154d579182015b8281111561154c578251825591602001919060010190611531565b5b50905061155a919061155e565b5090565b61158091905b8082111561157c576000816000905550600101611564565b5090565b90565b6115ac91905b808211156115a8576000818161159f91906115af565b50600101611589565b5090565b90565b50805460018160011615610100020316600290046000825580601f106115d557506115f4565b601f0160209004906000526020600020908101906115f3919061155e565b5b505600a165627a7a72305820edb3a51356f78b11e79dbc42776c28c4cad3bcc1f651a319ec74885756e3bf5a0029",
  "source": "pragma solidity ^0.4.18;\n\nlibrary Bytes {\n\n    function concat(bytes memory self, bytes memory bts) internal view returns (bytes memory newBts) {\n        uint totLen = self.length + bts.length;\n        if (totLen == 0)\n            return;\n        newBts = new bytes(totLen);\n        assembly {\n                let i := 0\n                let inOffset := 0\n                let outOffset := add(newBts, 0x20)\n                let words := 0\n                let tag := tag_bts\n            tag_self:\n                inOffset := add(self, 0x20)\n                words := div(add(mload(self), 31), 32)\n                jump(tag_loop)\n            tag_bts:\n                i := 0\n                inOffset := add(bts, 0x20)\n                outOffset := add(newBts, add(0x20, mload(self)))\n                words := div(add(mload(bts), 31), 32)\n                tag := tag_end\n            tag_loop:\n                jumpi(tag, gt(i, words))\n                {\n                    let offset := mul(i, 32)\n                    outOffset := add(outOffset, offset)\n                    mstore(outOffset, mload(add(inOffset, offset)))\n                    i := add(i, 1)\n                }\n                jump(tag_loop)\n            tag_end:\n                mstore(add(newBts, add(totLen, 0x20)), 0)\n        }\n    }\n\n    function uintToBytes(uint self) internal pure returns (bytes memory s) {\n        uint maxlength = 100;\n        bytes memory reversed = new bytes(maxlength);\n        uint i = 0;\n        while (self != 0) {\n            uint remainder = self % 10;\n            self = self / 10;\n            reversed[i++] = byte(48 + remainder);\n        }\n        s = new bytes(i);\n        for (uint j = 0; j < i; j++) {\n            s[j] = reversed[i - 1 - j];\n        }\n        return s;\n    }\n}\n\ncontract PlasmaChild {\n\n  // library\n  using Bytes for *;\n\n  // deposit\n  uint256 public lastEthBlockNumber = block.number;\n  uint256 public depositCounterInBlock = 0;\n  mapping (uint256 => DepositRecord) public depositRecords;\n  mapping (address => uint256[]) userDepositRecords;\n  enum DepositStatus {\n      NoRecord,\n      Deposited,\n      WithdrawStarted,\n      WithdrawChallenged,\n      WithdrawCompleted,\n      DepositConfirmed\n  }\n  struct DepositRecord {\n    address from;\n    DepositStatus status;\n    uint256 amount;\n    uint256 index;\n    uint256 withdrawStartedTime;\n  }\n  // when someone deposit\n  event DepositEvent(address indexed _from, uint256 indexed _amount, uint256 indexed _depositIndex);\n  // function deposit(uint256 _amount) public returns (uint256 idx1, uint256 idx2, uint256 idx3) public onlyToken {\n  /* function deposit(address _address, uint256 _amount) public returns (uint256 idx1, uint256 idx2, uint256 idx3) { */\n  function deposit(address _address, uint256 _amount) public returns (uint256 idx) {\n    // lastEthBlockNumber is not updatede at all...\n    // depositCounterInBlock may not be used yet...\n    if (block.number != lastEthBlockNumber) {\n        depositCounterInBlock = 0;\n    }\n\n    // seems to generate unique depositIndex\n    uint256 depositIndex = block.number << 32 + depositCounterInBlock;\n\n    // then create new DepositRecord object\n    DepositRecord storage record = depositRecords[depositIndex];\n    require(record.index == 0);\n    require(record.status == DepositStatus.NoRecord);\n\n    record.index = depositIndex;\n    record.from = _address;\n    record.amount = _amount;\n    record.status = DepositStatus.Deposited;\n    depositCounterInBlock = depositCounterInBlock + 1;\n    userDepositRecords[_address].push(depositIndex);\n\n    /* DepositEvent(msg.sender, msg.value, depositIndex); */\n    DepositEvent(_address, _amount, depositIndex);\n    return (depositIndex);\n  }\n  // update deposit record\n  function updateDepositRecord(uint256 _depositIndex, uint8 _status) public onlyOwner returns (bool success) {\n    DepositRecord storage record = depositRecords[_depositIndex];\n    if (record.status == DepositStatus.NoRecord) revert();\n    if (_status == 5) {\n      record.status = DepositStatus.DepositConfirmed;\n    }\n    return true;\n  }\n\n  // helper function for debug\n  function depositRecordsForUser(address _user) public view returns (uint256[]) {\n      return userDepositRecords[_user];\n  }\n\n  // new block number (lastEventProcessedBlockPrefix)\n  uint32 lastEventProcessedBlockNumber;\n\n  // last block number;\n  uint32 lastPlasmaBlockNumber;\n\n  // last block hash\n  bytes32 lastPlasmaBlockHash;\n\n  // current block number\n  uint32 public currentPlasmaBlockNumber = 1;\n\n  // structs\n\n  // header\n  struct PlasmaBlockHeader {\n    uint32 blockNumber;\n    uint32 numTransactions;\n    bytes32 previousBlockHash;\n    bytes32 merkleRootHash;\n    uint8 v;\n    bytes32 r;\n    bytes32 s;\n  }\n  mapping (uint32 => PlasmaBlockHeader) public plasmaBlockHeaders;\n\n  // Owner Address\n  address public ownerAddress;\n\n  // Modifiers\n  modifier onlyOwner {\n    if (msg.sender != ownerAddress) revert();\n    _;\n  }\n\n  // Constructor\n  function PlasmaChild() public {\n    ownerAddress = msg.sender;\n  }\n\n  // update plasma header once block is created\n  function updatePlasmaBlockHeader(\n    uint32 _bn,\n    uint32 _txCount,\n    bytes32 _parentHash,\n    bytes32 _merkleRootHash,\n    uint8 _v,\n    bytes32 _r,\n    bytes32 _s\n    ) onlyOwner public returns (bool success) {\n\n      PlasmaBlockHeader ph = plasmaBlockHeaders[_bn];\n      ph.blockNumber = _bn;\n      ph.previousBlockHash = _parentHash;\n      ph.merkleRootHash = _merkleRootHash;\n      ph.v = _v;\n      ph.r = _r;\n      ph.s = _s;\n\n      return true;\n  }\n\n  // convenient function for debugging\n  function updateNumTransactions(uint32 _bn, uint32 _txCount) onlyOwner public returns(bool success) {\n    PlasmaBlockHeader ph = plasmaBlockHeaders[_bn];\n    ph.numTransactions = _txCount;\n    return true;\n  }\n\n  // create next block\n  function createNextBlock() onlyOwner public returns (bool success) {\n\n    currentPlasmaBlockNumber = currentPlasmaBlockNumber + 1;\n    PlasmaBlockHeader ph = plasmaBlockHeaders[currentPlasmaBlockNumber];\n    ph.blockNumber = currentPlasmaBlockNumber;\n\n    return true;\n  }\n\n  // get block number and transactions of last block\n  function getLastBlockNumberandTXcount() public view returns (uint32 _bn, uint32 _numTxs ) {\n    if ( currentPlasmaBlockNumber == 0) revert();\n    uint32 lastPlasmaBlockNumber = currentPlasmaBlockNumber - 1;\n    PlasmaBlockHeader ph = plasmaBlockHeaders[lastPlasmaBlockNumber];\n    return ( lastPlasmaBlockNumber, ph.numTransactions);\n  }\n\n  // get block number and transactions of current block\n  function getCurrentBlockNumberandTXcount() public view returns (uint32 _bn, uint32 _numTxs ) {\n    // block number start from 1\n    if ( currentPlasmaBlockNumber == 0) revert();\n    /* uint32 lastPlasmaBlockNumber = currentPlasmaBlockNumber - 1; */\n    PlasmaBlockHeader ph = plasmaBlockHeaders[currentPlasmaBlockNumber];\n    return ( currentPlasmaBlockNumber, ph.numTransactions);\n  }\n\n  // plasma event\n  event PlasmaTransactionEvent(uint32 txIdx, uint32 currentPlasmaBlockNumber, bytes txData);\n\n  // array of plasma transactions\n  mapping (uint32 => bytes[]) public plasmaTransactions;\n\n  // add transactin\n  function submitPlasmaTransaction(bytes txData) onlyOwner public returns (bool success) {\n\n    // get plasma block header with current plasma block number\n    PlasmaBlockHeader ph = plasmaBlockHeaders[currentPlasmaBlockNumber];\n    // increase number of transactions\n    uint32 lastNumTransactions = ph.numTransactions;\n    ph.numTransactions = ph.numTransactions + 1;\n\n    // add transaction\n    plasmaTransactions[currentPlasmaBlockNumber].push(txData);\n\n    // send event\n    PlasmaTransactionEvent(lastNumTransactions, currentPlasmaBlockNumber, txData);\n\n    return true;\n  }\n\n  // change ownerheaders\n  function transferOwner(address _address) public onlyOwner {\n    ownerAddress = _address;\n  }\n\n  // kill contract itself\n  function kill() onlyOwner public {\n      selfdestruct(ownerAddress);\n  }\n\n  function setCurrentPlasmaBlockNumber(uint32 _number) onlyOwner public returns (bool success) {\n    currentPlasmaBlockNumber = _number;\n    return true;\n  }\n\n  // fallback for ether\n  function() payable public {\n    revert();\n  }\n}\n",
  "sourcePath": "/Users/kouohhashi/Desktop/eth_project/credit_hydra/smart_contracts/contracts/PlasmaChild.sol",
  "compiler": {
    "name": "solc",
    "version": "0.4.18+commit.9cf6e910.Emscripten.clang"
  },
  "schemaVersion": "1.0.1",
  "updatedAt": "2018-02-28T18:35:09.328Z"
}