{
  "contractName": "PlasmaParent",
  "abi": [
    {
      "constant": true,
      "inputs": [],
      "name": "newBlockHash5",
      "outputs": [
        {
          "name": "",
          "type": "bytes32"
        }
      ],
      "payable": false,
      "stateMutability": "view",
      "type": "function"
    },
    {
      "constant": true,
      "inputs": [
        {
          "name": "",
          "type": "uint256"
        },
        {
          "name": "",
          "type": "uint32"
        }
      ],
      "name": "exitRecords",
      "outputs": [
        {
          "name": "",
          "type": "uint8"
        }
      ],
      "payable": false,
      "stateMutability": "view",
      "type": "function"
    },
    {
      "constant": false,
      "inputs": [
        {
          "name": "header",
          "type": "bytes"
        }
      ],
      "name": "submitBlock3",
      "outputs": [
        {
          "name": "success",
          "type": "bool"
        }
      ],
      "payable": false,
      "stateMutability": "nonpayable",
      "type": "function"
    },
    {
      "constant": true,
      "inputs": [],
      "name": "newBlockHash2",
      "outputs": [
        {
          "name": "",
          "type": "bytes32"
        }
      ],
      "payable": false,
      "stateMutability": "view",
      "type": "function"
    },
    {
      "constant": true,
      "inputs": [],
      "name": "previousHash7",
      "outputs": [
        {
          "name": "",
          "type": "bytes32"
        }
      ],
      "payable": false,
      "stateMutability": "view",
      "type": "function"
    },
    {
      "constant": true,
      "inputs": [],
      "name": "lastBlockNumber",
      "outputs": [
        {
          "name": "",
          "type": "uint256"
        }
      ],
      "payable": false,
      "stateMutability": "view",
      "type": "function"
    },
    {
      "constant": true,
      "inputs": [
        {
          "name": "message",
          "type": "bytes"
        }
      ],
      "name": "createPersonalMessageTypeHash",
      "outputs": [
        {
          "name": "msgHash",
          "type": "bytes32"
        }
      ],
      "payable": false,
      "stateMutability": "view",
      "type": "function"
    },
    {
      "constant": true,
      "inputs": [
        {
          "name": "_user",
          "type": "address"
        }
      ],
      "name": "depositRecordsForUser",
      "outputs": [
        {
          "name": "",
          "type": "uint256[]"
        }
      ],
      "payable": false,
      "stateMutability": "view",
      "type": "function"
    },
    {
      "constant": true,
      "inputs": [],
      "name": "previousHash8",
      "outputs": [
        {
          "name": "",
          "type": "bytes32"
        }
      ],
      "payable": false,
      "stateMutability": "view",
      "type": "function"
    },
    {
      "constant": true,
      "inputs": [],
      "name": "lastEthBlockNumber",
      "outputs": [
        {
          "name": "",
          "type": "uint256"
        }
      ],
      "payable": false,
      "stateMutability": "view",
      "type": "function"
    },
    {
      "constant": true,
      "inputs": [],
      "name": "previousHash0",
      "outputs": [
        {
          "name": "",
          "type": "bytes32"
        }
      ],
      "payable": false,
      "stateMutability": "view",
      "type": "function"
    },
    {
      "constant": true,
      "inputs": [
        {
          "name": "root",
          "type": "bytes32"
        },
        {
          "name": "data",
          "type": "bytes"
        },
        {
          "name": "proof",
          "type": "bytes"
        },
        {
          "name": "convertToMessageHash",
          "type": "bool"
        }
      ],
      "name": "checkProof",
      "outputs": [
        {
          "name": "",
          "type": "bool"
        }
      ],
      "payable": false,
      "stateMutability": "view",
      "type": "function"
    },
    {
      "constant": false,
      "inputs": [],
      "name": "kill",
      "outputs": [],
      "payable": false,
      "stateMutability": "nonpayable",
      "type": "function"
    },
    {
      "constant": false,
      "inputs": [
        {
          "name": "_address",
          "type": "address"
        },
        {
          "name": "_amount",
          "type": "uint256"
        }
      ],
      "name": "deposit",
      "outputs": [
        {
          "name": "idx",
          "type": "uint256"
        }
      ],
      "payable": false,
      "stateMutability": "nonpayable",
      "type": "function"
    },
    {
      "constant": false,
      "inputs": [
        {
          "name": "_bn",
          "type": "uint256"
        },
        {
          "name": "_txIdx",
          "type": "uint32"
        },
        {
          "name": "_rawTx",
          "type": "bytes"
        },
        {
          "name": "_proof",
          "type": "bytes"
        }
      ],
      "name": "checkProofText2",
      "outputs": [],
      "payable": false,
      "stateMutability": "nonpayable",
      "type": "function"
    },
    {
      "constant": false,
      "inputs": [
        {
          "name": "_address",
          "type": "address"
        }
      ],
      "name": "transferOwner",
      "outputs": [],
      "payable": false,
      "stateMutability": "nonpayable",
      "type": "function"
    },
    {
      "constant": true,
      "inputs": [
        {
          "name": "",
          "type": "uint256"
        }
      ],
      "name": "headers",
      "outputs": [
        {
          "name": "blockNumber",
          "type": "uint32"
        },
        {
          "name": "numTransactions",
          "type": "uint32"
        },
        {
          "name": "v",
          "type": "uint8"
        },
        {
          "name": "previousBlockHash",
          "type": "bytes32"
        },
        {
          "name": "merkleRootHash",
          "type": "bytes32"
        },
        {
          "name": "r",
          "type": "bytes32"
        },
        {
          "name": "s",
          "type": "bytes32"
        }
      ],
      "payable": false,
      "stateMutability": "view",
      "type": "function"
    },
    {
      "constant": true,
      "inputs": [],
      "name": "submitBlock3_1",
      "outputs": [
        {
          "name": "",
          "type": "uint256"
        }
      ],
      "payable": false,
      "stateMutability": "view",
      "type": "function"
    },
    {
      "constant": false,
      "inputs": [
        {
          "name": "_blockNumber",
          "type": "uint32"
        }
      ],
      "name": "updateLastBlockNumber",
      "outputs": [
        {
          "name": "success",
          "type": "bool"
        }
      ],
      "payable": false,
      "stateMutability": "nonpayable",
      "type": "function"
    },
    {
      "constant": false,
      "inputs": [
        {
          "name": "_address",
          "type": "address"
        }
      ],
      "name": "setTokenAddrss",
      "outputs": [],
      "payable": false,
      "stateMutability": "nonpayable",
      "type": "function"
    },
    {
      "constant": true,
      "inputs": [],
      "name": "previousHash2",
      "outputs": [
        {
          "name": "",
          "type": "bytes32"
        }
      ],
      "payable": false,
      "stateMutability": "view",
      "type": "function"
    },
    {
      "constant": true,
      "inputs": [],
      "name": "newBlockHash0",
      "outputs": [
        {
          "name": "",
          "type": "bytes32"
        }
      ],
      "payable": false,
      "stateMutability": "view",
      "type": "function"
    },
    {
      "constant": true,
      "inputs": [],
      "name": "blockHeaderLength",
      "outputs": [
        {
          "name": "",
          "type": "uint32"
        }
      ],
      "payable": false,
      "stateMutability": "view",
      "type": "function"
    },
    {
      "constant": true,
      "inputs": [],
      "name": "submitBlock3_6",
      "outputs": [
        {
          "name": "",
          "type": "uint8"
        }
      ],
      "payable": false,
      "stateMutability": "view",
      "type": "function"
    },
    {
      "constant": true,
      "inputs": [
        {
          "name": "",
          "type": "uint256"
        }
      ],
      "name": "depositRecords",
      "outputs": [
        {
          "name": "from",
          "type": "address"
        },
        {
          "name": "status",
          "type": "uint8"
        },
        {
          "name": "amount",
          "type": "uint256"
        },
        {
          "name": "index",
          "type": "uint256"
        },
        {
          "name": "withdrawStartedTime",
          "type": "uint256"
        }
      ],
      "payable": false,
      "stateMutability": "view",
      "type": "function"
    },
    {
      "constant": false,
      "inputs": [
        {
          "name": "_bn",
          "type": "uint256"
        },
        {
          "name": "_txIdx",
          "type": "uint32"
        },
        {
          "name": "_rawTx",
          "type": "bytes"
        },
        {
          "name": "_proof",
          "type": "bytes"
        },
        {
          "name": "_address",
          "type": "address"
        },
        {
          "name": "_value",
          "type": "uint256"
        }
      ],
      "name": "exitFromChild",
      "outputs": [],
      "payable": false,
      "stateMutability": "nonpayable",
      "type": "function"
    },
    {
      "constant": true,
      "inputs": [],
      "name": "previousHash1",
      "outputs": [
        {
          "name": "",
          "type": "bytes32"
        }
      ],
      "payable": false,
      "stateMutability": "view",
      "type": "function"
    },
    {
      "constant": true,
      "inputs": [],
      "name": "previousHash4",
      "outputs": [
        {
          "name": "",
          "type": "bytes32"
        }
      ],
      "payable": false,
      "stateMutability": "view",
      "type": "function"
    },
    {
      "constant": true,
      "inputs": [],
      "name": "submitBlock3_3",
      "outputs": [
        {
          "name": "",
          "type": "uint8"
        }
      ],
      "payable": false,
      "stateMutability": "view",
      "type": "function"
    },
    {
      "constant": true,
      "inputs": [],
      "name": "submitBlock3_5",
      "outputs": [
        {
          "name": "",
          "type": "bytes32"
        }
      ],
      "payable": false,
      "stateMutability": "view",
      "type": "function"
    },
    {
      "constant": true,
      "inputs": [],
      "name": "cp_text",
      "outputs": [
        {
          "name": "",
          "type": "uint256"
        }
      ],
      "payable": false,
      "stateMutability": "view",
      "type": "function"
    },
    {
      "constant": true,
      "inputs": [],
      "name": "owner",
      "outputs": [
        {
          "name": "",
          "type": "address"
        }
      ],
      "payable": false,
      "stateMutability": "view",
      "type": "function"
    },
    {
      "constant": false,
      "inputs": [
        {
          "name": "_address",
          "type": "address"
        }
      ],
      "name": "dummy_transfer",
      "outputs": [],
      "payable": false,
      "stateMutability": "nonpayable",
      "type": "function"
    },
    {
      "constant": true,
      "inputs": [],
      "name": "newBlockHash1",
      "outputs": [
        {
          "name": "",
          "type": "bytes32"
        }
      ],
      "payable": false,
      "stateMutability": "view",
      "type": "function"
    },
    {
      "constant": false,
      "inputs": [
        {
          "name": "_bn",
          "type": "uint256"
        },
        {
          "name": "_txIdx",
          "type": "uint32"
        },
        {
          "name": "_rawTx",
          "type": "bytes"
        },
        {
          "name": "_proof",
          "type": "bytes"
        },
        {
          "name": "_address",
          "type": "address"
        },
        {
          "name": "_value",
          "type": "uint256"
        }
      ],
      "name": "exitFromChild2",
      "outputs": [],
      "payable": false,
      "stateMutability": "nonpayable",
      "type": "function"
    },
    {
      "constant": true,
      "inputs": [],
      "name": "submitBlock3_2",
      "outputs": [
        {
          "name": "",
          "type": "uint8"
        }
      ],
      "payable": false,
      "stateMutability": "view",
      "type": "function"
    },
    {
      "constant": true,
      "inputs": [],
      "name": "PreviousBlockPersonalHashLength",
      "outputs": [
        {
          "name": "",
          "type": "uint256"
        }
      ],
      "payable": false,
      "stateMutability": "view",
      "type": "function"
    },
    {
      "constant": true,
      "inputs": [],
      "name": "submitBlock3_4",
      "outputs": [
        {
          "name": "",
          "type": "address"
        }
      ],
      "payable": false,
      "stateMutability": "view",
      "type": "function"
    },
    {
      "constant": true,
      "inputs": [],
      "name": "previousHash6",
      "outputs": [
        {
          "name": "",
          "type": "bytes32"
        }
      ],
      "payable": false,
      "stateMutability": "view",
      "type": "function"
    },
    {
      "constant": true,
      "inputs": [],
      "name": "newBlockHash3",
      "outputs": [
        {
          "name": "",
          "type": "bytes32"
        }
      ],
      "payable": false,
      "stateMutability": "view",
      "type": "function"
    },
    {
      "constant": false,
      "inputs": [
        {
          "name": "_from",
          "type": "address"
        },
        {
          "name": "_value",
          "type": "uint256"
        },
        {
          "name": "_data",
          "type": "bytes"
        }
      ],
      "name": "tokenFallback",
      "outputs": [],
      "payable": false,
      "stateMutability": "nonpayable",
      "type": "function"
    },
    {
      "constant": true,
      "inputs": [],
      "name": "newBlockHash4",
      "outputs": [
        {
          "name": "",
          "type": "bytes32"
        }
      ],
      "payable": false,
      "stateMutability": "view",
      "type": "function"
    },
    {
      "constant": true,
      "inputs": [],
      "name": "depositCounterInBlock",
      "outputs": [
        {
          "name": "",
          "type": "uint256"
        }
      ],
      "payable": false,
      "stateMutability": "view",
      "type": "function"
    },
    {
      "constant": false,
      "inputs": [
        {
          "name": "header",
          "type": "bytes"
        }
      ],
      "name": "submitBlock",
      "outputs": [
        {
          "name": "success",
          "type": "bool"
        }
      ],
      "payable": false,
      "stateMutability": "nonpayable",
      "type": "function"
    },
    {
      "constant": true,
      "inputs": [],
      "name": "previousHash3",
      "outputs": [
        {
          "name": "",
          "type": "bytes32"
        }
      ],
      "payable": false,
      "stateMutability": "view",
      "type": "function"
    },
    {
      "constant": true,
      "inputs": [],
      "name": "previousHash5",
      "outputs": [
        {
          "name": "",
          "type": "bytes32"
        }
      ],
      "payable": false,
      "stateMutability": "view",
      "type": "function"
    },
    {
      "constant": false,
      "inputs": [
        {
          "name": "_depositIndex",
          "type": "uint256"
        },
        {
          "name": "_status",
          "type": "uint8"
        }
      ],
      "name": "updateDepositRecord",
      "outputs": [
        {
          "name": "success",
          "type": "bool"
        }
      ],
      "payable": false,
      "stateMutability": "nonpayable",
      "type": "function"
    },
    {
      "constant": true,
      "inputs": [],
      "name": "token",
      "outputs": [
        {
          "name": "",
          "type": "address"
        }
      ],
      "payable": false,
      "stateMutability": "view",
      "type": "function"
    },
    {
      "inputs": [],
      "payable": false,
      "stateMutability": "nonpayable",
      "type": "constructor"
    },
    {
      "payable": true,
      "stateMutability": "payable",
      "type": "fallback"
    },
    {
      "anonymous": false,
      "inputs": [
        {
          "indexed": true,
          "name": "_signer",
          "type": "address"
        },
        {
          "indexed": true,
          "name": "_blockNumber",
          "type": "uint32"
        },
        {
          "indexed": true,
          "name": "_blockHash",
          "type": "bytes32"
        }
      ],
      "name": "HeaderSubmittedEvent",
      "type": "event"
    },
    {
      "anonymous": false,
      "inputs": [
        {
          "indexed": true,
          "name": "_from",
          "type": "address"
        },
        {
          "indexed": true,
          "name": "_amount",
          "type": "uint256"
        },
        {
          "indexed": true,
          "name": "_depositIndex",
          "type": "uint256"
        }
      ],
      "name": "DepositEvent",
      "type": "event"
    },
    {
      "anonymous": false,
      "inputs": [
        {
          "indexed": true,
          "name": "_address",
          "type": "address"
        },
        {
          "indexed": false,
          "name": "_amount",
          "type": "uint256"
        },
        {
          "indexed": false,
          "name": "_bn",
          "type": "uint256"
        },
        {
          "indexed": false,
          "name": "_txIdx",
          "type": "uint32"
        }
      ],
      "name": "ExitFromChildEvent",
      "type": "event"
    }
  ],
  "bytecode": "0x606060405260006002554360035560006004556089600760006101000a81548163ffffffff021916908363ffffffff1602179055506000601c55341561004457600080fd5b336000806101000a81548173ffffffffffffffffffffffffffffffffffffffff021916908373ffffffffffffffffffffffffffffffffffffffff160217905550613cbe806100936000396000f300606060405260043610610246576000357c0100000000000000000000000000000000000000000000000000000000900463ffffffff1680630229874c1461024b5780630364c2681461027c57806303e63bdb146102c85780631e0601ed1461033d57806324d13ec11461036e5780632552317c1461039f578063281c6ffd146103c857806329f61d25146104415780632d7dd857146104cf57806334a6c14b146105005780633652c008146105295780633e1ec0111461055a57806341c0e1b51461062a57806347e7ef241461063f57806348bec2c8146106955780634fb2e45d1461074d57806356f90d791461078657806358d44bbc1461082557806358e521a51461084e5780635df6add61461088f57806360bd79ce146108c857806365c47c15146108f9578063683493241461092a5780636866cac31461095f578063726052281461098e57806375cb098114610a1b578063778a750714610afb5780637da2873214610b2c57806384d9065114610b5d5780638a81af8614610b8c5780638afb617014610bbd5780638da5cb5b14610be657806396e8c01d14610c3b57806399f5d96014610c745780639b5c9f0214610ca55780639dede30914610d855780639ec5356214610db4578063a0012ac414610ddd578063b03dc5ba14610e32578063b55ffcae14610e63578063c0ee0b8a14610e94578063c24c3f6414610f19578063c652cf4214610f4a578063d510738114610f73578063ed62cd1b14610fe8578063f1f6b40b14611019578063f9fa0b1a1461104a578063fc0c546a14611091575b600080fd5b341561025657600080fd5b61025e6110e6565b60405180826000191660001916815260200191505060405180910390f35b341561028757600080fd5b6102ac600480803590602001909190803563ffffffff169060200190919050506110ec565b604051808260ff1660ff16815260200191505060405180910390f35b34156102d357600080fd5b610323600480803590602001908201803590602001908080601f0160208091040260200160405190810160405280939291908181526020018383808284378201915050505050509190505061111b565b604051808215151515815260200191505060405180910390f35b341561034857600080fd5b610350611ec6565b60405180826000191660001916815260200191505060405180910390f35b341561037957600080fd5b610381611ecc565b60405180826000191660001916815260200191505060405180910390f35b34156103aa57600080fd5b6103b2611ed2565b6040518082815260200191505060405180910390f35b34156103d357600080fd5b610423600480803590602001908201803590602001908080601f01602080910402602001604051908101604052809392919081815260200183838082843782019150505050505091905050611ed8565b60405180826000191660001916815260200191505060405180910390f35b341561044c57600080fd5b610478600480803573ffffffffffffffffffffffffffffffffffffffff16906020019091905050612001565b6040518080602001828103825283818151815260200191508051906020019060200280838360005b838110156104bb5780820151818401526020810190506104a0565b505050509050019250505060405180910390f35b34156104da57600080fd5b6104e261209e565b60405180826000191660001916815260200191505060405180910390f35b341561050b57600080fd5b6105136120a4565b6040518082815260200191505060405180910390f35b341561053457600080fd5b61053c6120aa565b60405180826000191660001916815260200191505060405180910390f35b341561056557600080fd5b61061060048080356000191690602001909190803590602001908201803590602001908080601f0160208091040260200160405190810160405280939291908181526020018383808284378201915050505050509190803590602001908201803590602001908080601f0160208091040260200160405190810160405280939291908181526020018383808284378201915050505050509190803515159060200190919050506120b0565b604051808215151515815260200191505060405180910390f35b341561063557600080fd5b61063d6122a5565b005b341561064a57600080fd5b61067f600480803573ffffffffffffffffffffffffffffffffffffffff1690602001909190803590602001909190505061233a565b6040518082815260200191505060405180910390f35b34156106a057600080fd5b61074b600480803590602001909190803563ffffffff1690602001909190803590602001908201803590602001908080601f0160208091040260200160405190810160405280939291908181526020018383808284378201915050505050509190803590602001908201803590602001908080601f016020809104026020016040519081016040528093929190818152602001838380828437820191505050505050919050506125b1565b005b341561075857600080fd5b610784600480803573ffffffffffffffffffffffffffffffffffffffff16906020019091905050612617565b005b341561079157600080fd5b6107a760048080359060200190919050506126b5565b604051808863ffffffff1663ffffffff1681526020018763ffffffff1663ffffffff1681526020018660ff1660ff168152602001856000191660001916815260200184600019166000191681526020018360001916600019168152602001826000191660001916815260200197505050505050505060405180910390f35b341561083057600080fd5b610838612724565b6040518082815260200191505060405180910390f35b341561085957600080fd5b610875600480803563ffffffff1690602001909190505061272a565b604051808215151515815260200191505060405180910390f35b341561089a57600080fd5b6108c6600480803573ffffffffffffffffffffffffffffffffffffffff1690602001909190505061279d565b005b34156108d357600080fd5b6108db61283c565b60405180826000191660001916815260200191505060405180910390f35b341561090457600080fd5b61090c612842565b60405180826000191660001916815260200191505060405180910390f35b341561093557600080fd5b61093d612848565b604051808263ffffffff1663ffffffff16815260200191505060405180910390f35b341561096a57600080fd5b61097261285e565b604051808260ff1660ff16815260200191505060405180910390f35b341561099957600080fd5b6109af6004808035906020019091905050612871565b604051808673ffffffffffffffffffffffffffffffffffffffff1673ffffffffffffffffffffffffffffffffffffffff1681526020018560058111156109f157fe5b60ff1681526020018481526020018381526020018281526020019550505050505060405180910390f35b3415610a2657600080fd5b610af9600480803590602001909190803563ffffffff1690602001909190803590602001908201803590602001908080601f0160208091040260200160405190810160405280939291908181526020018383808284378201915050505050509190803590602001908201803590602001908080601f0160208091040260200160405190810160405280939291908181526020018383808284378201915050505050509190803573ffffffffffffffffffffffffffffffffffffffff169060200190919080359060200190919050506128d4565b005b3415610b0657600080fd5b610b0e612a3f565b60405180826000191660001916815260200191505060405180910390f35b3415610b3757600080fd5b610b3f612a45565b60405180826000191660001916815260200191505060405180910390f35b3415610b6857600080fd5b610b70612a4b565b604051808260ff1660ff16815260200191505060405180910390f35b3415610b9757600080fd5b610b9f612a5e565b60405180826000191660001916815260200191505060405180910390f35b3415610bc857600080fd5b610bd0612a64565b6040518082815260200191505060405180910390f35b3415610bf157600080fd5b610bf9612a6a565b604051808273ffffffffffffffffffffffffffffffffffffffff1673ffffffffffffffffffffffffffffffffffffffff16815260200191505060405180910390f35b3415610c4657600080fd5b610c72600480803573ffffffffffffffffffffffffffffffffffffffff16906020019091905050612a8f565b005b3415610c7f57600080fd5b610c87612b6b565b60405180826000191660001916815260200191505060405180910390f35b3415610cb057600080fd5b610d83600480803590602001909190803563ffffffff1690602001909190803590602001908201803590602001908080601f0160208091040260200160405190810160405280939291908181526020018383808284378201915050505050509190803590602001908201803590602001908080601f0160208091040260200160405190810160405280939291908181526020018383808284378201915050505050509190803573ffffffffffffffffffffffffffffffffffffffff16906020019091908035906020019091905050612b71565b005b3415610d9057600080fd5b610d98612db4565b604051808260ff1660ff16815260200191505060405180910390f35b3415610dbf57600080fd5b610dc7612dc7565b6040518082815260200191505060405180910390f35b3415610de857600080fd5b610df0612dd6565b604051808273ffffffffffffffffffffffffffffffffffffffff1673ffffffffffffffffffffffffffffffffffffffff16815260200191505060405180910390f35b3415610e3d57600080fd5b610e45612dfc565b60405180826000191660001916815260200191505060405180910390f35b3415610e6e57600080fd5b610e76612e02565b60405180826000191660001916815260200191505060405180910390f35b3415610e9f57600080fd5b610f17600480803573ffffffffffffffffffffffffffffffffffffffff1690602001909190803590602001909190803590602001908201803590602001908080601f01602080910402602001604051908101604052809392919081815260200183838082843782019150505050505091905050612e08565b005b3415610f2457600080fd5b610f2c612e0d565b60405180826000191660001916815260200191505060405180910390f35b3415610f5557600080fd5b610f5d612e13565b6040518082815260200191505060405180910390f35b3415610f7e57600080fd5b610fce600480803590602001908201803590602001908080601f01602080910402602001604051908101604052809392919081815260200183838082843782019150505050505091905050612e19565b604051808215151515815260200191505060405180910390f35b3415610ff357600080fd5b610ffb613584565b60405180826000191660001916815260200191505060405180910390f35b341561102457600080fd5b61102c61358a565b60405180826000191660001916815260200191505060405180910390f35b341561105557600080fd5b611077600480803590602001909190803560ff16906020019091905050613590565b604051808215151515815260200191505060405180910390f35b341561109c57600080fd5b6110a4613676565b604051808273ffffffffffffffffffffffffffffffffffffffff1673ffffffffffffffffffffffffffffffffffffffff16815260200191505060405180910390f35b601b5481565b601d6020528160005260406000206020528060005260406000206000915091509054906101000a900460ff1681565b6000806000806000806000806000806000806000611137613bc0565b6000809054906101000a900473ffffffffffffffffffffffffffffffffffffffff1673ffffffffffffffffffffffffffffffffffffffff163373ffffffffffffffffffffffffffffffffffffffff1614151561119257600080fd5b60006012819055506000601360016101000a81548160ff021916908360ff1602179055506000601360026101000a81548173ffffffffffffffffffffffffffffffffffffffff021916908373ffffffffffffffffffffffffffffffffffffffff1602179055506000601560006101000a81548160ff021916908360ff160217905550600760009054906101000a900463ffffffff1663ffffffff168f51141515611247578e5160128190555060019d50611eb4565b600960128190555061125a8f600061369c565b7c010000000000000000000000000000000000000000000000000000000090049c506112878f600461369c565b7c010000000000000000000000000000000000000000000000000000000090049b506112b68f60048001613790565b9a506112c88f60206004800101613790565b99506112dc8f602080600480010101613869565b7f0100000000000000000000000000000000000000000000000000000000000000900498506113168f600160208060048001010101613790565b975061132d8f602160208060048001010101613790565b96508c63ffffffff1695506001600254018614151561136b576005601360006101000a81548160ff021916908360ff16021790555060019d50611eb4565b6009601360006101000a81548160ff021916908360ff16021790555060006002541415156115e95760056000600254815260200190815260200160002094506040805190810160405280601a81526020017f19457468657265756d205369676e6564204d6573736167653a0a0000000000008152506041602080600480010101016001028660000160009054906101000a900463ffffffff168760000160049054906101000a900463ffffffff16886001015489600201548a60000160089054906101000a900460ff168b600301548c60040154604051808a805190602001908083835b602083101515611474578051825260208201915060208101905060208303925061144f565b6001836020036101000a03801982511681845116808217855250505050505090500189600019166000191681526020018863ffffffff1663ffffffff167c01000000000000000000000000000000000000000000000000000000000281526004018763ffffffff1663ffffffff167c0100000000000000000000000000000000000000000000000000000000028152600401866000191660001916815260200185600019166000191681526020018460ff1660ff167f0100000000000000000000000000000000000000000000000000000000000000028152600101836000191660001916815260200182600019166000191681526020019950505050505050505050604051809103902093508a6000191684600019161415156115cc57604160208060048001010101601360016101000a81548160ff021916908360ff16021790555083600a816000191690555060019d50611eb4565b6009601360016101000a81548160ff021916908360ff1602179055505b6040805190810160405280601a81526020017f19457468657265756d205369676e6564204d6573736167653a0a0000000000008152506020806004800101016001028e8e8e8e6040518087805190602001908083835b602083101515611664578051825260208201915060208101905060208303925061163f565b6001836020036101000a03801982511681845116808217855250505050505090500186600019166000191681526020018563ffffffff1663ffffffff167c01000000000000000000000000000000000000000000000000000000000281526004018463ffffffff1663ffffffff167c01000000000000000000000000000000000000000000000000000000000281526004018360001916600019168152602001826000191660001916815260200196505050505050506040518091039020925082601681600019169055506040805190810160405280601a81526020017f19457468657265756d205369676e6564204d6573736167653a0a0000000000008152506040518082805190602001908083835b60208310151561179a5780518252602082019150602081019050602083039250611775565b6001836020036101000a0380198251168184511680821785525050505050509050019150506040518091039020601781600019169055506040805190810160405280601a81526020017f19457468657265756d205369676e6564204d6573736167653a0a0000000000008152506020806004800101016001026040518083805190602001908083835b6020831015156118485780518252602082019150602081019050602083039250611823565b6001836020036101000a0380198251168184511680821785525050505050509050018260001916600019168152602001925050506040518091039020601881600019169055506040805190810160405280601a81526020017f19457468657265756d205369676e6564204d6573736167653a0a0000000000008152506020806004800101016001028e6040518084805190602001908083835b60208310151561190657805182526020820191506020810190506020830392506118e1565b6001836020036101000a03801982511681845116808217855250505050505090500183600019166000191681526020018263ffffffff1663ffffffff167c010000000000000000000000000000000000000000000000000000000002815260040193505050506040518091039020601981600019169055506040805190810160405280601a81526020017f19457468657265756d205369676e6564204d6573736167653a0a0000000000008152506020806004800101016001028e8e6040518085805190602001908083835b6020831015156119f757805182526020820191506020810190506020830392506119d2565b6001836020036101000a03801982511681845116808217855250505050505090500184600019166000191681526020018363ffffffff1663ffffffff167c01000000000000000000000000000000000000000000000000000000000281526004018263ffffffff1663ffffffff167c01000000000000000000000000000000000000000000000000000000000281526004019450505050506040518091039020601a81600019169055506040805190810160405280601a81526020017f19457468657265756d205369676e6564204d6573736167653a0a0000000000008152506020806004800101016001028e8e8e6040518086805190602001908083835b602083101515611b1b5780518252602082019150602081019050602083039250611af6565b6001836020036101000a03801982511681845116808217855250505050505090500185600019166000191681526020018463ffffffff1663ffffffff167c01000000000000000000000000000000000000000000000000000000000281526004018363ffffffff1663ffffffff167c01000000000000000000000000000000000000000000000000000000000281526004018260001916600019168152602001955050505050506040518091039020601b8160001916905550601b8960ff161015611be757601b890198505b6001838a8a8a604051600081526020016040526000604051602001526040518085600019166000191681526020018460ff1660ff16815260200183600019166000191681526020018260001916600019168152602001945050505050602060405160208103908084039060008661646e5a03f11515611c6557600080fd5b50506020604051035191506000809054906101000a900473ffffffffffffffffffffffffffffffffffffffff1673ffffffffffffffffffffffffffffffffffffffff168273ffffffffffffffffffffffffffffffffffffffff16141515611d1b5781601360026101000a81548173ffffffffffffffffffffffffffffffffffffffff021916908373ffffffffffffffffffffffffffffffffffffffff160217905550826014816000191690555060019d50611eb4565b6009601560006101000a81548160ff021916908360ff16021790555060e0604051908101604052808e63ffffffff1681526020018d63ffffffff1681526020018a60ff1681526020018c6000191681526020018b60001916815260200189600019168152602001886000191681525090506001600254016002819055508060056000600254815260200190815260200160002060008201518160000160006101000a81548163ffffffff021916908363ffffffff16021790555060208201518160000160046101000a81548163ffffffff021916908363ffffffff16021790555060408201518160000160086101000a81548160ff021916908360ff160217905550606082015181600101906000191690556080820151816002019060001916905560a0820151816003019060001916905560c0820151816004019060001916905590505082600019168d63ffffffff168373ffffffffffffffffffffffffffffffffffffffff167fe38502f63d2cce428e6986acac6919b21e21caeefff626ecea9eae66739faed460405160405180910390a460019d505b50505050505050505050505050919050565b60185481565b60105481565b60025481565b6000611ee2613c19565b611eea613c19565b611ef4845161393e565b9150611f3e826040805190810160405280601a81526020017f19457468657265756d205369676e6564204d6573736167653a0a000000000000815250613b0290919063ffffffff16565b905080846040518083805190602001908083835b602083101515611f775780518252602082019150602081019050602083039250611f52565b6001836020036101000a03801982511681845116808217855250505050505090500182805190602001908083835b602083101515611fca5780518252602082019150602081019050602083039250611fa5565b6001836020036101000a03801982511681845116808217855250505050505090500192505050604051809103902092505050919050565b612009613c2d565b600860008373ffffffffffffffffffffffffffffffffffffffff1673ffffffffffffffffffffffffffffffffffffffff16815260200190815260200160002080548060200260200160405190810160405280929190818152602001828054801561209257602002820191906000526020600020905b81548152602001906001019080831161207e575b50505050509050919050565b60115481565b60035481565b60095481565b600080600080600080600087156120d1576120ca8a611ed8565b9550612137565b896040518082805190602001908083835b60208310151561210757805182526020820191506020810190506020830392506120e2565b6001836020036101000a038019825116818451168082178552505050505050905001915050604051809103902095505b602090505b885163ffffffff168163ffffffff1611151561228a57889250600181018301915081519450886020820363ffffffff1681518110151561217857fe5b9060200101517f010000000000000000000000000000000000000000000000000000000000000090047f01000000000000000000000000000000000000000000000000000000000000000260ff7f010000000000000000000000000000000000000000000000000000000000000002167f01000000000000000000000000000000000000000000000000000000000000009004935060008460ff16111561224e5785856040518083600019166000191681526020018260001916600019168152602001925050506040518091039020955061227f565b8486604051808360001916600019168152602001826000191660001916815260200192505050604051809103902095505b60218101905061213c565b8a600019168660001916149650505050505050949350505050565b6000809054906101000a900473ffffffffffffffffffffffffffffffffffffffff1673ffffffffffffffffffffffffffffffffffffffff163373ffffffffffffffffffffffffffffffffffffffff1614151561230057600080fd5b6000809054906101000a900473ffffffffffffffffffffffffffffffffffffffff1673ffffffffffffffffffffffffffffffffffffffff16ff5b6000806000600160009054906101000a900473ffffffffffffffffffffffffffffffffffffffff1673ffffffffffffffffffffffffffffffffffffffff163373ffffffffffffffffffffffffffffffffffffffff16141580156123ea57506000809054906101000a900473ffffffffffffffffffffffffffffffffffffffff1673ffffffffffffffffffffffffffffffffffffffff163373ffffffffffffffffffffffffffffffffffffffff1614155b156123f457600080fd5b600354431415156124085760006004819055505b600454602001439060020a0291506006600083815260200190815260200160002090506000816002015414151561243e57600080fd5b6000600581111561244b57fe5b8160000160149054906101000a900460ff16600581111561246857fe5b14151561247457600080fd5b818160020181905550848160000160006101000a81548173ffffffffffffffffffffffffffffffffffffffff021916908373ffffffffffffffffffffffffffffffffffffffff16021790555083816001018190555060018160000160146101000a81548160ff021916908360058111156124ea57fe5b0217905550600160045401600481905550600860008673ffffffffffffffffffffffffffffffffffffffff1673ffffffffffffffffffffffffffffffffffffffff168152602001908152602001600020805480600101828161254c9190613c41565b91600052602060002090016000849091909150555081848673ffffffffffffffffffffffffffffffffffffffff167fad40ae5dc69974ba932d08b0a608e89109412d41d04850f5196f144875ae266060405160405180910390a4819250505092915050565b6000806001601c819055506005600087815260200190815260200160002091506002601c819055506125ea8260020154858560006120b0565b9050600015158115151415612606576003601c8190555061260f565b6004601c819055505b505050505050565b6000809054906101000a900473ffffffffffffffffffffffffffffffffffffffff1673ffffffffffffffffffffffffffffffffffffffff163373ffffffffffffffffffffffffffffffffffffffff1614151561267257600080fd5b806000806101000a81548173ffffffffffffffffffffffffffffffffffffffff021916908373ffffffffffffffffffffffffffffffffffffffff16021790555050565b60056020528060005260406000206000915090508060000160009054906101000a900463ffffffff16908060000160049054906101000a900463ffffffff16908060000160089054906101000a900460ff16908060010154908060020154908060030154908060040154905087565b60125481565b60008060009054906101000a900473ffffffffffffffffffffffffffffffffffffffff1673ffffffffffffffffffffffffffffffffffffffff163373ffffffffffffffffffffffffffffffffffffffff1614151561278757600080fd5b8163ffffffff1660028190555060019050919050565b6000809054906101000a900473ffffffffffffffffffffffffffffffffffffffff1673ffffffffffffffffffffffffffffffffffffffff163373ffffffffffffffffffffffffffffffffffffffff161415156127f857600080fd5b80600160006101000a81548173ffffffffffffffffffffffffffffffffffffffff021916908373ffffffffffffffffffffffffffffffffffffffff16021790555050565b600b5481565b60165481565b600760009054906101000a900463ffffffff1681565b601560009054906101000a900460ff1681565b60066020528060005260406000206000915090508060000160009054906101000a900473ffffffffffffffffffffffffffffffffffffffff16908060000160149054906101000a900460ff16908060010154908060020154908060030154905085565b6000806005600089815260200190815260200160002091506128fd8260020154878760006120b0565b9050600015158115151415612919576003601c81905550612a35565b6004601c819055506000601d60008a815260200190815260200160002060008963ffffffff1663ffffffff16815260200190815260200160002060009054906101000a900460ff1660ff16141515612978576005601c81905550612a35565b6006601c819055506001601d60008a815260200190815260200160002060008963ffffffff1663ffffffff16815260200190815260200160002060006101000a81548160ff021916908360ff1602179055508373ffffffffffffffffffffffffffffffffffffffff167fc48cbe3d67d489ace9ddc710ea57995edc519c263a96cff3f72dd309dbc4a700848a8a604051808481526020018381526020018263ffffffff1663ffffffff168152602001935050505060405180910390a25b5050505050505050565b600a5481565b600d5481565b601360019054906101000a900460ff1681565b60145481565b601c5481565b6000809054906101000a900473ffffffffffffffffffffffffffffffffffffffff1681565b600160009054906101000a900473ffffffffffffffffffffffffffffffffffffffff1673ffffffffffffffffffffffffffffffffffffffff1663a9059cbb82601e6040518363ffffffff167c0100000000000000000000000000000000000000000000000000000000028152600401808373ffffffffffffffffffffffffffffffffffffffff1673ffffffffffffffffffffffffffffffffffffffff16815260200182815260200192505050600060405180830381600087803b1515612b5457600080fd5b6102c65a03f11515612b6557600080fd5b50505050565b60175481565b600080600560008981526020019081526020016000209150612b9a8260020154878760006120b0565b9050600015158115151415612bb6576003601c81905550612daa565b6004601c819055506000601d60008a815260200190815260200160002060008963ffffffff1663ffffffff16815260200190815260200160002060009054906101000a900460ff1660ff16141515612c15576005601c81905550612daa565b6001601d60008a815260200190815260200160002060008963ffffffff1663ffffffff16815260200190815260200160002060006101000a81548160ff021916908360ff160217905550600160009054906101000a900473ffffffffffffffffffffffffffffffffffffffff1673ffffffffffffffffffffffffffffffffffffffff1663a9059cbb85856040518363ffffffff167c0100000000000000000000000000000000000000000000000000000000028152600401808373ffffffffffffffffffffffffffffffffffffffff1673ffffffffffffffffffffffffffffffffffffffff16815260200182815260200192505050600060405180830381600087803b1515612d2357600080fd5b6102c65a03f11515612d3457600080fd5b5050506006601c819055508373ffffffffffffffffffffffffffffffffffffffff167fc48cbe3d67d489ace9ddc710ea57995edc519c263a96cff3f72dd309dbc4a700848a8a604051808481526020018381526020018263ffffffff1663ffffffff168152602001935050505060405180910390a25b5050505050505050565b601360009054906101000a900460ff1681565b60416020806004800101010181565b601360029054906101000a900473ffffffffffffffffffffffffffffffffffffffff1681565b600f5481565b60195481565b505050565b601a5481565b60045481565b6000806000806000806000806000806000806000612e35613bc0565b6000809054906101000a900473ffffffffffffffffffffffffffffffffffffffff1673ffffffffffffffffffffffffffffffffffffffff163373ffffffffffffffffffffffffffffffffffffffff16141515612e9057600080fd5b600760009054906101000a900463ffffffff1663ffffffff168f51141515612eb757600080fd5b612ec28f600061369c565b7c010000000000000000000000000000000000000000000000000000000090049c50612eef8f600461369c565b7c010000000000000000000000000000000000000000000000000000000090049b50612f1e8f60048001613790565b9a50612f308f60206004800101613790565b9950612f448f602080600480010101613869565b7f010000000000000000000000000000000000000000000000000000000000000090049850612f7e8f600160208060048001010101613790565b9750612f958f602160208060048001010101613790565b96508c63ffffffff16955060016002540186141515612fb357600080fd5b60006002541415156131c45760056000600254815260200190815260200160002094506040805190810160405280601a81526020017f19457468657265756d205369676e6564204d6573736167653a0a0000000000008152506041602080600480010101016001028660000160009054906101000a900463ffffffff168760000160049054906101000a900463ffffffff16886001015489600201548a60000160089054906101000a900460ff168b600301548c60040154604051808a805190602001908083835b6020831015156130a0578051825260208201915060208101905060208303925061307b565b6001836020036101000a03801982511681845116808217855250505050505090500189600019166000191681526020018863ffffffff1663ffffffff167c01000000000000000000000000000000000000000000000000000000000281526004018763ffffffff1663ffffffff167c0100000000000000000000000000000000000000000000000000000000028152600401866000191660001916815260200185600019166000191681526020018460ff1660ff167f0100000000000000000000000000000000000000000000000000000000000000028152600101836000191660001916815260200182600019166000191681526020019950505050505050505050604051809103902093508a6000191684600019161415156131c357600080fd5b5b6040805190810160405280601a81526020017f19457468657265756d205369676e6564204d6573736167653a0a0000000000008152506020806004800101016001028e8e8e8e6040518087805190602001908083835b60208310151561323f578051825260208201915060208101905060208303925061321a565b6001836020036101000a03801982511681845116808217855250505050505090500186600019166000191681526020018563ffffffff1663ffffffff167c01000000000000000000000000000000000000000000000000000000000281526004018463ffffffff1663ffffffff167c010000000000000000000000000000000000000000000000000000000002815260040183600019166000191681526020018260001916600019168152602001965050505050505060405180910390209250601b8960ff16101561331257601b890198505b6001838a8a8a604051600081526020016040526000604051602001526040518085600019166000191681526020018460ff1660ff16815260200183600019166000191681526020018260001916600019168152602001945050505050602060405160208103908084039060008661646e5a03f1151561339057600080fd5b50506020604051035191506000809054906101000a900473ffffffffffffffffffffffffffffffffffffffff1673ffffffffffffffffffffffffffffffffffffffff168273ffffffffffffffffffffffffffffffffffffffff161415156133f657600080fd5b60e0604051908101604052808e63ffffffff1681526020018d63ffffffff1681526020018a60ff1681526020018c6000191681526020018b60001916815260200189600019168152602001886000191681525090506001600254016002819055508060056000600254815260200190815260200160002060008201518160000160006101000a81548163ffffffff021916908363ffffffff16021790555060208201518160000160046101000a81548163ffffffff021916908363ffffffff16021790555060408201518160000160086101000a81548160ff021916908360ff160217905550606082015181600101906000191690556080820151816002019060001916905560a0820151816003019060001916905560c0820151816004019060001916905590505082600019168d63ffffffff168373ffffffffffffffffffffffffffffffffffffffff167fe38502f63d2cce428e6986acac6919b21e21caeefff626ecea9eae66739faed460405160405180910390a460019d5050505050505050505050505050919050565b600c5481565b600e5481565b6000806000809054906101000a900473ffffffffffffffffffffffffffffffffffffffff1673ffffffffffffffffffffffffffffffffffffffff163373ffffffffffffffffffffffffffffffffffffffff161415156135ee57600080fd5b6006600085815260200190815260200160002090506000600581111561361057fe5b8160000160149054906101000a900460ff16600581111561362d57fe5b141561363857600080fd5b60058360ff16141561366b5760058160000160146101000a81548160ff0219169083600581111561366557fe5b02179055505b600191505092915050565b600160009054906101000a900473ffffffffffffffffffffffffffffffffffffffff1681565b600080600090505b60048110156137895760088102848483018151811015156136c157fe5b9060200101517f010000000000000000000000000000000000000000000000000000000000000090047f0100000000000000000000000000000000000000000000000000000000000000027effffffffffffffffffffffffffffffffffffffffffffffffffffffffffffff191663ff0000007c010000000000000000000000000000000000000000000000000000000002167bffffffffffffffffffffffffffffffffffffffffffffffffffffffff19169060020a90048218915080806001019150506136a4565b5092915050565b600080600090505b60208110156138625760088102848483018151811015156137b557fe5b9060200101517f010000000000000000000000000000000000000000000000000000000000000090047f0100000000000000000000000000000000000000000000000000000000000000027effffffffffffffffffffffffffffffffffffffffffffffffffffffffffffff19167fff0000000000000000000000000000000000000000000000000000000000000060010216600019169060020a9004821891508080600101915050613798565b5092915050565b600080600090505b600181101561393757600881028484830181518110151561388e57fe5b9060200101517f010000000000000000000000000000000000000000000000000000000000000090047f01000000000000000000000000000000000000000000000000000000000000000260ff7f010000000000000000000000000000000000000000000000000000000000000002167effffffffffffffffffffffffffffffffffffffffffffffffffffffffffffff19169060020a9004821891508080600101915050613871565b5092915050565b613946613c19565b6000613950613c19565b600080600060649450846040518059106139675750595b9080825280601f01601f19166020018201604052509350600092505b600087141515613a1a57600a8781151561399957fe5b069150600a878115156139a857fe5b049650816030017f01000000000000000000000000000000000000000000000000000000000000000284848060010195508151811015156139e557fe5b9060200101907effffffffffffffffffffffffffffffffffffffffffffffffffffffffffffff1916908160001a905350613983565b82604051805910613a285750595b9080825280601f01601f19166020018201604052509550600090505b82811015613af55783816001850303815181101515613a5f57fe5b9060200101517f010000000000000000000000000000000000000000000000000000000000000090047f0100000000000000000000000000000000000000000000000000000000000000028682815181101515613ab857fe5b9060200101907effffffffffffffffffffffffffffffffffffffffffffffffffffffffffffff1916908160001a9053508080600101915050613a44565b8595505050505050919050565b613b0a613c19565b6000825184510190506000811415613b2157613bb9565b80604051805910613b2f5750595b9080825280601f01601f19166020018201604052509150600080602084016000613b676020890193506020601f8a5101049150613b8a565b600094506020880193508851602001870192506020601f895101049150613baa90505b818511815760208502808401935080850151845260018601955050613b8a565b60006020870188015250505050505b5092915050565b60e060405190810160405280600063ffffffff168152602001600063ffffffff168152602001600060ff168152602001600080191681526020016000801916815260200160008019168152602001600080191681525090565b602060405190810160405280600081525090565b602060405190810160405280600081525090565b815481835581811511613c6857818360005260206000209182019101613c679190613c6d565b5b505050565b613c8f91905b80821115613c8b576000816000905550600101613c73565b5090565b905600a165627a7a72305820443454fc7b4c48c64369e0d069bb55f2a6b768101d74677c8e7424b245ceb5480029",
  "source": "pragma solidity ^0.4.18;\n\n/* import 'brower/TokenParent'; */\n\ncontract TokenReceiver {\n  function transfer(address _to, uint256 _value);\n}\n\nlibrary Bytes {\n  function concat(bytes memory self, bytes memory bts) internal view returns (bytes memory newBts) {\n    uint totLen = self.length + bts.length;\n    if (totLen == 0)\n      return;\n    newBts = new bytes(totLen);\n    assembly {\n        let i := 0\n        let inOffset := 0\n        let outOffset := add(newBts, 0x20)\n        let words := 0\n        let tag := tag_bts\n      tag_self:\n        inOffset := add(self, 0x20)\n        words := div(add(mload(self), 31), 32)\n        jump(tag_loop)\n      tag_bts:\n        i := 0\n        inOffset := add(bts, 0x20)\n        outOffset := add(newBts, add(0x20, mload(self)))\n        words := div(add(mload(bts), 31), 32)\n        tag := tag_end\n      tag_loop:\n        jumpi(tag, gt(i, words))\n        {\n          let offset := mul(i, 32)\n          outOffset := add(outOffset, offset)\n          mstore(outOffset, mload(add(inOffset, offset)))\n          i := add(i, 1)\n        }\n        jump(tag_loop)\n      tag_end:\n        mstore(add(newBts, add(totLen, 0x20)), 0)\n    }\n  }\n\n  function uintToBytes(uint self) internal pure returns (bytes memory s) {\n    uint maxlength = 100;\n    bytes memory reversed = new bytes(maxlength);\n    uint i = 0;\n    while (self != 0) {\n      uint remainder = self % 10;\n      self = self / 10;\n      reversed[i++] = byte(48 + remainder);\n    }\n    s = new bytes(i);\n    for (uint j = 0; j < i; j++) {\n      s[j] = reversed[i - 1 - j];\n    }\n    return s;\n  }\n}\n\ncontract PlasmaParent {\n\n  // The owner\n  address public owner;\n\n  // TokenParent Contract Address\n  address public token;\n\n\n  // Modifiers: only owner\n  modifier onlyOwner {\n    if (msg.sender != owner) revert();\n    _;\n  }\n  // Modifiers: only token\n  modifier onlyToken {\n    if (msg.sender != token) revert();\n    _;\n  }\n\n  // Modifiers: only token\n  modifier onlyTokenOrOwner {\n    if (msg.sender != token && msg.sender != owner) revert();\n    _;\n  }\n\n  // Constructor\n  function PlasmaParent() public {\n    owner = msg.sender;\n  }\n\n  // set token address\n  function setTokenAddrss(address _address) public onlyOwner {\n    token = _address;\n  }\n\n  // change ownerheaders\n  function transferOwner(address _address) public onlyOwner {\n    owner = _address;\n  }\n\n  // kill contract itself\n  function kill() onlyOwner public {\n      selfdestruct(owner);\n  }\n\n  // fallback for ether\n  function() payable public {\n    revert();\n  }\n\n  //\n  // for ( kind of like ) Plasma\n  //\n\n  // library\n  using Bytes for *;\n\n  // variables\n  uint256 public lastBlockNumber = 0;\n  uint256 public lastEthBlockNumber = block.number;\n  uint256 public depositCounterInBlock = 0;\n\n  // A list of Plasma blocks\n  struct Header {\n      uint32 blockNumber;\n      uint32 numTransactions;\n      uint8 v;\n      bytes32 previousBlockHash;\n      bytes32 merkleRootHash;\n      bytes32 r;\n      bytes32 s;\n  }\n  mapping (uint256 => Header) public headers;\n\n  mapping (uint256 => DepositRecord) public depositRecords;\n  uint32 public blockHeaderLength = 137;\n\n  uint256 constant SignatureLength = 65;\n  uint256 constant BlockNumberLength = 4;\n  uint256 constant TxNumberLength = 4;\n  /* uint256 constant TxTypeLength = 1; */\n  /* uint256 constant TxOutputNumberLength = 1; */\n  uint256 constant PreviousHashLength = 32;\n  uint256 constant MerkleRootHashLength = 32;\n  /* uint256 constant TxAmountLength = 32; */\n  bytes constant PersonalMessagePrefixBytes = \"\\x19Ethereum Signed Message:\\n\";\n  uint256 constant public PreviousBlockPersonalHashLength = BlockNumberLength +\n                                                TxNumberLength +\n                                                PreviousHashLength +\n                                                MerkleRootHashLength +\n                                                SignatureLength;\n  uint256 constant NewBlockPersonalHashLength = BlockNumberLength +\n                                                      TxNumberLength +\n                                                      PreviousHashLength +\n                                                      MerkleRootHashLength;\n\n  mapping (address => uint256[]) userDepositRecords;\n\n  enum DepositStatus {\n      NoRecord,\n      Deposited,\n      WithdrawStarted,\n      WithdrawChallenged,\n      WithdrawCompleted,\n      DepositConfirmed\n  }\n\n  struct DepositRecord {\n    address from;\n    DepositStatus status;\n    uint256 amount;\n    uint256 index;\n    uint256 withdrawStartedTime;\n  }\n\n  //\n  // convenient helper functions\n  //\n  function extract32(bytes data, uint pos) pure internal returns (bytes32 result) {\n    for (uint256 i = 0; i < 32; i++) {\n      result ^= (bytes32(0xff00000000000000000000000000000000000000000000000000000000000000)&data[i+pos])>>(i*8);\n    }\n  }\n\n  function extract20(bytes data, uint pos) pure internal returns (bytes20 result) {\n    for (uint256 i = 0; i < 20; i++) {\n      result ^= (bytes20(0xff00000000000000000000000000000000000000)&data[i+pos])>>(i*8);\n    }\n  }\n\n  function extract4(bytes data, uint pos) pure internal returns (bytes4 result) {\n    for (uint256 i = 0; i < 4; i++) {\n      result ^= (bytes4(0xff000000)&data[i+pos])>>(i*8);\n    }\n  }\n\n  function extract2(bytes data, uint pos) pure internal returns (bytes2  result) {\n    for (uint256 i = 0; i < 2; i++) {\n      result ^= (bytes2(0xff00)&data[i+pos])>>(i*8);\n    }\n  }\n\n  function extract1(bytes data, uint pos) pure internal returns (bytes1  result) {\n    for (uint256 i = 0; i < 1; i++) {\n      result ^= (bytes1(0xff)&data[i+pos])>>(i*8);\n    }\n  }\n\n  //\n  // events\n  //\n\n  // when block header submitted\n  event HeaderSubmittedEvent(address indexed _signer, uint32 indexed _blockNumber, bytes32 indexed _blockHash);\n  // when someone deposit\n  event DepositEvent(address indexed _from, uint256 indexed _amount, uint256 indexed _depositIndex);\n\n  // debug fucntion\n  function updateLastBlockNumber(uint32 _blockNumber) public onlyOwner returns (bool success) {\n    lastBlockNumber = uint256(uint32(_blockNumber));\n    return true;\n  }\n\n  //\n  // submit plasma block header\n  //\n\n  bytes32 public previousHash0;\n  bytes32 public previousHash1;\n  bytes32 public previousHash2;\n  bytes32 public previousHash3;\n  bytes32 public previousHash4;\n  bytes32 public previousHash5;\n  bytes32 public previousHash6;\n  bytes32 public previousHash7;\n  bytes32 public previousHash8;\n\n  uint256 public submitBlock3_1;\n  uint8 public submitBlock3_2;\n  uint8 public submitBlock3_3;\n  address public submitBlock3_4;\n  bytes32 public submitBlock3_5;\n  uint8 public submitBlock3_6;\n\n  bytes32 public newBlockHash0;\n  bytes32 public newBlockHash1;\n  bytes32 public newBlockHash2;\n  bytes32 public newBlockHash3;\n  bytes32 public newBlockHash4;\n  bytes32 public newBlockHash5;\n\n\n  // submit plasma block header\n  function submitBlock(bytes header) public onlyOwner returns (bool success) {\n\n      if (header.length != blockHeaderLength) {\n        revert();\n      }\n\n      uint32 blockNumber = uint32(extract4(header, 0));\n      uint32 numTransactions = uint32(extract4(header, BlockNumberLength));\n      bytes32 previousBlockHash = extract32(header, BlockNumberLength + TxNumberLength);\n      bytes32 merkleRootHash = extract32(header, BlockNumberLength + TxNumberLength + PreviousHashLength);\n      uint8 v = uint8(extract1(header, BlockNumberLength + TxNumberLength + PreviousHashLength + MerkleRootHashLength));\n      bytes32 r = extract32(header, BlockNumberLength + TxNumberLength + PreviousHashLength + MerkleRootHashLength + 1);\n      bytes32 s = extract32(header, BlockNumberLength + TxNumberLength + PreviousHashLength + MerkleRootHashLength + 33);\n      uint256 newBlockNumber = uint256(uint32(blockNumber));\n\n      if (newBlockNumber != lastBlockNumber+1) {\n        revert();\n      }\n\n      if (lastBlockNumber != 0) {\n          Header storage previousHeader = headers[lastBlockNumber];\n          bytes32 previousHash = keccak256(PersonalMessagePrefixBytes, bytes32(PreviousBlockPersonalHashLength), previousHeader.blockNumber, previousHeader.numTransactions, previousHeader.previousBlockHash, previousHeader.merkleRootHash, previousHeader.v, previousHeader.r, previousHeader.s);\n\n          if (previousHash != previousBlockHash) {\n            revert();\n          }\n      }\n\n      bytes32 newBlockHash = keccak256(PersonalMessagePrefixBytes, bytes32(NewBlockPersonalHashLength), blockNumber, numTransactions, previousBlockHash, merkleRootHash);\n\n      if (v < 27) {\n          v = v+27;\n      }\n      address signer = ecrecover(newBlockHash, v, r, s);\n      if (signer != owner ) {\n        revert();\n      }\n\n      Header memory newHeader = Header({\n          blockNumber: blockNumber,\n          numTransactions: numTransactions,\n          previousBlockHash: previousBlockHash,\n          merkleRootHash: merkleRootHash,\n          v: v,\n          r: r,\n          s: s\n      });\n      lastBlockNumber = lastBlockNumber+1;\n      headers[lastBlockNumber] = newHeader;\n      HeaderSubmittedEvent(signer, blockNumber, newBlockHash);\n      return true;\n  }\n\n\n\n\n  function submitBlock3(bytes header) public onlyOwner returns (bool success) {\n      /* require(operators[msg.sender]); */\n      /* require(header.length == blockHeaderLength); */\n\n      submitBlock3_1 = 0;\n      submitBlock3_3 = 0;\n      submitBlock3_4 = 0;\n      submitBlock3_6 = 0;\n\n      if (header.length != blockHeaderLength) {\n        submitBlock3_1 = header.length;\n        return true;\n      }\n      submitBlock3_1 = 9;\n\n      uint32 blockNumber = uint32(extract4(header, 0));\n      uint32 numTransactions = uint32(extract4(header, BlockNumberLength));\n      bytes32 previousBlockHash = extract32(header, BlockNumberLength + TxNumberLength);\n      bytes32 merkleRootHash = extract32(header, BlockNumberLength + TxNumberLength + PreviousHashLength);\n      uint8 v = uint8(extract1(header, BlockNumberLength + TxNumberLength + PreviousHashLength + MerkleRootHashLength));\n      bytes32 r = extract32(header, BlockNumberLength + TxNumberLength + PreviousHashLength + MerkleRootHashLength + 1);\n      bytes32 s = extract32(header, BlockNumberLength + TxNumberLength + PreviousHashLength + MerkleRootHashLength + 33);\n      uint256 newBlockNumber = uint256(uint32(blockNumber));\n\n      /* require(newBlockNumber == lastBlockNumber+1); */\n      if (newBlockNumber != lastBlockNumber+1) {\n        submitBlock3_2 = 5;\n        return true;\n      }\n      submitBlock3_2 = 9;\n\n      if (lastBlockNumber != 0) {\n          Header storage previousHeader = headers[lastBlockNumber];\n          bytes32 previousHash = keccak256(PersonalMessagePrefixBytes, bytes32(PreviousBlockPersonalHashLength), previousHeader.blockNumber, previousHeader.numTransactions, previousHeader.previousBlockHash, previousHeader.merkleRootHash, previousHeader.v, previousHeader.r, previousHeader.s);\n          /* bytes32 previousHash = keccak256(PersonalMessagePrefixBytes, PreviousBlockPersonalHashLength, previousHeader.blockNumber, previousHeader.numTransactions, previousHeader.previousBlockHash, previousHeader.merkleRootHash,previousHeader.v, previousHeader.r,previousHeader.s); */\n\n          // require(previousHash == previousBlockHash);\n          if (previousHash != previousBlockHash) {\n            submitBlock3_3 = uint8(PreviousBlockPersonalHashLength);\n            previousHash1 = previousHash;\n            return true;\n          }\n          submitBlock3_3 = 9;\n      }\n\n      bytes32 newBlockHash = keccak256(PersonalMessagePrefixBytes, bytes32(NewBlockPersonalHashLength), blockNumber, numTransactions, previousBlockHash, merkleRootHash);\n      /* bytes32 newBlockHash = keccak256(blockNumber, numTransactions, previousBlockHash, merkleRootHash); */\n      /* bytes32 newBlockHash = keccak256(merkleRootHash); */\n\n      newBlockHash0 = newBlockHash;\n\n      newBlockHash1 = keccak256(PersonalMessagePrefixBytes);\n      newBlockHash2 = keccak256(PersonalMessagePrefixBytes, bytes32(NewBlockPersonalHashLength));\n      newBlockHash3 = keccak256(PersonalMessagePrefixBytes, bytes32(NewBlockPersonalHashLength), blockNumber);\n      newBlockHash4 = keccak256(PersonalMessagePrefixBytes, bytes32(NewBlockPersonalHashLength), blockNumber, numTransactions);\n      newBlockHash5 = keccak256(PersonalMessagePrefixBytes, bytes32(NewBlockPersonalHashLength), blockNumber, numTransactions, previousBlockHash);\n\n      if (v < 27) {\n          v = v+27;\n      }\n      address signer = ecrecover(newBlockHash, v, r, s);\n      /* require(operators[signer]); */\n      // if( signer != ownerAddress ) revert();\n      if (signer != owner ) {\n        submitBlock3_4 = signer;\n        submitBlock3_5 = newBlockHash;\n        return true;\n      }\n\n      submitBlock3_6 = 9;\n\n      Header memory newHeader = Header({\n          blockNumber: blockNumber,\n          numTransactions: numTransactions,\n          previousBlockHash: previousBlockHash,\n          merkleRootHash: merkleRootHash,\n          v: v,\n          r: r,\n          s: s\n      });\n      lastBlockNumber = lastBlockNumber+1;\n      headers[lastBlockNumber] = newHeader;\n      HeaderSubmittedEvent(signer, blockNumber, newBlockHash);\n      return true;\n  }\n\n\n  // function deposit(uint256 _amount) public returns (uint256 idx1, uint256 idx2, uint256 idx3) public onlyToken {\n  /* function deposit(address _address, uint256 _amount) public returns (uint256 idx1, uint256 idx2, uint256 idx3) { */\n  function deposit(address _address, uint256 _amount) public onlyTokenOrOwner returns (uint256 idx) {\n    // lastEthBlockNumber is not updatede at all...\n    // depositCounterInBlock may not be used yet...\n    if (block.number != lastEthBlockNumber) {\n        depositCounterInBlock = 0;\n    }\n\n    // seems to generate unique depositIndex\n    uint256 depositIndex = block.number << 32 + depositCounterInBlock;\n\n    // then create new DepositRecord object\n    DepositRecord storage record = depositRecords[depositIndex];\n    require(record.index == 0);\n    require(record.status == DepositStatus.NoRecord);\n\n    record.index = depositIndex;\n    record.from = _address;\n    record.amount = _amount;\n    record.status = DepositStatus.Deposited;\n    depositCounterInBlock = depositCounterInBlock + 1;\n    userDepositRecords[_address].push(depositIndex);\n\n    /* DepositEvent(msg.sender, msg.value, depositIndex); */\n    DepositEvent(_address, _amount, depositIndex);\n    return (depositIndex);\n  }\n\n  function updateDepositRecord(uint256 _depositIndex, uint8 _status) public onlyOwner returns (bool success) {\n    DepositRecord storage record = depositRecords[_depositIndex];\n    if (record.status == DepositStatus.NoRecord) revert();\n\n    if (_status == 5) {\n      record.status = DepositStatus.DepositConfirmed;\n    }\n\n    return true;\n  }\n\n  // helper function for debug\n  function depositRecordsForUser(address _user) public view returns (uint256[]) {\n      return userDepositRecords[_user];\n  }\n\n\n\n  function createPersonalMessageTypeHash(bytes memory message) public view returns (bytes32 msgHash) {\n      // bytes memory prefixBytes = \"\\x19Ethereum Signed Message:\\n\";\n      bytes memory lengthBytes = message.length.uintToBytes();\n      // bytes memory prefix = prefixBytes.concat(lengthBytes);\n      bytes memory prefix = PersonalMessagePrefixBytes.concat(lengthBytes);\n      return keccak256(prefix, message);\n  }\n\n\n  function checkProof(\n    bytes32 root,\n    bytes data,\n    bytes proof,\n    bool convertToMessageHash) view public returns (bool) {\n\n    bytes32 h;\n    if (convertToMessageHash) {\n      h = createPersonalMessageTypeHash(data);\n    } else {\n      h = keccak256(data);\n    }\n\n    bytes32 elProvided;\n    uint8 rightElementProvided;\n    uint32 loc;\n    uint32 elLoc;\n\n    for (uint32 i = 32; i <= uint32(proof.length); i += 33) {\n      assembly {\n        loc  := proof\n        elLoc := add(loc, add(i, 1))\n        elProvided := mload(elLoc)\n      }\n      rightElementProvided = uint8(bytes1(0xff)&proof[i-32]);\n      if (rightElementProvided > 0) {\n        h = keccak256(h, elProvided);\n      } else {\n        h = keccak256(elProvided, h);\n      }\n    }\n    return h == root;\n  }\n\n  uint public cp_text = 0;\n\n  // working!!!\n  function checkProofText2(uint256 _bn, uint32 _txIdx, bytes _rawTx, bytes _proof) {\n\n    cp_text = 1;\n\n    Header header = headers[_bn];\n\n    cp_text = 2;\n\n    bool validProof = checkProof(header.merkleRootHash, _rawTx, _proof, false);\n    if ( validProof == false ) {\n      cp_text = 3;\n      return;\n    }\n    cp_text = 4;\n  }\n\n\n  mapping (uint256 => mapping(uint32 => uint8) ) public exitRecords;\n\n  // exit success\n  event ExitFromChildEvent(address indexed _address, uint256 _amount, uint256 _bn, uint32 _txIdx);\n\n  // move token after check\n  function exitFromChild(\n    uint256 _bn,\n    uint32 _txIdx,\n    bytes _rawTx,\n    bytes _proof,\n    address _address,\n    uint256 _value\n    ) {\n      // check proof\n      Header header = headers[_bn];\n      bool validProof = checkProof(header.merkleRootHash, _rawTx, _proof, false);\n      if ( validProof == false ) {\n        cp_text = 3;\n        return;\n      }\n      cp_text = 4;\n\n      if ( exitRecords[_bn][_txIdx] != 0 ) {\n        cp_text = 5;\n        return;\n      }\n\n      cp_text = 6;\n\n      exitRecords[_bn][_txIdx] = 1;\n      // TokenReceiver(token).transfer(_address, _value);\n      /* token.transfer(_address, _value); */\n\n      ExitFromChildEvent( _address, _value, _bn, _txIdx );\n  }\n\n  // move token after check\n  function exitFromChild2(\n    uint256 _bn,\n    uint32 _txIdx,\n    bytes _rawTx,\n    bytes _proof,\n    address _address,\n    uint256 _value\n    ) {\n      // check proof\n      Header header = headers[_bn];\n      bool validProof = checkProof(header.merkleRootHash, _rawTx, _proof, false);\n      if ( validProof == false ) {\n        cp_text = 3;\n        return;\n      }\n      cp_text = 4;\n\n      if ( exitRecords[_bn][_txIdx] != 0 ) {\n        cp_text = 5;\n        return;\n      }\n\n      exitRecords[_bn][_txIdx] = 1;\n      TokenReceiver(token).transfer(_address, _value);\n      /* token.transfer(_address, _value); */\n\n      cp_text = 6;\n\n      ExitFromChildEvent( _address, _value, _bn, _txIdx );\n  }\n\n  function dummy_transfer(address _address) {\n    TokenReceiver(token).transfer(_address, 30);\n  }\n\n  function tokenFallback(address _from, uint256 _value, bytes _data){\n\n  }\n\n}\n",
  "sourcePath": "/Users/kouohhashi/Desktop/eth_project/credit_hydra/smart_contracts/contracts/PlasmaParent.sol",
  "compiler": {
    "name": "solc",
    "version": "0.4.18+commit.9cf6e910.Emscripten.clang"
  },
  "schemaVersion": "1.0.1",
  "updatedAt": "2018-02-28T18:35:09.330Z"
}