{
  "contractName": "TokenParent",
  "abi": [
    {
      "constant": false,
      "inputs": [
        {
          "name": "_newSellPrice",
          "type": "uint256"
        },
        {
          "name": "_newBuyPrice",
          "type": "uint256"
        }
      ],
      "name": "setPrices",
      "outputs": [],
      "payable": false,
      "stateMutability": "nonpayable",
      "type": "function"
    },
    {
      "constant": true,
      "inputs": [],
      "name": "name",
      "outputs": [
        {
          "name": "",
          "type": "string"
        }
      ],
      "payable": false,
      "stateMutability": "view",
      "type": "function"
    },
    {
      "constant": false,
      "inputs": [
        {
          "name": "_spender",
          "type": "address"
        },
        {
          "name": "_value",
          "type": "uint256"
        }
      ],
      "name": "approve",
      "outputs": [
        {
          "name": "success",
          "type": "bool"
        }
      ],
      "payable": false,
      "stateMutability": "nonpayable",
      "type": "function"
    },
    {
      "constant": true,
      "inputs": [],
      "name": "totalSupply",
      "outputs": [
        {
          "name": "",
          "type": "uint256"
        }
      ],
      "payable": false,
      "stateMutability": "view",
      "type": "function"
    },
    {
      "constant": false,
      "inputs": [
        {
          "name": "_owner",
          "type": "address"
        },
        {
          "name": "_to",
          "type": "address"
        },
        {
          "name": "_value",
          "type": "uint256"
        }
      ],
      "name": "transferFrom",
      "outputs": [
        {
          "name": "success",
          "type": "bool"
        }
      ],
      "payable": false,
      "stateMutability": "nonpayable",
      "type": "function"
    },
    {
      "constant": true,
      "inputs": [
        {
          "name": "",
          "type": "address"
        }
      ],
      "name": "balances",
      "outputs": [
        {
          "name": "",
          "type": "uint256"
        }
      ],
      "payable": false,
      "stateMutability": "view",
      "type": "function"
    },
    {
      "constant": true,
      "inputs": [],
      "name": "decimals",
      "outputs": [
        {
          "name": "",
          "type": "uint8"
        }
      ],
      "payable": false,
      "stateMutability": "view",
      "type": "function"
    },
    {
      "constant": true,
      "inputs": [],
      "name": "onSale",
      "outputs": [
        {
          "name": "",
          "type": "bool"
        }
      ],
      "payable": false,
      "stateMutability": "view",
      "type": "function"
    },
    {
      "constant": false,
      "inputs": [],
      "name": "kill",
      "outputs": [],
      "payable": false,
      "stateMutability": "nonpayable",
      "type": "function"
    },
    {
      "constant": false,
      "inputs": [
        {
          "name": "_onSale",
          "type": "bool"
        }
      ],
      "name": "updateSaleState",
      "outputs": [
        {
          "name": "success",
          "type": "bool"
        }
      ],
      "payable": false,
      "stateMutability": "nonpayable",
      "type": "function"
    },
    {
      "constant": false,
      "inputs": [
        {
          "name": "_to",
          "type": "address"
        },
        {
          "name": "_value",
          "type": "uint256"
        }
      ],
      "name": "deposit",
      "outputs": [
        {
          "name": "success",
          "type": "bool"
        }
      ],
      "payable": false,
      "stateMutability": "nonpayable",
      "type": "function"
    },
    {
      "constant": true,
      "inputs": [],
      "name": "sellPrice",
      "outputs": [
        {
          "name": "",
          "type": "uint256"
        }
      ],
      "payable": false,
      "stateMutability": "view",
      "type": "function"
    },
    {
      "constant": true,
      "inputs": [],
      "name": "version",
      "outputs": [
        {
          "name": "",
          "type": "string"
        }
      ],
      "payable": false,
      "stateMutability": "view",
      "type": "function"
    },
    {
      "constant": true,
      "inputs": [
        {
          "name": "",
          "type": "address"
        },
        {
          "name": "",
          "type": "address"
        }
      ],
      "name": "allowances",
      "outputs": [
        {
          "name": "",
          "type": "uint256"
        }
      ],
      "payable": false,
      "stateMutability": "view",
      "type": "function"
    },
    {
      "constant": false,
      "inputs": [
        {
          "name": "_plasma",
          "type": "address"
        },
        {
          "name": "_to",
          "type": "address"
        },
        {
          "name": "_value",
          "type": "uint256"
        },
        {
          "name": "_depositIndex",
          "type": "uint256"
        }
      ],
      "name": "exitFromPlasma",
      "outputs": [
        {
          "name": "success",
          "type": "bool"
        }
      ],
      "payable": false,
      "stateMutability": "nonpayable",
      "type": "function"
    },
    {
      "constant": true,
      "inputs": [
        {
          "name": "_address",
          "type": "address"
        }
      ],
      "name": "balanceOf",
      "outputs": [
        {
          "name": "balance",
          "type": "uint256"
        }
      ],
      "payable": false,
      "stateMutability": "view",
      "type": "function"
    },
    {
      "constant": true,
      "inputs": [],
      "name": "buyPrice",
      "outputs": [
        {
          "name": "",
          "type": "uint256"
        }
      ],
      "payable": false,
      "stateMutability": "view",
      "type": "function"
    },
    {
      "constant": true,
      "inputs": [],
      "name": "symbol",
      "outputs": [
        {
          "name": "",
          "type": "string"
        }
      ],
      "payable": false,
      "stateMutability": "view",
      "type": "function"
    },
    {
      "constant": false,
      "inputs": [
        {
          "name": "_amountToMint",
          "type": "uint256"
        }
      ],
      "name": "mint",
      "outputs": [],
      "payable": false,
      "stateMutability": "nonpayable",
      "type": "function"
    },
    {
      "constant": false,
      "inputs": [],
      "name": "buy",
      "outputs": [
        {
          "name": "amount",
          "type": "uint256"
        }
      ],
      "payable": true,
      "stateMutability": "payable",
      "type": "function"
    },
    {
      "constant": false,
      "inputs": [
        {
          "name": "_to",
          "type": "address"
        },
        {
          "name": "_value",
          "type": "uint256"
        }
      ],
      "name": "transfer",
      "outputs": [
        {
          "name": "success",
          "type": "bool"
        }
      ],
      "payable": false,
      "stateMutability": "nonpayable",
      "type": "function"
    },
    {
      "constant": false,
      "inputs": [
        {
          "name": "_to",
          "type": "address"
        },
        {
          "name": "_value",
          "type": "uint256"
        },
        {
          "name": "_data",
          "type": "bytes"
        }
      ],
      "name": "transfer",
      "outputs": [
        {
          "name": "success",
          "type": "bool"
        }
      ],
      "payable": false,
      "stateMutability": "nonpayable",
      "type": "function"
    },
    {
      "constant": true,
      "inputs": [],
      "name": "centralMinter",
      "outputs": [
        {
          "name": "",
          "type": "address"
        }
      ],
      "payable": false,
      "stateMutability": "view",
      "type": "function"
    },
    {
      "constant": true,
      "inputs": [
        {
          "name": "_owner",
          "type": "address"
        },
        {
          "name": "_spender",
          "type": "address"
        }
      ],
      "name": "allowance",
      "outputs": [
        {
          "name": "remaining",
          "type": "uint256"
        }
      ],
      "payable": false,
      "stateMutability": "view",
      "type": "function"
    },
    {
      "constant": false,
      "inputs": [
        {
          "name": "_amount",
          "type": "uint256"
        }
      ],
      "name": "sell",
      "outputs": [
        {
          "name": "revenue",
          "type": "uint256"
        }
      ],
      "payable": false,
      "stateMutability": "nonpayable",
      "type": "function"
    },
    {
      "constant": false,
      "inputs": [
        {
          "name": "_newMinter",
          "type": "address"
        }
      ],
      "name": "transferMinter",
      "outputs": [],
      "payable": false,
      "stateMutability": "nonpayable",
      "type": "function"
    },
    {
      "inputs": [],
      "payable": false,
      "stateMutability": "nonpayable",
      "type": "constructor"
    },
    {
      "payable": true,
      "stateMutability": "payable",
      "type": "fallback"
    },
    {
      "anonymous": false,
      "inputs": [
        {
          "indexed": true,
          "name": "_from",
          "type": "address"
        },
        {
          "indexed": true,
          "name": "_to",
          "type": "address"
        },
        {
          "indexed": false,
          "name": "_value",
          "type": "uint256"
        },
        {
          "indexed": false,
          "name": "_data",
          "type": "bytes"
        }
      ],
      "name": "Transfer",
      "type": "event"
    },
    {
      "anonymous": false,
      "inputs": [
        {
          "indexed": true,
          "name": "_owner",
          "type": "address"
        },
        {
          "indexed": true,
          "name": "_spender",
          "type": "address"
        },
        {
          "indexed": false,
          "name": "_value",
          "type": "uint256"
        }
      ],
      "name": "Approval",
      "type": "event"
    },
    {
      "anonymous": false,
      "inputs": [
        {
          "indexed": true,
          "name": "_from",
          "type": "address"
        },
        {
          "indexed": true,
          "name": "_amount",
          "type": "uint256"
        },
        {
          "indexed": true,
          "name": "_depositIndex",
          "type": "uint256"
        }
      ],
      "name": "DepositEvent",
      "type": "event"
    }
  ],
  "bytecode": "0x606060405234156200001057600080fd5b6414f46b04006000803373ffffffffffffffffffffffffffffffffffffffff1673ffffffffffffffffffffffffffffffffffffffff168152602001908152602001600020819055506414f46b04006002819055506040805190810160405280601381526020017f4879647261204d61696e6e657420546f6b656e0000000000000000000000000081525060039080519060200190620000b1929190620001e6565b506012600460006101000a81548160ff021916908360ff1602179055506040805190810160405280600381526020017f4859440000000000000000000000000000000000000000000000000000000000815250600590805190602001906200011b929190620001e6565b506040805190810160405280600381526020017f302e3100000000000000000000000000000000000000000000000000000000008152506006908051906020019062000169929190620001e6565b5033600760006101000a81548173ffffffffffffffffffffffffffffffffffffffff021916908373ffffffffffffffffffffffffffffffffffffffff160217905550655af3107a40006008819055506551dac207a0006009819055506000600760146101000a81548160ff02191690831515021790555062000295565b828054600181600116156101000203166002900490600052602060002090601f016020900481019282601f106200022957805160ff19168380011785556200025a565b828001600101855582156200025a579182015b82811115620002595782518255916020019190600101906200023c565b5b5090506200026991906200026d565b5090565b6200029291905b808211156200028e57600081600090555060010162000274565b5090565b90565b61241780620002a56000396000f300606060405260043610610154576000357c0100000000000000000000000000000000000000000000000000000000900463ffffffff16806305fefda71461015957806306fdde0314610185578063095ea7b31461021357806318160ddd1461026d57806323b872dd1461029657806327e235e31461030f578063313ce5671461035c578063326687b91461038b57806341c0e1b5146103b857806345374c4e146103cd57806347e7ef241461040a5780634b7503341461046457806354fd4d501461048d57806355b6ed5c1461051b5780636e2231391461058757806370a08231146106095780638620410b1461065657806395d89b411461067f578063a0712d681461070d578063a6f2ae3a14610730578063a9059cbb1461074e578063be45fd62146107a8578063d9f0187814610845578063dd62ed3e1461089a578063e4849b3214610906578063fe99ad5a1461093d575b600080fd5b341561016457600080fd5b6101836004808035906020019091908035906020019091905050610976565b005b341561019057600080fd5b6101986109e4565b6040518080602001828103825283818151815260200191508051906020019080838360005b838110156101d85780820151818401526020810190506101bd565b50505050905090810190601f1680156102055780820380516001836020036101000a031916815260200191505b509250505060405180910390f35b341561021e57600080fd5b610253600480803573ffffffffffffffffffffffffffffffffffffffff16906020019091908035906020019091905050610a82565b604051808215151515815260200191505060405180910390f35b341561027857600080fd5b610280610b74565b6040518082815260200191505060405180910390f35b34156102a157600080fd5b6102f5600480803573ffffffffffffffffffffffffffffffffffffffff1690602001909190803573ffffffffffffffffffffffffffffffffffffffff16906020019091908035906020019091905050610b7a565b604051808215151515815260200191505060405180910390f35b341561031a57600080fd5b610346600480803573ffffffffffffffffffffffffffffffffffffffff16906020019091905050610ea6565b6040518082815260200191505060405180910390f35b341561036757600080fd5b61036f610ebe565b604051808260ff1660ff16815260200191505060405180910390f35b341561039657600080fd5b61039e610ed1565b604051808215151515815260200191505060405180910390f35b34156103c357600080fd5b6103cb610ee4565b005b34156103d857600080fd5b6103f060048080351515906020019091905050610f7b565b604051808215151515815260200191505060405180910390f35b341561041557600080fd5b61044a600480803573ffffffffffffffffffffffffffffffffffffffff16906020019091908035906020019091905050610ffc565b604051808215151515815260200191505060405180910390f35b341561046f57600080fd5b610477611329565b6040518082815260200191505060405180910390f35b341561049857600080fd5b6104a061132f565b6040518080602001828103825283818151815260200191508051906020019080838360005b838110156104e05780820151818401526020810190506104c5565b50505050905090810190601f16801561050d5780820380516001836020036101000a031916815260200191505b509250505060405180910390f35b341561052657600080fd5b610571600480803573ffffffffffffffffffffffffffffffffffffffff1690602001909190803573ffffffffffffffffffffffffffffffffffffffff169060200190919050506113cd565b6040518082815260200191505060405180910390f35b341561059257600080fd5b6105ef600480803573ffffffffffffffffffffffffffffffffffffffff1690602001909190803573ffffffffffffffffffffffffffffffffffffffff169060200190919080359060200190919080359060200190919050506113f2565b604051808215151515815260200191505060405180910390f35b341561061457600080fd5b610640600480803573ffffffffffffffffffffffffffffffffffffffff16906020019091905050611643565b6040518082815260200191505060405180910390f35b341561066157600080fd5b61066961168b565b6040518082815260200191505060405180910390f35b341561068a57600080fd5b610692611691565b6040518080602001828103825283818151815260200191508051906020019080838360005b838110156106d25780820151818401526020810190506106b7565b50505050905090810190601f1680156106ff5780820380516001836020036101000a031916815260200191505b509250505060405180910390f35b341561071857600080fd5b61072e600480803590602001909190505061172f565b005b6107386118cc565b6040518082815260200191505060405180910390f35b341561075957600080fd5b61078e600480803573ffffffffffffffffffffffffffffffffffffffff16906020019091908035906020019091905050611acb565b604051808215151515815260200191505060405180910390f35b34156107b357600080fd5b61082b600480803573ffffffffffffffffffffffffffffffffffffffff1690602001909190803590602001909190803590602001908201803590602001908080601f01602080910402602001604051908101604052809392919081815260200183838082843782019150505050505091905050611af0565b604051808215151515815260200191505060405180910390f35b341561085057600080fd5b610858612064565b604051808273ffffffffffffffffffffffffffffffffffffffff1673ffffffffffffffffffffffffffffffffffffffff16815260200191505060405180910390f35b34156108a557600080fd5b6108f0600480803573ffffffffffffffffffffffffffffffffffffffff1690602001909190803573ffffffffffffffffffffffffffffffffffffffff1690602001909190505061208a565b6040518082815260200191505060405180910390f35b341561091157600080fd5b6109276004808035906020019091905050612111565b6040518082815260200191505060405180910390f35b341561094857600080fd5b610974600480803573ffffffffffffffffffffffffffffffffffffffff16906020019091905050612327565b005b600760009054906101000a900473ffffffffffffffffffffffffffffffffffffffff1673ffffffffffffffffffffffffffffffffffffffff163373ffffffffffffffffffffffffffffffffffffffff161415156109d257600080fd5b81600981905550806008819055505050565b60038054600181600116156101000203166002900480601f016020809104026020016040519081016040528092919081815260200182805460018160011615610100020316600290048015610a7a5780601f10610a4f57610100808354040283529160200191610a7a565b820191906000526020600020905b815481529060010190602001808311610a5d57829003601f168201915b505050505081565b600081600160003373ffffffffffffffffffffffffffffffffffffffff1673ffffffffffffffffffffffffffffffffffffffff16815260200190815260200160002060008573ffffffffffffffffffffffffffffffffffffffff1673ffffffffffffffffffffffffffffffffffffffff168152602001908152602001600020819055508273ffffffffffffffffffffffffffffffffffffffff163373ffffffffffffffffffffffffffffffffffffffff167f8c5be1e5ebec7d5bd14f71427d1e84f3dd0314c0f7b2291e5b200ac8c7c3b925846040518082815260200191505060405180910390a36001905092915050565b60025481565b6000816000808673ffffffffffffffffffffffffffffffffffffffff1673ffffffffffffffffffffffffffffffffffffffff168152602001908152602001600020541015610bc757600080fd5b6000808473ffffffffffffffffffffffffffffffffffffffff1673ffffffffffffffffffffffffffffffffffffffff16815260200190815260200160002054826000808673ffffffffffffffffffffffffffffffffffffffff1673ffffffffffffffffffffffffffffffffffffffff16815260200190815260200160002054011015610c5257600080fd5b81600160008673ffffffffffffffffffffffffffffffffffffffff1673ffffffffffffffffffffffffffffffffffffffff16815260200190815260200160002060003373ffffffffffffffffffffffffffffffffffffffff1673ffffffffffffffffffffffffffffffffffffffff168152602001908152602001600020541015610cdb57600080fd5b816000808673ffffffffffffffffffffffffffffffffffffffff1673ffffffffffffffffffffffffffffffffffffffff16815260200190815260200160002060008282540392505081905550816000808573ffffffffffffffffffffffffffffffffffffffff1673ffffffffffffffffffffffffffffffffffffffff1681526020019081526020016000206000828254019250508190555081600160008673ffffffffffffffffffffffffffffffffffffffff1673ffffffffffffffffffffffffffffffffffffffff16815260200190815260200160002060003373ffffffffffffffffffffffffffffffffffffffff1673ffffffffffffffffffffffffffffffffffffffff168152602001908152602001600020600082825403925050819055508273ffffffffffffffffffffffffffffffffffffffff168473ffffffffffffffffffffffffffffffffffffffff167fe19260aff97b920c7df27010903aeb9c8d2be5d310a2c67824cf3f15396e4c168460405180828152602001806020018281038252600c8152602001807f7472616e7366657246726f6d00000000000000000000000000000000000000008152506020019250505060405180910390a3600190509392505050565b60006020528060005260406000206000915090505481565b600460009054906101000a900460ff1681565b600760149054906101000a900460ff1681565b600760009054906101000a900473ffffffffffffffffffffffffffffffffffffffff1673ffffffffffffffffffffffffffffffffffffffff163373ffffffffffffffffffffffffffffffffffffffff16141515610f4057600080fd5b600760009054906101000a900473ffffffffffffffffffffffffffffffffffffffff1673ffffffffffffffffffffffffffffffffffffffff16ff5b6000600760009054906101000a900473ffffffffffffffffffffffffffffffffffffffff1673ffffffffffffffffffffffffffffffffffffffff163373ffffffffffffffffffffffffffffffffffffffff16141515610fd957600080fd5b81600760146101000a81548160ff02191690831515021790555060019050919050565b6000806000836000803373ffffffffffffffffffffffffffffffffffffffff1673ffffffffffffffffffffffffffffffffffffffff16815260200190815260200160002054101561104c57600080fd5b6000808673ffffffffffffffffffffffffffffffffffffffff1673ffffffffffffffffffffffffffffffffffffffff16815260200190815260200160002054846000808873ffffffffffffffffffffffffffffffffffffffff1673ffffffffffffffffffffffffffffffffffffffff168152602001908152602001600020540110156110d757600080fd5b836000803373ffffffffffffffffffffffffffffffffffffffff1673ffffffffffffffffffffffffffffffffffffffff16815260200190815260200160002060008282540392505081905550836000808773ffffffffffffffffffffffffffffffffffffffff1673ffffffffffffffffffffffffffffffffffffffff168152602001908152602001600020600082825401925050819055508491508173ffffffffffffffffffffffffffffffffffffffff166347e7ef2433866000604051602001526040518363ffffffff167c0100000000000000000000000000000000000000000000000000000000028152600401808373ffffffffffffffffffffffffffffffffffffffff1673ffffffffffffffffffffffffffffffffffffffff16815260200182815260200192505050602060405180830381600087803b151561121d57600080fd5b6102c65a03f1151561122e57600080fd5b5050506040518051905090508473ffffffffffffffffffffffffffffffffffffffff163373ffffffffffffffffffffffffffffffffffffffff167fe19260aff97b920c7df27010903aeb9c8d2be5d310a2c67824cf3f15396e4c16866040518082815260200180602001828103825260078152602001807f6465706f736974000000000000000000000000000000000000000000000000008152506020019250505060405180910390a380843373ffffffffffffffffffffffffffffffffffffffff167fad40ae5dc69974ba932d08b0a608e89109412d41d04850f5196f144875ae266060405160405180910390a460019250505092915050565b60095481565b60068054600181600116156101000203166002900480601f0160208091040260200160405190810160405280929190818152602001828054600181600116156101000203166002900480156113c55780601f1061139a576101008083540402835291602001916113c5565b820191906000526020600020905b8154815290600101906020018083116113a857829003601f168201915b505050505081565b6001602052816000526040600020602052806000526040600020600091509150505481565b6000600760009054906101000a900473ffffffffffffffffffffffffffffffffffffffff1673ffffffffffffffffffffffffffffffffffffffff163373ffffffffffffffffffffffffffffffffffffffff1614151561145057600080fd5b826000808773ffffffffffffffffffffffffffffffffffffffff1673ffffffffffffffffffffffffffffffffffffffff16815260200190815260200160002054101561149b57600080fd5b6000808573ffffffffffffffffffffffffffffffffffffffff1673ffffffffffffffffffffffffffffffffffffffff16815260200190815260200160002054836000808773ffffffffffffffffffffffffffffffffffffffff1673ffffffffffffffffffffffffffffffffffffffff1681526020019081526020016000205401101561152657600080fd5b826000808773ffffffffffffffffffffffffffffffffffffffff1673ffffffffffffffffffffffffffffffffffffffff16815260200190815260200160002060008282540392505081905550826000808673ffffffffffffffffffffffffffffffffffffffff1673ffffffffffffffffffffffffffffffffffffffff168152602001908152602001600020600082825401925050819055508373ffffffffffffffffffffffffffffffffffffffff168573ffffffffffffffffffffffffffffffffffffffff167fe19260aff97b920c7df27010903aeb9c8d2be5d310a2c67824cf3f15396e4c168560405180828152602001806020018281038252600081526020016020019250505060405180910390a360019050949350505050565b60008060008373ffffffffffffffffffffffffffffffffffffffff1673ffffffffffffffffffffffffffffffffffffffff168152602001908152602001600020549050919050565b60085481565b60058054600181600116156101000203166002900480601f0160208091040260200160405190810160405280929190818152602001828054600181600116156101000203166002900480156117275780601f106116fc57610100808354040283529160200191611727565b820191906000526020600020905b81548152906001019060200180831161170a57829003601f168201915b505050505081565b600760009054906101000a900473ffffffffffffffffffffffffffffffffffffffff1673ffffffffffffffffffffffffffffffffffffffff163373ffffffffffffffffffffffffffffffffffffffff1614151561178b57600080fd5b80600080600760009054906101000a900473ffffffffffffffffffffffffffffffffffffffff1673ffffffffffffffffffffffffffffffffffffffff1673ffffffffffffffffffffffffffffffffffffffff1681526020019081526020016000206000828254019250508190555080600260008282540192505081905550600760009054906101000a900473ffffffffffffffffffffffffffffffffffffffff1673ffffffffffffffffffffffffffffffffffffffff163073ffffffffffffffffffffffffffffffffffffffff167fe19260aff97b920c7df27010903aeb9c8d2be5d310a2c67824cf3f15396e4c16836040518082815260200180602001828103825260048152602001807f6d696e74000000000000000000000000000000000000000000000000000000008152506020019250505060405180910390a350565b6000600854348115156118db57fe5b04905080600080600760009054906101000a900473ffffffffffffffffffffffffffffffffffffffff1673ffffffffffffffffffffffffffffffffffffffff1673ffffffffffffffffffffffffffffffffffffffff16815260200190815260200160002054101561194b57600080fd5b80600080600760009054906101000a900473ffffffffffffffffffffffffffffffffffffffff1673ffffffffffffffffffffffffffffffffffffffff1673ffffffffffffffffffffffffffffffffffffffff16815260200190815260200160002060008282540392505081905550806000803373ffffffffffffffffffffffffffffffffffffffff1673ffffffffffffffffffffffffffffffffffffffff168152602001908152602001600020600082825401925050819055503373ffffffffffffffffffffffffffffffffffffffff16600760009054906101000a900473ffffffffffffffffffffffffffffffffffffffff1673ffffffffffffffffffffffffffffffffffffffff167fe19260aff97b920c7df27010903aeb9c8d2be5d310a2c67824cf3f15396e4c16836040518082815260200180602001828103825260038152602001807f62757900000000000000000000000000000000000000000000000000000000008152506020019250505060405180910390a380905090565b6000611ae883836020604051908101604052806000815250611af0565b905092915050565b600080611afc856123c7565b15611e7057836000803373ffffffffffffffffffffffffffffffffffffffff1673ffffffffffffffffffffffffffffffffffffffff168152602001908152602001600020541015611b4c57600080fd5b6000808673ffffffffffffffffffffffffffffffffffffffff1673ffffffffffffffffffffffffffffffffffffffff16815260200190815260200160002054846000808873ffffffffffffffffffffffffffffffffffffffff1673ffffffffffffffffffffffffffffffffffffffff16815260200190815260200160002054011015611bd757600080fd5b836000803373ffffffffffffffffffffffffffffffffffffffff1673ffffffffffffffffffffffffffffffffffffffff16815260200190815260200160002060008282540392505081905550836000808773ffffffffffffffffffffffffffffffffffffffff1673ffffffffffffffffffffffffffffffffffffffff168152602001908152602001600020600082825401925050819055508490508073ffffffffffffffffffffffffffffffffffffffff1663c0ee0b8a3386866040518463ffffffff167c0100000000000000000000000000000000000000000000000000000000028152600401808473ffffffffffffffffffffffffffffffffffffffff1673ffffffffffffffffffffffffffffffffffffffff16815260200183815260200180602001828103825283818151815260200191508051906020019080838360005b83811015611d34578082015181840152602081019050611d19565b50505050905090810190601f168015611d615780820380516001836020036101000a031916815260200191505b50945050505050600060405180830381600087803b1515611d8157600080fd5b6102c65a03f11515611d9257600080fd5b5050508473ffffffffffffffffffffffffffffffffffffffff163373ffffffffffffffffffffffffffffffffffffffff167fe19260aff97b920c7df27010903aeb9c8d2be5d310a2c67824cf3f15396e4c1686866040518083815260200180602001828103825283818151815260200191508051906020019080838360005b83811015611e2c578082015181840152602081019050611e11565b50505050905090810190601f168015611e595780820380516001836020036101000a031916815260200191505b50935050505060405180910390a36001915061205c565b836000803373ffffffffffffffffffffffffffffffffffffffff1673ffffffffffffffffffffffffffffffffffffffff168152602001908152602001600020541015611ebb57600080fd5b6000808673ffffffffffffffffffffffffffffffffffffffff1673ffffffffffffffffffffffffffffffffffffffff16815260200190815260200160002054846000808873ffffffffffffffffffffffffffffffffffffffff1673ffffffffffffffffffffffffffffffffffffffff16815260200190815260200160002054011015611f4657600080fd5b836000803373ffffffffffffffffffffffffffffffffffffffff1673ffffffffffffffffffffffffffffffffffffffff16815260200190815260200160002060008282540392505081905550836000808773ffffffffffffffffffffffffffffffffffffffff1673ffffffffffffffffffffffffffffffffffffffff168152602001908152602001600020600082825401925050819055508473ffffffffffffffffffffffffffffffffffffffff163373ffffffffffffffffffffffffffffffffffffffff167fe19260aff97b920c7df27010903aeb9c8d2be5d310a2c67824cf3f15396e4c168660405180828152602001806020018281038252600081526020016020019250505060405180910390a3600191505b509392505050565b600760009054906101000a900473ffffffffffffffffffffffffffffffffffffffff1681565b6000600160008473ffffffffffffffffffffffffffffffffffffffff1673ffffffffffffffffffffffffffffffffffffffff16815260200190815260200160002060008373ffffffffffffffffffffffffffffffffffffffff1673ffffffffffffffffffffffffffffffffffffffff16815260200190815260200160002054905092915050565b6000816000803373ffffffffffffffffffffffffffffffffffffffff1673ffffffffffffffffffffffffffffffffffffffff16815260200190815260200160002054101561215e57600080fd5b81600080600760009054906101000a900473ffffffffffffffffffffffffffffffffffffffff1673ffffffffffffffffffffffffffffffffffffffff1673ffffffffffffffffffffffffffffffffffffffff16815260200190815260200160002060008282540192505081905550816000803373ffffffffffffffffffffffffffffffffffffffff1673ffffffffffffffffffffffffffffffffffffffff16815260200190815260200160002060008282540392505081905550600954820290503373ffffffffffffffffffffffffffffffffffffffff166108fc829081150290604051600060405180830381858888f19350505050151561225f57600080fd5b600760009054906101000a900473ffffffffffffffffffffffffffffffffffffffff1673ffffffffffffffffffffffffffffffffffffffff163373ffffffffffffffffffffffffffffffffffffffff167fe19260aff97b920c7df27010903aeb9c8d2be5d310a2c67824cf3f15396e4c16846040518082815260200180602001828103825260048152602001807f73656c6c000000000000000000000000000000000000000000000000000000008152506020019250505060405180910390a3809050919050565b600760009054906101000a900473ffffffffffffffffffffffffffffffffffffffff1673ffffffffffffffffffffffffffffffffffffffff163373ffffffffffffffffffffffffffffffffffffffff1614151561238357600080fd5b80600760006101000a81548173ffffffffffffffffffffffffffffffffffffffff021916908373ffffffffffffffffffffffffffffffffffffffff16021790555050565b600080823b905060008111156123e057600191506123e5565b600091505b509190505600a165627a7a72305820febae39e60c0ea897b7105defffbbe285de29c559952057da73ccc4ac9a5be790029",
  "source": "pragma solidity ^0.4.18;\n\ncontract TokenReceiver {\n  function tokenFallback(address _from, uint256 _value, bytes _data);\n  function deposit(address _from, uint256 _value) returns (uint256 depositIndex);\n}\n\n//\ncontract TokenParent {\n\n  // ERC20 State\n  mapping (address => uint256) public balances;\n  mapping (address => mapping (address => uint256)) public allowances;\n  uint256 public totalSupply;\n\n  // Human State\n  string public name;\n  uint8 public decimals;\n  string public symbol;\n  string public version;\n\n  // Minter State\n  address public centralMinter;\n\n  // Backed By Ether State\n  bool public onSale;\n  uint256 public buyPrice;\n  uint256 public sellPrice;\n\n  // Modifiers\n  modifier onlyMinter {\n    if (msg.sender != centralMinter) revert();\n    _;\n  }\n\n  // ERC20 Events\n  event Transfer(address indexed _from, address indexed _to, uint256 _value, bytes _data);\n  event Approval(address indexed _owner, address indexed _spender, uint256 _value);\n\n  // Constructor\n  function TokenParent() public {\n    balances[msg.sender] = 90000000000;\n    totalSupply = 90000000000;\n    name = \"Hydra Mainnet Token\";\n    decimals = 18;\n    symbol = \"HYD\";\n    version = \"0.1\";\n    centralMinter = msg.sender;\n    buyPrice = 100000000000000;\n    sellPrice = 90000000000000;\n    onSale = false;\n  }\n\n  // check if address is contract or not\n  function isContract(address _address) private view returns (bool is_contract) {\n      uint length;\n      assembly {\n          length := extcodesize(_address)\n      }\n      if (length > 0) {\n          return true;\n      } else {\n          return false;\n      }\n  }\n\n  // ERC20 Methods\n  function balanceOf(address _address) constant public returns (uint256 balance) {\n    return balances[_address];\n  }\n\n  function allowance(address _owner, address _spender) constant public returns (uint256 remaining) {\n    return allowances[_owner][_spender];\n  }\n\n  // ERC 20\n  function transfer(address _to, uint256 _value) public returns (bool success) {\n    return transfer(_to, _value, \"\");\n  }\n\n  // ERC 223\n  function transfer(address _to, uint256 _value, bytes _data) public returns (bool success) {\n\n    if (isContract(_to)) {\n\n      if(balances[msg.sender] < _value) revert();\n      if(balances[_to] + _value < balances[_to]) revert();\n      balances[msg.sender] -= _value;\n      balances[_to] += _value;\n\n      // call tokenFallback on token\n      TokenReceiver receiver = TokenReceiver(_to);\n      receiver.tokenFallback(msg.sender, _value, _data);\n\n      Transfer(msg.sender, _to, _value, _data);\n      return true;\n    } else {\n      // nomal address\n      if(balances[msg.sender] < _value) revert();\n      if(balances[_to] + _value < balances[_to]) revert();\n      balances[msg.sender] -= _value;\n      balances[_to] += _value;\n      Transfer(msg.sender, _to, _value, \"\");\n      return true;\n    }\n  }\n\n  //\n  // Plasma\n  //\n\n  // deposit event\n  event DepositEvent(address indexed _from, uint256 indexed _amount, uint256 indexed _depositIndex);\n\n  // deposit token on plasma contract\n  function deposit(address _to, uint256 _value) public returns (bool success) {\n\n    if(balances[msg.sender] < _value) revert();\n    if(balances[_to] + _value < balances[_to]) revert();\n    balances[msg.sender] -= _value;\n    balances[_to] += _value;\n\n    // call tokenFallback on token\n    TokenReceiver receiver = TokenReceiver(_to);\n    uint256 depositIndex = receiver.deposit(msg.sender, _value);\n\n    // send event\n    Transfer(msg.sender, _to, _value, \"deposit\");\n    DepositEvent(msg.sender, _value, depositIndex);\n\n    return true;\n  }\n\n  // move token back to user from plasma\n  // called because\n  function exitFromPlasma(\n      address _plasma,\n      address _to,\n      uint256 _value,\n      uint256 _depositIndex\n    ) public onlyMinter returns (bool success) {\n\n    /* // call plasama\n    PlasmaParent pp = PlasmaParent(_plasma);\n    bool flg = pp.canTransferValue( _to, _value, _depositIndex);\n    if (flg == false) revert(); */\n\n    if(balances[_plasma] < _value) revert();\n    if(balances[_to] + _value < balances[_to]) revert();\n    balances[_plasma] -= _value;\n    balances[_to] += _value;\n\n    /* bool flg = pp.completeExit(_depositIndex);\n    if (flg == false) revert(); */\n\n    Transfer(_plasma, _to, _value, \"\");\n\n    return true;\n\n  }\n\n  function approve(address _spender, uint256 _value) public returns (bool success) {\n    allowances[msg.sender][_spender] = _value;\n    Approval(msg.sender, _spender, _value);\n    return true;\n  }\n\n  function transferFrom(address _owner, address _to, uint256 _value) public returns (bool success) {\n    if(balances[_owner] < _value) revert();\n    if(balances[_to] + _value < balances[_to]) revert();\n    if(allowances[_owner][msg.sender] < _value) revert();\n    balances[_owner] -= _value;\n    balances[_to] += _value;\n    allowances[_owner][msg.sender] -= _value;\n\n    Transfer(_owner, _to, _value, \"transferFrom\");\n    return true;\n  }\n\n  // Minter Functions\n  function mint(uint256 _amountToMint) public onlyMinter {\n    balances[centralMinter] += _amountToMint;\n    totalSupply += _amountToMint;\n    Transfer(this, centralMinter, _amountToMint, \"mint\");\n  }\n\n  function transferMinter(address _newMinter) public onlyMinter {\n    centralMinter = _newMinter;\n  }\n\n  // Backed By Ether Methods\n  // Must create the contract so that it has enough Ether to buy back ALL tokens on the market, or else the contract will be insolvent and users won't be able to sell their tokens\n  function setPrices(uint256 _newSellPrice, uint256 _newBuyPrice) public onlyMinter {\n    sellPrice = _newSellPrice;\n    buyPrice = _newBuyPrice;\n  }\n\n  // update onSale\n  function updateSaleState(bool _onSale) public onlyMinter returns (bool success) {\n    onSale = _onSale;\n    return true;\n  }\n\n  // buy token with ether\n  function buy() payable public returns (uint amount) {\n    amount = msg.value / buyPrice;\n    if(balances[centralMinter] < amount) revert();            // Validate there are enough tokens minted\n    balances[centralMinter] -= amount;\n    balances[msg.sender] += amount;\n    Transfer(centralMinter, msg.sender, amount, \"buy\");\n    return amount;\n  }\n\n  // sell token to get ether\n  function sell(uint _amount) public returns (uint revenue) {\n    if (balances[msg.sender] < _amount) revert();            // Validate sender has enough tokens to sell\n    balances[centralMinter] += _amount;\n    balances[msg.sender] -= _amount;\n    revenue = _amount * sellPrice;\n    if (!msg.sender.send(revenue)) {\n      revert();\n    } else {\n      Transfer(msg.sender, centralMinter, _amount, \"sell\");\n      return revenue;\n    }\n  }\n\n  // kill contract itself\n  function kill() onlyMinter public {\n      selfdestruct(centralMinter);\n  }\n\n  // fallback for ether\n  function() payable public {\n    revert();\n  }\n}\n",
  "sourcePath": "/Users/kouohhashi/Desktop/eth_project/credit_hydra/smart_contracts/contracts/TokenParent.sol",
  "compiler": {
    "name": "solc",
    "version": "0.4.18+commit.9cf6e910.Emscripten.clang"
  },
  "schemaVersion": "1.0.1",
  "updatedAt": "2018-02-17T19:47:16.238Z"
}